{"contracts/ProgrammableTokenTransfer.sol":{"ProgrammableTokenTransfer":{"abi":[{"inputs":[{"internalType":"address","name":"_router","type":"address"},{"internalType":"address","name":"_swapRouter","type":"address"}],"stateMutability":"nonpayable","type":"constructor"},{"inputs":[{"internalType":"uint64","name":"destinationChainSelector","type":"uint64"}],"name":"DestinationChainNotAllowed","type":"error"},{"inputs":[{"internalType":"address","name":"owner","type":"address"},{"internalType":"address","name":"target","type":"address"},{"internalType":"uint256","name":"value","type":"uint256"}],"name":"FailedToWithdrawEth","type":"error"},{"inputs":[],"name":"InvalidBeneficiaryAddress","type":"error"},{"inputs":[],"name":"InvalidPayerAddress","type":"error"},{"inputs":[],"name":"InvalidReceiverAddress","type":"error"},{"inputs":[{"internalType":"address","name":"router","type":"address"}],"name":"InvalidRouter","type":"error"},{"inputs":[],"name":"InvalidTokenAddress","type":"error"},{"inputs":[],"name":"InvalidTransferAmount","type":"error"},{"inputs":[{"internalType":"uint256","name":"currentBalance","type":"uint256"},{"internalType":"uint256","name":"calculatedFees","type":"uint256"}],"name":"NotEnoughBalance","type":"error"},{"inputs":[],"name":"NothingToWithdraw","type":"error"},{"inputs":[{"internalType":"address","name":"sender","type":"address"}],"name":"SenderNotAllowed","type":"error"},{"inputs":[{"internalType":"uint64","name":"sourceChainSelector","type":"uint64"}],"name":"SourceChainNotAllowed","type":"error"},{"anonymous":false,"inputs":[{"indexed":true,"internalType":"bytes32","name":"messageId","type":"bytes32"},{"indexed":true,"internalType":"uint64","name":"sourceChainSelector","type":"uint64"},{"indexed":false,"internalType":"address","name":"sender","type":"address"},{"components":[{"internalType":"address","name":"payer","type":"address"},{"internalType":"address","name":"beneficiary","type":"address"},{"internalType":"address","name":"targetToken","type":"address"},{"internalType":"uint256","name":"targetAmount","type":"uint256"}],"indexed":false,"internalType":"struct ProgrammableTokenTransfer.TransferData","name":"data","type":"tuple"},{"indexed":false,"internalType":"address","name":"token","type":"address"},{"indexed":false,"internalType":"uint256","name":"tokenAmount","type":"uint256"}],"name":"MessageReceived","type":"event"},{"anonymous":false,"inputs":[{"indexed":true,"internalType":"bytes32","name":"messageId","type":"bytes32"},{"indexed":true,"internalType":"uint64","name":"destinationChainSelector","type":"uint64"},{"indexed":false,"internalType":"address","name":"receiver","type":"address"},{"components":[{"internalType":"address","name":"payer","type":"address"},{"internalType":"address","name":"beneficiary","type":"address"},{"internalType":"address","name":"targetToken","type":"address"},{"internalType":"uint256","name":"targetAmount","type":"uint256"}],"indexed":false,"internalType":"struct ProgrammableTokenTransfer.TransferData","name":"data","type":"tuple"},{"indexed":false,"internalType":"address","name":"token","type":"address"},{"indexed":false,"internalType":"uint256","name":"tokenAmount","type":"uint256"},{"indexed":false,"internalType":"uint256","name":"fees","type":"uint256"}],"name":"MessageSent","type":"event"},{"anonymous":false,"inputs":[{"indexed":true,"internalType":"address","name":"from","type":"address"},{"indexed":true,"internalType":"address","name":"to","type":"address"}],"name":"OwnershipTransferRequested","type":"event"},{"anonymous":false,"inputs":[{"indexed":true,"internalType":"address","name":"from","type":"address"},{"indexed":true,"internalType":"address","name":"to","type":"address"}],"name":"OwnershipTransferred","type":"event"},{"inputs":[],"name":"acceptOwnership","outputs":[],"stateMutability":"nonpayable","type":"function"},{"inputs":[{"internalType":"uint64","name":"_destinationChainSelector","type":"uint64"},{"internalType":"bool","name":"allowed","type":"bool"}],"name":"allowlistDestinationChain","outputs":[],"stateMutability":"nonpayable","type":"function"},{"inputs":[{"internalType":"address","name":"_sender","type":"address"},{"internalType":"bool","name":"allowed","type":"bool"}],"name":"allowlistSender","outputs":[],"stateMutability":"nonpayable","type":"function"},{"inputs":[{"internalType":"uint64","name":"_sourceChainSelector","type":"uint64"},{"internalType":"bool","name":"allowed","type":"bool"}],"name":"allowlistSourceChain","outputs":[],"stateMutability":"nonpayable","type":"function"},{"inputs":[{"internalType":"uint64","name":"","type":"uint64"}],"name":"allowlistedDestinationChains","outputs":[{"internalType":"bool","name":"","type":"bool"}],"stateMutability":"view","type":"function"},{"inputs":[{"internalType":"address","name":"","type":"address"}],"name":"allowlistedSenders","outputs":[{"internalType":"bool","name":"","type":"bool"}],"stateMutability":"view","type":"function"},{"inputs":[{"internalType":"uint64","name":"","type":"uint64"}],"name":"allowlistedSourceChains","outputs":[{"internalType":"bool","name":"","type":"bool"}],"stateMutability":"view","type":"function"},{"inputs":[{"components":[{"internalType":"bytes32","name":"messageId","type":"bytes32"},{"internalType":"uint64","name":"sourceChainSelector","type":"uint64"},{"internalType":"bytes","name":"sender","type":"bytes"},{"internalType":"bytes","name":"data","type":"bytes"},{"components":[{"internalType":"address","name":"token","type":"address"},{"internalType":"uint256","name":"amount","type":"uint256"}],"internalType":"struct Client.EVMTokenAmount[]","name":"destTokenAmounts","type":"tuple[]"}],"internalType":"struct Client.Any2EVMMessage","name":"message","type":"tuple"}],"name":"ccipReceive","outputs":[],"stateMutability":"nonpayable","type":"function"},{"inputs":[],"name":"getRouter","outputs":[{"internalType":"address","name":"","type":"address"}],"stateMutability":"view","type":"function"},{"inputs":[],"name":"owner","outputs":[{"internalType":"address","name":"","type":"address"}],"stateMutability":"view","type":"function"},{"inputs":[{"internalType":"bytes4","name":"interfaceId","type":"bytes4"}],"name":"supportsInterface","outputs":[{"internalType":"bool","name":"","type":"bool"}],"stateMutability":"pure","type":"function"},{"inputs":[{"internalType":"address","name":"_sourceToken","type":"address"},{"internalType":"uint256","name":"_maxSourceAmount","type":"uint256"},{"internalType":"address","name":"_targetToken","type":"address"},{"internalType":"uint256","name":"_targetAmount","type":"uint256"},{"internalType":"address","name":"_beneficiary","type":"address"}],"name":"swapExactOutputSingle","outputs":[{"internalType":"uint256","name":"sourceAmount","type":"uint256"}],"stateMutability":"nonpayable","type":"function"},{"inputs":[],"name":"swapRouter","outputs":[{"internalType":"contract ISwapRouter","name":"","type":"address"}],"stateMutability":"view","type":"function"},{"inputs":[{"internalType":"address","name":"to","type":"address"}],"name":"transferOwnership","outputs":[],"stateMutability":"nonpayable","type":"function"},{"inputs":[{"internalType":"uint64","name":"_destinationChainSelector","type":"uint64"},{"internalType":"address","name":"_receiver","type":"address"},{"components":[{"internalType":"address","name":"payer","type":"address"},{"internalType":"address","name":"beneficiary","type":"address"},{"internalType":"address","name":"targetToken","type":"address"},{"internalType":"uint256","name":"targetAmount","type":"uint256"}],"internalType":"struct ProgrammableTokenTransfer.TransferData","name":"_data","type":"tuple"},{"internalType":"address","name":"_token","type":"address"},{"internalType":"uint256","name":"_amount","type":"uint256"}],"name":"transferToken","outputs":[{"internalType":"bytes32","name":"messageId","type":"bytes32"}],"stateMutability":"nonpayable","type":"function"},{"inputs":[{"internalType":"address","name":"_beneficiary","type":"address"}],"name":"withdraw","outputs":[],"stateMutability":"nonpayable","type":"function"},{"inputs":[{"internalType":"address","name":"_beneficiary","type":"address"},{"internalType":"address","name":"_token","type":"address"}],"name":"withdrawToken","outputs":[],"stateMutability":"nonpayable","type":"function"},{"stateMutability":"payable","type":"receive"}],"evm":{"bytecode":{"linkReferences":{},"object":"60c06040523480156200001157600080fd5b50604051620036ae380380620036ae8339818101604052810190620000379190620003b7565b3380600084600073ffffffffffffffffffffffffffffffffffffffff168173ffffffffffffffffffffffffffffffffffffffff1603620000b15760006040517fd7f73334000000000000000000000000000000000000000000000000000000008152600401620000a891906200040f565b60405180910390fd5b8073ffffffffffffffffffffffffffffffffffffffff1660808173ffffffffffffffffffffffffffffffffffffffff168152505050600073ffffffffffffffffffffffffffffffffffffffff168273ffffffffffffffffffffffffffffffffffffffff160362000158576040517f08c379a00000000000000000000000000000000000000000000000000000000081526004016200014f906200048d565b60405180910390fd5b816000806101000a81548173ffffffffffffffffffffffffffffffffffffffff021916908373ffffffffffffffffffffffffffffffffffffffff160217905550600073ffffffffffffffffffffffffffffffffffffffff168173ffffffffffffffffffffffffffffffffffffffff1614620001df57620001de816200021e60201b60201c565b5b5050508073ffffffffffffffffffffffffffffffffffffffff1660a08173ffffffffffffffffffffffffffffffffffffffff1681525050505062000521565b3373ffffffffffffffffffffffffffffffffffffffff168173ffffffffffffffffffffffffffffffffffffffff16036200028f576040517f08c379a00000000000000000000000000000000000000000000000000000000081526004016200028690620004ff565b60405180910390fd5b80600160006101000a81548173ffffffffffffffffffffffffffffffffffffffff021916908373ffffffffffffffffffffffffffffffffffffffff1602179055508073ffffffffffffffffffffffffffffffffffffffff1660008054906101000a900473ffffffffffffffffffffffffffffffffffffffff1673ffffffffffffffffffffffffffffffffffffffff167fed8889f560326eb138920d842192f0eb3dd22b4f139c87a2c57538e05bae127860405160405180910390a350565b600080fd5b600073ffffffffffffffffffffffffffffffffffffffff82169050919050565b60006200037f8262000352565b9050919050565b620003918162000372565b81146200039d57600080fd5b50565b600081519050620003b18162000386565b92915050565b60008060408385031215620003d157620003d06200034d565b5b6000620003e185828601620003a0565b9250506020620003f485828601620003a0565b9150509250929050565b620004098162000372565b82525050565b6000602082019050620004266000830184620003fe565b92915050565b600082825260208201905092915050565b7f43616e6e6f7420736574206f776e657220746f207a65726f0000000000000000600082015250565b6000620004756018836200042c565b915062000482826200043d565b602082019050919050565b60006020820190508181036000830152620004a88162000466565b9050919050565b7f43616e6e6f74207472616e7366657220746f2073656c66000000000000000000600082015250565b6000620004e76017836200042c565b9150620004f482620004af565b602082019050919050565b600060208201905081810360008301526200051a81620004d8565b9050919050565b60805160a05161314b620005636000396000818161076f01528181610833015281816108dd0152610c3c015260008181610afb0152610c16015261314b6000f3fe6080604052600436106101025760003560e01c806385572ffb11610095578063c31c9c0711610064578063c31c9c0714610350578063d1ee0dd01461037b578063db04fa49146103b8578063eab5b02c146103e1578063f2fde38b1461040a57610109565b806385572ffb146102a85780638da5cb5b146102d157806396d3b83d146102fc578063b0f479a11461032557610109565b80635f299cbe116100d15780635f299cbe146101da5780636159ada11461021757806375c67c661461025457806379ba50971461029157610109565b806301ffc9a71461010e5780633aeac4e11461014b5780634030d5211461017457806351cff8d9146101b157610109565b3661010957005b600080fd5b34801561011a57600080fd5b5061013560048036038101906101309190611cfc565b610433565b6040516101429190611d44565b60405180910390f35b34801561015757600080fd5b50610172600480360381019061016d9190611dbd565b610505565b005b34801561018057600080fd5b5061019b60048036038101906101969190611e3d565b610649565b6040516101a89190611d44565b60405180910390f35b3480156101bd57600080fd5b506101d860048036038101906101d39190611e6a565b610669565b005b3480156101e657600080fd5b5061020160048036038101906101fc9190611ecd565b610767565b60405161020e9190611f57565b60405180910390f35b34801561022357600080fd5b5061023e60048036038101906102399190611e6a565b610924565b60405161024b9190611d44565b60405180910390f35b34801561026057600080fd5b5061027b60048036038101906102769190611e3d565b610944565b6040516102889190611d44565b60405180910390f35b34801561029d57600080fd5b506102a6610964565b005b3480156102b457600080fd5b506102cf60048036038101906102ca9190611f96565b610af9565b005b3480156102dd57600080fd5b506102e6610b9e565b6040516102f39190611fee565b60405180910390f35b34801561030857600080fd5b50610323600480360381019061031e9190612035565b610bc7565b005b34801561033157600080fd5b5061033a610c12565b6040516103479190611fee565b60405180910390f35b34801561035c57600080fd5b50610365610c3a565b60405161037291906120d4565b60405180910390f35b34801561038757600080fd5b506103a2600480360381019061039d919061210e565b610c5e565b6040516103af91906121a3565b60405180910390f35b3480156103c457600080fd5b506103df60048036038101906103da9190612035565b6111db565b005b3480156103ed57600080fd5b50610408600480360381019061040391906121be565b611226565b005b34801561041657600080fd5b50610431600480360381019061042c9190611e6a565b611289565b005b60007f85572ffb000000000000000000000000000000000000000000000000000000007bffffffffffffffffffffffffffffffffffffffffffffffffffffffff1916827bffffffffffffffffffffffffffffffffffffffffffffffffffffffff191614806104fe57507f01ffc9a7000000000000000000000000000000000000000000000000000000007bffffffffffffffffffffffffffffffffffffffffffffffffffffffff1916827bffffffffffffffffffffffffffffffffffffffffffffffffffffffff1916145b9050919050565b61050d61129d565b60008173ffffffffffffffffffffffffffffffffffffffff166370a08231306040518263ffffffff1660e01b81526004016105489190611fee565b602060405180830381865afa158015610565573d6000803e3d6000fd5b505050506040513d601f19601f820116820180604052508101906105899190612213565b9050600081036105c5576040517fd0d04f6000000000000000000000000000000000000000000000000000000000815260040160405180910390fd5b8173ffffffffffffffffffffffffffffffffffffffff1663a9059cbb84836040518363ffffffff1660e01b8152600401610600929190612240565b6020604051808303816000875af115801561061f573d6000803e3d6000fd5b505050506040513d601f19601f82011682018060405250810190610643919061227e565b50505050565b60036020528060005260406000206000915054906101000a900460ff1681565b61067161129d565b6000479050600081036106b0576040517fd0d04f6000000000000000000000000000000000000000000000000000000000815260040160405180910390fd5b60008273ffffffffffffffffffffffffffffffffffffffff16826040516106d6906122dc565b60006040518083038185875af1925050503d8060008114610713576040519150601f19603f3d011682016040523d82523d6000602084013e610718565b606091505b5050905080610762573383836040517f9d11f563000000000000000000000000000000000000000000000000000000008152600401610759939291906122f1565b60405180910390fd5b505050565b6000610794867f00000000000000000000000000000000000000000000000000000000000000008761132d565b60006040518061010001604052808873ffffffffffffffffffffffffffffffffffffffff1681526020018673ffffffffffffffffffffffffffffffffffffffff168152602001600062ffffff1681526020018473ffffffffffffffffffffffffffffffffffffffff168152602001428152602001858152602001878152602001600073ffffffffffffffffffffffffffffffffffffffff1681525090507f000000000000000000000000000000000000000000000000000000000000000073ffffffffffffffffffffffffffffffffffffffff1663db3e2198826040518263ffffffff1660e01b815260040161088a9190612415565b6020604051808303816000875af11580156108a9573d6000803e3d6000fd5b505050506040513d601f19601f820116820180604052508101906108cd9190612213565b91508582101561091a57610903877f0000000000000000000000000000000000000000000000000000000000000000600061132d565b610919878484896109149190612460565b611482565b5b5095945050505050565b60046020528060005260406000206000915054906101000a900460ff1681565b60026020528060005260406000206000915054906101000a900460ff1681565b600160009054906101000a900473ffffffffffffffffffffffffffffffffffffffff1673ffffffffffffffffffffffffffffffffffffffff163373ffffffffffffffffffffffffffffffffffffffff16146109f4576040517f08c379a00000000000000000000000000000000000000000000000000000000081526004016109eb906124f1565b60405180910390fd5b60008060009054906101000a900473ffffffffffffffffffffffffffffffffffffffff169050336000806101000a81548173ffffffffffffffffffffffffffffffffffffffff021916908373ffffffffffffffffffffffffffffffffffffffff1602179055506000600160006101000a81548173ffffffffffffffffffffffffffffffffffffffff021916908373ffffffffffffffffffffffffffffffffffffffff1602179055503373ffffffffffffffffffffffffffffffffffffffff168173ffffffffffffffffffffffffffffffffffffffff167f8be0079c531659141344cd1fd0a4f28419497f9722a3daafe3b4186f6b6457e060405160405180910390a350565b7f000000000000000000000000000000000000000000000000000000000000000073ffffffffffffffffffffffffffffffffffffffff163373ffffffffffffffffffffffffffffffffffffffff1614610b8957336040517fd7f73334000000000000000000000000000000000000000000000000000000008152600401610b809190611fee565b60405180910390fd5b610b9b81610b9690612885565b6115d7565b50565b60008060009054906101000a900473ffffffffffffffffffffffffffffffffffffffff16905090565b610bcf61129d565b80600260008467ffffffffffffffff1667ffffffffffffffff16815260200190815260200160002060006101000a81548160ff0219169083151502179055505050565b60007f0000000000000000000000000000000000000000000000000000000000000000905090565b7f000000000000000000000000000000000000000000000000000000000000000081565b6000610c6861129d565b85600260008267ffffffffffffffff1667ffffffffffffffff16815260200190815260200160002060009054906101000a900460ff16610cdf57806040517f206abad7000000000000000000000000000000000000000000000000000000008152600401610cd691906128a7565b60405180910390fd5b85600073ffffffffffffffffffffffffffffffffffffffff168173ffffffffffffffffffffffffffffffffffffffff1603610d46576040517fa05ff47e00000000000000000000000000000000000000000000000000000000815260040160405180910390fd5b85600073ffffffffffffffffffffffffffffffffffffffff16816000016020810190610d729190611e6a565b73ffffffffffffffffffffffffffffffffffffffff1603610dbf576040517f87ebed7100000000000000000000000000000000000000000000000000000000815260040160405180910390fd5b600073ffffffffffffffffffffffffffffffffffffffff16816020016020810190610dea9190611e6a565b73ffffffffffffffffffffffffffffffffffffffff1603610e37576040517fd343d98400000000000000000000000000000000000000000000000000000000815260040160405180910390fd5b600073ffffffffffffffffffffffffffffffffffffffff16816040016020810190610e629190611e6a565b73ffffffffffffffffffffffffffffffffffffffff1603610eaf576040517f1eb00b0600000000000000000000000000000000000000000000000000000000815260040160405180910390fd5b866040016020810190610ec29190611e6a565b73ffffffffffffffffffffffffffffffffffffffff168673ffffffffffffffffffffffffffffffffffffffff16148015610f00575086606001358514155b15610f37576040517f3c5a808400000000000000000000000000000000000000000000000000000000815260040160405180910390fd5b6000610f4589898989611925565b905060003073ffffffffffffffffffffffffffffffffffffffff1663b0f479a16040518163ffffffff1660e01b8152600401602060405180830381865afa158015610f94573d6000803e3d6000fd5b505050506040513d601f19601f82011682018060405250810190610fb891906128d7565b905060008173ffffffffffffffffffffffffffffffffffffffff166320487ded8d856040518363ffffffff1660e01b8152600401610ff7929190612aec565b602060405180830381865afa158015611014573d6000803e3d6000fd5b505050506040513d601f19601f820116820180604052508101906110389190612213565b9050478111156110815747816040517f8f0f4206000000000000000000000000000000000000000000000000000000008152600401611078929190612b1c565b60405180910390fd5b8873ffffffffffffffffffffffffffffffffffffffff1663095ea7b3838a6040518363ffffffff1660e01b81526004016110bc929190612240565b6020604051808303816000875af11580156110db573d6000803e3d6000fd5b505050506040513d601f19601f820116820180604052508101906110ff919061227e565b508173ffffffffffffffffffffffffffffffffffffffff166396f4e9f9828e866040518463ffffffff1660e01b815260040161113c929190612aec565b60206040518083038185885af115801561115a573d6000803e3d6000fd5b50505050506040513d601f19601f8201168201806040525081019061117f9190612b5a565b96508b67ffffffffffffffff16877f27cf2b4e28cecc12d1735413a6c08eb26b855bb1582d83637b301aee8555943f8d8d8d8d876040516111c4959493929190612c2a565b60405180910390a350505050505095945050505050565b6111e361129d565b80600360008467ffffffffffffffff1667ffffffffffffffff16815260200190815260200160002060006101000a81548160ff0219169083151502179055505050565b61122e61129d565b80600460008473ffffffffffffffffffffffffffffffffffffffff1673ffffffffffffffffffffffffffffffffffffffff16815260200190815260200160002060006101000a81548160ff0219169083151502179055505050565b61129161129d565b61129a81611a70565b50565b60008054906101000a900473ffffffffffffffffffffffffffffffffffffffff1673ffffffffffffffffffffffffffffffffffffffff163373ffffffffffffffffffffffffffffffffffffffff161461132b576040517f08c379a000000000000000000000000000000000000000000000000000000000815260040161132290612cca565b60405180910390fd5b565b6000808473ffffffffffffffffffffffffffffffffffffffff1663095ea7b360e01b8585604051602401611362929190612240565b604051602081830303815290604052907bffffffffffffffffffffffffffffffffffffffffffffffffffffffff19166020820180517bffffffffffffffffffffffffffffffffffffffffffffffffffffffff83818316178352505050506040516113cc9190612d1b565b6000604051808303816000865af19150503d8060008114611409576040519150601f19603f3d011682016040523d82523d6000602084013e61140e565b606091505b509150915081801561143c575060008151148061143b57508080602001905181019061143a919061227e565b5b5b61147b576040517f08c379a000000000000000000000000000000000000000000000000000000000815260040161147290612d7e565b60405180910390fd5b5050505050565b6000808473ffffffffffffffffffffffffffffffffffffffff1663a9059cbb60e01b85856040516024016114b7929190612240565b604051602081830303815290604052907bffffffffffffffffffffffffffffffffffffffffffffffffffffffff19166020820180517bffffffffffffffffffffffffffffffffffffffffffffffffffffffff83818316178352505050506040516115219190612d1b565b6000604051808303816000865af19150503d806000811461155e576040519150601f19603f3d011682016040523d82523d6000602084013e611563565b606091505b5091509150818015611591575060008151148061159057508080602001905181019061158f919061227e565b5b5b6115d0576040517f08c379a00000000000000000000000000000000000000000000000000000000081526004016115c790612dea565b60405180910390fd5b5050505050565b806020015181604001518060200190518101906115f49190612e48565b600360008367ffffffffffffffff1667ffffffffffffffff16815260200190815260200160002060009054906101000a900460ff1661166a57816040517f213c267800000000000000000000000000000000000000000000000000000000815260040161166191906128a7565b60405180910390fd5b600460008273ffffffffffffffffffffffffffffffffffffffff1673ffffffffffffffffffffffffffffffffffffffff16815260200190815260200160002060009054906101000a900460ff166116f857806040517fd0d259760000000000000000000000000000000000000000000000000000000081526004016116ef9190611fee565b60405180910390fd5b600083606001518060200190518101906117129190612eed565b90506000846080015160008151811061172e5761172d612f1a565b5b60200260200101516000015190506000856080015160008151811061175657611755612f1a565b5b60200260200101516020015190508173ffffffffffffffffffffffffffffffffffffffff16836040015173ffffffffffffffffffffffffffffffffffffffff1603611823578173ffffffffffffffffffffffffffffffffffffffff1663a9059cbb8460200151836040518363ffffffff1660e01b81526004016117da929190612240565b6020604051808303816000875af11580156117f9573d6000803e3d6000fd5b505050506040513d601f19601f8201168201806040525081019061181d919061227e565b506118b5565b3073ffffffffffffffffffffffffffffffffffffffff16635f299cbe83838660400151876060015188602001516040518663ffffffff1660e01b8152600401611870959493929190612f49565b6020604051808303816000875af115801561188f573d6000803e3d6000fd5b505050506040513d601f19601f820116820180604052508101906118b39190612213565b505b856020015167ffffffffffffffff1686600001517f599c623eef336d2101cfeb7a6e55c2e8aa98ae12831c9a86fcb31f5650401f0388604001518060200190518101906119029190612e48565b8686866040516119159493929190613012565b60405180910390a3505050505050565b61192d611c1b565b6000600167ffffffffffffffff81111561194a57611949612527565b5b60405190808252806020026020018201604052801561198357816020015b611970611c60565b8152602001906001900390816119685790505b50905060405180604001604052808573ffffffffffffffffffffffffffffffffffffffff16815260200184815250816000815181106119c5576119c4612f1a565b5b60200260200101819052506040518060a00160405280876040516020016119ec9190611fee565b604051602081830303815290604052815260200186604051602001611a119190613057565b6040516020818303038152906040528152602001828152602001600073ffffffffffffffffffffffffffffffffffffffff168152602001611a62604051806020016040528062030d40815250611b9c565b815250915050949350505050565b3373ffffffffffffffffffffffffffffffffffffffff168173ffffffffffffffffffffffffffffffffffffffff1603611ade576040517f08c379a0000000000000000000000000000000000000000000000000000000008152600401611ad5906130be565b60405180910390fd5b80600160006101000a81548173ffffffffffffffffffffffffffffffffffffffff021916908373ffffffffffffffffffffffffffffffffffffffff1602179055508073ffffffffffffffffffffffffffffffffffffffff1660008054906101000a900473ffffffffffffffffffffffffffffffffffffffff1673ffffffffffffffffffffffffffffffffffffffff167fed8889f560326eb138920d842192f0eb3dd22b4f139c87a2c57538e05bae127860405160405180910390a350565b60606397a657c960e01b82604051602401611bb791906130fa565b604051602081830303815290604052907bffffffffffffffffffffffffffffffffffffffffffffffffffffffff19166020820180517bffffffffffffffffffffffffffffffffffffffffffffffffffffffff83818316178352505050509050919050565b6040518060a00160405280606081526020016060815260200160608152602001600073ffffffffffffffffffffffffffffffffffffffff168152602001606081525090565b6040518060400160405280600073ffffffffffffffffffffffffffffffffffffffff168152602001600081525090565b6000604051905090565b600080fd5b600080fd5b60007fffffffff0000000000000000000000000000000000000000000000000000000082169050919050565b611cd981611ca4565b8114611ce457600080fd5b50565b600081359050611cf681611cd0565b92915050565b600060208284031215611d1257611d11611c9a565b5b6000611d2084828501611ce7565b91505092915050565b60008115159050919050565b611d3e81611d29565b82525050565b6000602082019050611d596000830184611d35565b92915050565b600073ffffffffffffffffffffffffffffffffffffffff82169050919050565b6000611d8a82611d5f565b9050919050565b611d9a81611d7f565b8114611da557600080fd5b50565b600081359050611db781611d91565b92915050565b60008060408385031215611dd457611dd3611c9a565b5b6000611de285828601611da8565b9250506020611df385828601611da8565b9150509250929050565b600067ffffffffffffffff82169050919050565b611e1a81611dfd565b8114611e2557600080fd5b50565b600081359050611e3781611e11565b92915050565b600060208284031215611e5357611e52611c9a565b5b6000611e6184828501611e28565b91505092915050565b600060208284031215611e8057611e7f611c9a565b5b6000611e8e84828501611da8565b91505092915050565b6000819050919050565b611eaa81611e97565b8114611eb557600080fd5b50565b600081359050611ec781611ea1565b92915050565b600080600080600060a08688031215611ee957611ee8611c9a565b5b6000611ef788828901611da8565b9550506020611f0888828901611eb8565b9450506040611f1988828901611da8565b9350506060611f2a88828901611eb8565b9250506080611f3b88828901611da8565b9150509295509295909350565b611f5181611e97565b82525050565b6000602082019050611f6c6000830184611f48565b92915050565b600080fd5b600060a08284031215611f8d57611f8c611f72565b5b81905092915050565b600060208284031215611fac57611fab611c9a565b5b600082013567ffffffffffffffff811115611fca57611fc9611c9f565b5b611fd684828501611f77565b91505092915050565b611fe881611d7f565b82525050565b60006020820190506120036000830184611fdf565b92915050565b61201281611d29565b811461201d57600080fd5b50565b60008135905061202f81612009565b92915050565b6000806040838503121561204c5761204b611c9a565b5b600061205a85828601611e28565b925050602061206b85828601612020565b9150509250929050565b6000819050919050565b600061209a61209561209084611d5f565b612075565b611d5f565b9050919050565b60006120ac8261207f565b9050919050565b60006120be826120a1565b9050919050565b6120ce816120b3565b82525050565b60006020820190506120e960008301846120c5565b92915050565b60006080828403121561210557612104611f72565b5b81905092915050565b6000806000806000610100868803121561212b5761212a611c9a565b5b600061213988828901611e28565b955050602061214a88828901611da8565b945050604061215b888289016120ef565b93505060c061216c88828901611da8565b92505060e061217d88828901611eb8565b9150509295509295909350565b6000819050919050565b61219d8161218a565b82525050565b60006020820190506121b86000830184612194565b92915050565b600080604083850312156121d5576121d4611c9a565b5b60006121e385828601611da8565b92505060206121f485828601612020565b9150509250929050565b60008151905061220d81611ea1565b92915050565b60006020828403121561222957612228611c9a565b5b6000612237848285016121fe565b91505092915050565b60006040820190506122556000830185611fdf565b6122626020830184611f48565b9392505050565b60008151905061227881612009565b92915050565b60006020828403121561229457612293611c9a565b5b60006122a284828501612269565b91505092915050565b600081905092915050565b50565b60006122c66000836122ab565b91506122d1826122b6565b600082019050919050565b60006122e7826122b9565b9150819050919050565b60006060820190506123066000830186611fdf565b6123136020830185611fdf565b6123206040830184611f48565b949350505050565b61233181611d7f565b82525050565b600062ffffff82169050919050565b61234f81612337565b82525050565b61235e81611e97565b82525050565b61236d81611d5f565b82525050565b6101008201600082015161238a6000850182612328565b50602082015161239d6020850182612328565b5060408201516123b06040850182612346565b5060608201516123c36060850182612328565b5060808201516123d66080850182612355565b5060a08201516123e960a0850182612355565b5060c08201516123fc60c0850182612355565b5060e082015161240f60e0850182612364565b50505050565b60006101008201905061242b6000830184612373565b92915050565b7f4e487b7100000000000000000000000000000000000000000000000000000000600052601160045260246000fd5b600061246b82611e97565b915061247683611e97565b925082820390508181111561248e5761248d612431565b5b92915050565b600082825260208201905092915050565b7f4d7573742062652070726f706f736564206f776e657200000000000000000000600082015250565b60006124db601683612494565b91506124e6826124a5565b602082019050919050565b6000602082019050818103600083015261250a816124ce565b9050919050565b600080fd5b6000601f19601f8301169050919050565b7f4e487b7100000000000000000000000000000000000000000000000000000000600052604160045260246000fd5b61255f82612516565b810181811067ffffffffffffffff8211171561257e5761257d612527565b5b80604052505050565b6000612591611c90565b905061259d8282612556565b919050565b600080fd5b6125b08161218a565b81146125bb57600080fd5b50565b6000813590506125cd816125a7565b92915050565b600080fd5b600080fd5b600067ffffffffffffffff8211156125f8576125f7612527565b5b61260182612516565b9050602081019050919050565b82818337600083830152505050565b600061263061262b846125dd565b612587565b90508281526020810184848401111561264c5761264b6125d8565b5b61265784828561260e565b509392505050565b600082601f830112612674576126736125d3565b5b813561268484826020860161261d565b91505092915050565b600067ffffffffffffffff8211156126a8576126a7612527565b5b602082029050602081019050919050565b600080fd5b6000604082840312156126d4576126d3612511565b5b6126de6040612587565b905060006126ee84828501611da8565b600083015250602061270284828501611eb8565b60208301525092915050565b600061272161271c8461268d565b612587565b90508083825260208201905060408402830185811115612744576127436126b9565b5b835b8181101561276d578061275988826126be565b845260208401935050604081019050612746565b5050509392505050565b600082601f83011261278c5761278b6125d3565b5b813561279c84826020860161270e565b91505092915050565b600060a082840312156127bb576127ba612511565b5b6127c560a0612587565b905060006127d5848285016125be565b60008301525060206127e984828501611e28565b602083015250604082013567ffffffffffffffff81111561280d5761280c6125a2565b5b6128198482850161265f565b604083015250606082013567ffffffffffffffff81111561283d5761283c6125a2565b5b6128498482850161265f565b606083015250608082013567ffffffffffffffff81111561286d5761286c6125a2565b5b61287984828501612777565b60808301525092915050565b600061289136836127a5565b9050919050565b6128a181611dfd565b82525050565b60006020820190506128bc6000830184612898565b92915050565b6000815190506128d181611d91565b92915050565b6000602082840312156128ed576128ec611c9a565b5b60006128fb848285016128c2565b91505092915050565b600081519050919050565b600082825260208201905092915050565b60005b8381101561293e578082015181840152602081019050612923565b60008484015250505050565b600061295582612904565b61295f818561290f565b935061296f818560208601612920565b61297881612516565b840191505092915050565b600081519050919050565b600082825260208201905092915050565b6000819050602082019050919050565b6040820160008201516129c56000850182612328565b5060208201516129d86020850182612355565b50505050565b60006129ea83836129af565b60408301905092915050565b6000602082019050919050565b6000612a0e82612983565b612a18818561298e565b9350612a238361299f565b8060005b83811015612a54578151612a3b88826129de565b9750612a46836129f6565b925050600181019050612a27565b5085935050505092915050565b600060a0830160008301518482036000860152612a7e828261294a565b91505060208301518482036020860152612a98828261294a565b91505060408301518482036040860152612ab28282612a03565b9150506060830151612ac76060860182612328565b5060808301518482036080860152612adf828261294a565b9150508091505092915050565b6000604082019050612b016000830185612898565b8181036020830152612b138184612a61565b90509392505050565b6000604082019050612b316000830185611f48565b612b3e6020830184611f48565b9392505050565b600081519050612b54816125a7565b92915050565b600060208284031215612b7057612b6f611c9a565b5b6000612b7e84828501612b45565b91505092915050565b6000612b966020840184611da8565b905092915050565b6000612bad6020840184611eb8565b905092915050565b60808201612bc66000830183612b87565b612bd36000850182612328565b50612be16020830183612b87565b612bee6020850182612328565b50612bfc6040830183612b87565b612c096040850182612328565b50612c176060830183612b9e565b612c246060850182612355565b50505050565b600061010082019050612c406000830188611fdf565b612c4d6020830187612bb5565b612c5a60a0830186611fdf565b612c6760c0830185611f48565b612c7460e0830184611f48565b9695505050505050565b7f4f6e6c792063616c6c61626c65206279206f776e657200000000000000000000600082015250565b6000612cb4601683612494565b9150612cbf82612c7e565b602082019050919050565b60006020820190508181036000830152612ce381612ca7565b9050919050565b6000612cf582612904565b612cff81856122ab565b9350612d0f818560208601612920565b80840191505092915050565b6000612d278284612cea565b915081905092915050565b7f5341000000000000000000000000000000000000000000000000000000000000600082015250565b6000612d68600283612494565b9150612d7382612d32565b602082019050919050565b60006020820190508181036000830152612d9781612d5b565b9050919050565b7f5354000000000000000000000000000000000000000000000000000000000000600082015250565b6000612dd4600283612494565b9150612ddf82612d9e565b602082019050919050565b60006020820190508181036000830152612e0381612dc7565b9050919050565b6000612e1582611d5f565b9050919050565b612e2581612e0a565b8114612e3057600080fd5b50565b600081519050612e4281612e1c565b92915050565b600060208284031215612e5e57612e5d611c9a565b5b6000612e6c84828501612e33565b91505092915050565b600060808284031215612e8b57612e8a612511565b5b612e956080612587565b90506000612ea5848285016128c2565b6000830152506020612eb9848285016128c2565b6020830152506040612ecd848285016128c2565b6040830152506060612ee1848285016121fe565b60608301525092915050565b600060808284031215612f0357612f02611c9a565b5b6000612f1184828501612e75565b91505092915050565b7f4e487b7100000000000000000000000000000000000000000000000000000000600052603260045260246000fd5b600060a082019050612f5e6000830188611fdf565b612f6b6020830187611f48565b612f786040830186611fdf565b612f856060830185611f48565b612f926080830184611fdf565b9695505050505050565b6000612fa7826120a1565b9050919050565b612fb781612f9c565b82525050565b608082016000820151612fd36000850182612328565b506020820151612fe66020850182612328565b506040820151612ff96040850182612328565b50606082015161300c6060850182612355565b50505050565b600060e0820190506130276000830187612fae565b6130346020830186612fbd565b61304160a0830185611fdf565b61304e60c0830184611f48565b95945050505050565b600060808201905061306c6000830184612bb5565b92915050565b7f43616e6e6f74207472616e7366657220746f2073656c66000000000000000000600082015250565b60006130a8601783612494565b91506130b382613072565b602082019050919050565b600060208201905081810360008301526130d78161309b565b9050919050565b6020820160008201516130f46000850182612355565b50505050565b600060208201905061310f60008301846130de565b9291505056fea2646970667358221220189257ec7b05dd683107ee90109c320e33c54d713ae222dbad44d8dd674fd45064736f6c63430008130033","opcodes":"PUSH1 0xC0 PUSH1 0x40 MSTORE CALLVALUE DUP1 ISZERO PUSH3 0x11 JUMPI PUSH1 0x0 DUP1 REVERT JUMPDEST POP PUSH1 0x40 MLOAD PUSH3 0x36AE CODESIZE SUB DUP1 PUSH3 0x36AE DUP4 CODECOPY DUP2 DUP2 ADD PUSH1 0x40 MSTORE DUP2 ADD SWAP1 PUSH3 0x37 SWAP2 SWAP1 PUSH3 0x3B7 JUMP JUMPDEST CALLER DUP1 PUSH1 0x0 DUP5 PUSH1 0x0 PUSH20 0xFFFFFFFFFFFFFFFFFFFFFFFFFFFFFFFFFFFFFFFF AND DUP2 PUSH20 0xFFFFFFFFFFFFFFFFFFFFFFFFFFFFFFFFFFFFFFFF AND SUB PUSH3 0xB1 JUMPI PUSH1 0x0 PUSH1 0x40 MLOAD PUSH32 0xD7F7333400000000000000000000000000000000000000000000000000000000 DUP2 MSTORE PUSH1 0x4 ADD PUSH3 0xA8 SWAP2 SWAP1 PUSH3 0x40F JUMP JUMPDEST PUSH1 0x40 MLOAD DUP1 SWAP2 SUB SWAP1 REVERT JUMPDEST DUP1 PUSH20 0xFFFFFFFFFFFFFFFFFFFFFFFFFFFFFFFFFFFFFFFF AND PUSH1 0x80 DUP2 PUSH20 0xFFFFFFFFFFFFFFFFFFFFFFFFFFFFFFFFFFFFFFFF AND DUP2 MSTORE POP POP POP PUSH1 0x0 PUSH20 0xFFFFFFFFFFFFFFFFFFFFFFFFFFFFFFFFFFFFFFFF AND DUP3 PUSH20 0xFFFFFFFFFFFFFFFFFFFFFFFFFFFFFFFFFFFFFFFF AND SUB PUSH3 0x158 JUMPI PUSH1 0x40 MLOAD PUSH32 0x8C379A000000000000000000000000000000000000000000000000000000000 DUP2 MSTORE PUSH1 0x4 ADD PUSH3 0x14F SWAP1 PUSH3 0x48D JUMP JUMPDEST PUSH1 0x40 MLOAD DUP1 SWAP2 SUB SWAP1 REVERT JUMPDEST DUP2 PUSH1 0x0 DUP1 PUSH2 0x100 EXP DUP2 SLOAD DUP2 PUSH20 0xFFFFFFFFFFFFFFFFFFFFFFFFFFFFFFFFFFFFFFFF MUL NOT AND SWAP1 DUP4 PUSH20 0xFFFFFFFFFFFFFFFFFFFFFFFFFFFFFFFFFFFFFFFF AND MUL OR SWAP1 SSTORE POP PUSH1 0x0 PUSH20 0xFFFFFFFFFFFFFFFFFFFFFFFFFFFFFFFFFFFFFFFF AND DUP2 PUSH20 0xFFFFFFFFFFFFFFFFFFFFFFFFFFFFFFFFFFFFFFFF AND EQ PUSH3 0x1DF JUMPI PUSH3 0x1DE DUP2 PUSH3 0x21E PUSH1 0x20 SHL PUSH1 0x20 SHR JUMP JUMPDEST JUMPDEST POP POP POP DUP1 PUSH20 0xFFFFFFFFFFFFFFFFFFFFFFFFFFFFFFFFFFFFFFFF AND PUSH1 0xA0 DUP2 PUSH20 0xFFFFFFFFFFFFFFFFFFFFFFFFFFFFFFFFFFFFFFFF AND DUP2 MSTORE POP POP POP POP PUSH3 0x521 JUMP JUMPDEST CALLER PUSH20 0xFFFFFFFFFFFFFFFFFFFFFFFFFFFFFFFFFFFFFFFF AND DUP2 PUSH20 0xFFFFFFFFFFFFFFFFFFFFFFFFFFFFFFFFFFFFFFFF AND SUB PUSH3 0x28F JUMPI PUSH1 0x40 MLOAD PUSH32 0x8C379A000000000000000000000000000000000000000000000000000000000 DUP2 MSTORE PUSH1 0x4 ADD PUSH3 0x286 SWAP1 PUSH3 0x4FF JUMP JUMPDEST PUSH1 0x40 MLOAD DUP1 SWAP2 SUB SWAP1 REVERT JUMPDEST DUP1 PUSH1 0x1 PUSH1 0x0 PUSH2 0x100 EXP DUP2 SLOAD DUP2 PUSH20 0xFFFFFFFFFFFFFFFFFFFFFFFFFFFFFFFFFFFFFFFF MUL NOT AND SWAP1 DUP4 PUSH20 0xFFFFFFFFFFFFFFFFFFFFFFFFFFFFFFFFFFFFFFFF AND MUL OR SWAP1 SSTORE POP DUP1 PUSH20 0xFFFFFFFFFFFFFFFFFFFFFFFFFFFFFFFFFFFFFFFF AND PUSH1 0x0 DUP1 SLOAD SWAP1 PUSH2 0x100 EXP SWAP1 DIV PUSH20 0xFFFFFFFFFFFFFFFFFFFFFFFFFFFFFFFFFFFFFFFF AND PUSH20 0xFFFFFFFFFFFFFFFFFFFFFFFFFFFFFFFFFFFFFFFF AND PUSH32 0xED8889F560326EB138920D842192F0EB3DD22B4F139C87A2C57538E05BAE1278 PUSH1 0x40 MLOAD PUSH1 0x40 MLOAD DUP1 SWAP2 SUB SWAP1 LOG3 POP JUMP JUMPDEST PUSH1 0x0 DUP1 REVERT JUMPDEST PUSH1 0x0 PUSH20 0xFFFFFFFFFFFFFFFFFFFFFFFFFFFFFFFFFFFFFFFF DUP3 AND SWAP1 POP SWAP2 SWAP1 POP JUMP JUMPDEST PUSH1 0x0 PUSH3 0x37F DUP3 PUSH3 0x352 JUMP JUMPDEST SWAP1 POP SWAP2 SWAP1 POP JUMP JUMPDEST PUSH3 0x391 DUP2 PUSH3 0x372 JUMP JUMPDEST DUP2 EQ PUSH3 0x39D JUMPI PUSH1 0x0 DUP1 REVERT JUMPDEST POP JUMP JUMPDEST PUSH1 0x0 DUP2 MLOAD SWAP1 POP PUSH3 0x3B1 DUP2 PUSH3 0x386 JUMP JUMPDEST SWAP3 SWAP2 POP POP JUMP JUMPDEST PUSH1 0x0 DUP1 PUSH1 0x40 DUP4 DUP6 SUB SLT ISZERO PUSH3 0x3D1 JUMPI PUSH3 0x3D0 PUSH3 0x34D JUMP JUMPDEST JUMPDEST PUSH1 0x0 PUSH3 0x3E1 DUP6 DUP3 DUP7 ADD PUSH3 0x3A0 JUMP JUMPDEST SWAP3 POP POP PUSH1 0x20 PUSH3 0x3F4 DUP6 DUP3 DUP7 ADD PUSH3 0x3A0 JUMP JUMPDEST SWAP2 POP POP SWAP3 POP SWAP3 SWAP1 POP JUMP JUMPDEST PUSH3 0x409 DUP2 PUSH3 0x372 JUMP JUMPDEST DUP3 MSTORE POP POP JUMP JUMPDEST PUSH1 0x0 PUSH1 0x20 DUP3 ADD SWAP1 POP PUSH3 0x426 PUSH1 0x0 DUP4 ADD DUP5 PUSH3 0x3FE JUMP JUMPDEST SWAP3 SWAP2 POP POP JUMP JUMPDEST PUSH1 0x0 DUP3 DUP3 MSTORE PUSH1 0x20 DUP3 ADD SWAP1 POP SWAP3 SWAP2 POP POP JUMP JUMPDEST PUSH32 0x43616E6E6F7420736574206F776E657220746F207A65726F0000000000000000 PUSH1 0x0 DUP3 ADD MSTORE POP JUMP JUMPDEST PUSH1 0x0 PUSH3 0x475 PUSH1 0x18 DUP4 PUSH3 0x42C JUMP JUMPDEST SWAP2 POP PUSH3 0x482 DUP3 PUSH3 0x43D JUMP JUMPDEST PUSH1 0x20 DUP3 ADD SWAP1 POP SWAP2 SWAP1 POP JUMP JUMPDEST PUSH1 0x0 PUSH1 0x20 DUP3 ADD SWAP1 POP DUP2 DUP2 SUB PUSH1 0x0 DUP4 ADD MSTORE PUSH3 0x4A8 DUP2 PUSH3 0x466 JUMP JUMPDEST SWAP1 POP SWAP2 SWAP1 POP JUMP JUMPDEST PUSH32 0x43616E6E6F74207472616E7366657220746F2073656C66000000000000000000 PUSH1 0x0 DUP3 ADD MSTORE POP JUMP JUMPDEST PUSH1 0x0 PUSH3 0x4E7 PUSH1 0x17 DUP4 PUSH3 0x42C JUMP JUMPDEST SWAP2 POP PUSH3 0x4F4 DUP3 PUSH3 0x4AF JUMP JUMPDEST PUSH1 0x20 DUP3 ADD SWAP1 POP SWAP2 SWAP1 POP JUMP JUMPDEST PUSH1 0x0 PUSH1 0x20 DUP3 ADD SWAP1 POP DUP2 DUP2 SUB PUSH1 0x0 DUP4 ADD MSTORE PUSH3 0x51A DUP2 PUSH3 0x4D8 JUMP JUMPDEST SWAP1 POP SWAP2 SWAP1 POP JUMP JUMPDEST PUSH1 0x80 MLOAD PUSH1 0xA0 MLOAD PUSH2 0x314B PUSH3 0x563 PUSH1 0x0 CODECOPY PUSH1 0x0 DUP2 DUP2 PUSH2 0x76F ADD MSTORE DUP2 DUP2 PUSH2 0x833 ADD MSTORE DUP2 DUP2 PUSH2 0x8DD ADD MSTORE PUSH2 0xC3C ADD MSTORE PUSH1 0x0 DUP2 DUP2 PUSH2 0xAFB ADD MSTORE PUSH2 0xC16 ADD MSTORE PUSH2 0x314B PUSH1 0x0 RETURN INVALID PUSH1 0x80 PUSH1 0x40 MSTORE PUSH1 0x4 CALLDATASIZE LT PUSH2 0x102 JUMPI PUSH1 0x0 CALLDATALOAD PUSH1 0xE0 SHR DUP1 PUSH4 0x85572FFB GT PUSH2 0x95 JUMPI DUP1 PUSH4 0xC31C9C07 GT PUSH2 0x64 JUMPI DUP1 PUSH4 0xC31C9C07 EQ PUSH2 0x350 JUMPI DUP1 PUSH4 0xD1EE0DD0 EQ PUSH2 0x37B JUMPI DUP1 PUSH4 0xDB04FA49 EQ PUSH2 0x3B8 JUMPI DUP1 PUSH4 0xEAB5B02C EQ PUSH2 0x3E1 JUMPI DUP1 PUSH4 0xF2FDE38B EQ PUSH2 0x40A JUMPI PUSH2 0x109 JUMP JUMPDEST DUP1 PUSH4 0x85572FFB EQ PUSH2 0x2A8 JUMPI DUP1 PUSH4 0x8DA5CB5B EQ PUSH2 0x2D1 JUMPI DUP1 PUSH4 0x96D3B83D EQ PUSH2 0x2FC JUMPI DUP1 PUSH4 0xB0F479A1 EQ PUSH2 0x325 JUMPI PUSH2 0x109 JUMP JUMPDEST DUP1 PUSH4 0x5F299CBE GT PUSH2 0xD1 JUMPI DUP1 PUSH4 0x5F299CBE EQ PUSH2 0x1DA JUMPI DUP1 PUSH4 0x6159ADA1 EQ PUSH2 0x217 JUMPI DUP1 PUSH4 0x75C67C66 EQ PUSH2 0x254 JUMPI DUP1 PUSH4 0x79BA5097 EQ PUSH2 0x291 JUMPI PUSH2 0x109 JUMP JUMPDEST DUP1 PUSH4 0x1FFC9A7 EQ PUSH2 0x10E JUMPI DUP1 PUSH4 0x3AEAC4E1 EQ PUSH2 0x14B JUMPI DUP1 PUSH4 0x4030D521 EQ PUSH2 0x174 JUMPI DUP1 PUSH4 0x51CFF8D9 EQ PUSH2 0x1B1 JUMPI PUSH2 0x109 JUMP JUMPDEST CALLDATASIZE PUSH2 0x109 JUMPI STOP JUMPDEST PUSH1 0x0 DUP1 REVERT JUMPDEST CALLVALUE DUP1 ISZERO PUSH2 0x11A JUMPI PUSH1 0x0 DUP1 REVERT JUMPDEST POP PUSH2 0x135 PUSH1 0x4 DUP1 CALLDATASIZE SUB DUP2 ADD SWAP1 PUSH2 0x130 SWAP2 SWAP1 PUSH2 0x1CFC JUMP JUMPDEST PUSH2 0x433 JUMP JUMPDEST PUSH1 0x40 MLOAD PUSH2 0x142 SWAP2 SWAP1 PUSH2 0x1D44 JUMP JUMPDEST PUSH1 0x40 MLOAD DUP1 SWAP2 SUB SWAP1 RETURN JUMPDEST CALLVALUE DUP1 ISZERO PUSH2 0x157 JUMPI PUSH1 0x0 DUP1 REVERT JUMPDEST POP PUSH2 0x172 PUSH1 0x4 DUP1 CALLDATASIZE SUB DUP2 ADD SWAP1 PUSH2 0x16D SWAP2 SWAP1 PUSH2 0x1DBD JUMP JUMPDEST PUSH2 0x505 JUMP JUMPDEST STOP JUMPDEST CALLVALUE DUP1 ISZERO PUSH2 0x180 JUMPI PUSH1 0x0 DUP1 REVERT JUMPDEST POP PUSH2 0x19B PUSH1 0x4 DUP1 CALLDATASIZE SUB DUP2 ADD SWAP1 PUSH2 0x196 SWAP2 SWAP1 PUSH2 0x1E3D JUMP JUMPDEST PUSH2 0x649 JUMP JUMPDEST PUSH1 0x40 MLOAD PUSH2 0x1A8 SWAP2 SWAP1 PUSH2 0x1D44 JUMP JUMPDEST PUSH1 0x40 MLOAD DUP1 SWAP2 SUB SWAP1 RETURN JUMPDEST CALLVALUE DUP1 ISZERO PUSH2 0x1BD JUMPI PUSH1 0x0 DUP1 REVERT JUMPDEST POP PUSH2 0x1D8 PUSH1 0x4 DUP1 CALLDATASIZE SUB DUP2 ADD SWAP1 PUSH2 0x1D3 SWAP2 SWAP1 PUSH2 0x1E6A JUMP JUMPDEST PUSH2 0x669 JUMP JUMPDEST STOP JUMPDEST CALLVALUE DUP1 ISZERO PUSH2 0x1E6 JUMPI PUSH1 0x0 DUP1 REVERT JUMPDEST POP PUSH2 0x201 PUSH1 0x4 DUP1 CALLDATASIZE SUB DUP2 ADD SWAP1 PUSH2 0x1FC SWAP2 SWAP1 PUSH2 0x1ECD JUMP JUMPDEST PUSH2 0x767 JUMP JUMPDEST PUSH1 0x40 MLOAD PUSH2 0x20E SWAP2 SWAP1 PUSH2 0x1F57 JUMP JUMPDEST PUSH1 0x40 MLOAD DUP1 SWAP2 SUB SWAP1 RETURN JUMPDEST CALLVALUE DUP1 ISZERO PUSH2 0x223 JUMPI PUSH1 0x0 DUP1 REVERT JUMPDEST POP PUSH2 0x23E PUSH1 0x4 DUP1 CALLDATASIZE SUB DUP2 ADD SWAP1 PUSH2 0x239 SWAP2 SWAP1 PUSH2 0x1E6A JUMP JUMPDEST PUSH2 0x924 JUMP JUMPDEST PUSH1 0x40 MLOAD PUSH2 0x24B SWAP2 SWAP1 PUSH2 0x1D44 JUMP JUMPDEST PUSH1 0x40 MLOAD DUP1 SWAP2 SUB SWAP1 RETURN JUMPDEST CALLVALUE DUP1 ISZERO PUSH2 0x260 JUMPI PUSH1 0x0 DUP1 REVERT JUMPDEST POP PUSH2 0x27B PUSH1 0x4 DUP1 CALLDATASIZE SUB DUP2 ADD SWAP1 PUSH2 0x276 SWAP2 SWAP1 PUSH2 0x1E3D JUMP JUMPDEST PUSH2 0x944 JUMP JUMPDEST PUSH1 0x40 MLOAD PUSH2 0x288 SWAP2 SWAP1 PUSH2 0x1D44 JUMP JUMPDEST PUSH1 0x40 MLOAD DUP1 SWAP2 SUB SWAP1 RETURN JUMPDEST CALLVALUE DUP1 ISZERO PUSH2 0x29D JUMPI PUSH1 0x0 DUP1 REVERT JUMPDEST POP PUSH2 0x2A6 PUSH2 0x964 JUMP JUMPDEST STOP JUMPDEST CALLVALUE DUP1 ISZERO PUSH2 0x2B4 JUMPI PUSH1 0x0 DUP1 REVERT JUMPDEST POP PUSH2 0x2CF PUSH1 0x4 DUP1 CALLDATASIZE SUB DUP2 ADD SWAP1 PUSH2 0x2CA SWAP2 SWAP1 PUSH2 0x1F96 JUMP JUMPDEST PUSH2 0xAF9 JUMP JUMPDEST STOP JUMPDEST CALLVALUE DUP1 ISZERO PUSH2 0x2DD JUMPI PUSH1 0x0 DUP1 REVERT JUMPDEST POP PUSH2 0x2E6 PUSH2 0xB9E JUMP JUMPDEST PUSH1 0x40 MLOAD PUSH2 0x2F3 SWAP2 SWAP1 PUSH2 0x1FEE JUMP JUMPDEST PUSH1 0x40 MLOAD DUP1 SWAP2 SUB SWAP1 RETURN JUMPDEST CALLVALUE DUP1 ISZERO PUSH2 0x308 JUMPI PUSH1 0x0 DUP1 REVERT JUMPDEST POP PUSH2 0x323 PUSH1 0x4 DUP1 CALLDATASIZE SUB DUP2 ADD SWAP1 PUSH2 0x31E SWAP2 SWAP1 PUSH2 0x2035 JUMP JUMPDEST PUSH2 0xBC7 JUMP JUMPDEST STOP JUMPDEST CALLVALUE DUP1 ISZERO PUSH2 0x331 JUMPI PUSH1 0x0 DUP1 REVERT JUMPDEST POP PUSH2 0x33A PUSH2 0xC12 JUMP JUMPDEST PUSH1 0x40 MLOAD PUSH2 0x347 SWAP2 SWAP1 PUSH2 0x1FEE JUMP JUMPDEST PUSH1 0x40 MLOAD DUP1 SWAP2 SUB SWAP1 RETURN JUMPDEST CALLVALUE DUP1 ISZERO PUSH2 0x35C JUMPI PUSH1 0x0 DUP1 REVERT JUMPDEST POP PUSH2 0x365 PUSH2 0xC3A JUMP JUMPDEST PUSH1 0x40 MLOAD PUSH2 0x372 SWAP2 SWAP1 PUSH2 0x20D4 JUMP JUMPDEST PUSH1 0x40 MLOAD DUP1 SWAP2 SUB SWAP1 RETURN JUMPDEST CALLVALUE DUP1 ISZERO PUSH2 0x387 JUMPI PUSH1 0x0 DUP1 REVERT JUMPDEST POP PUSH2 0x3A2 PUSH1 0x4 DUP1 CALLDATASIZE SUB DUP2 ADD SWAP1 PUSH2 0x39D SWAP2 SWAP1 PUSH2 0x210E JUMP JUMPDEST PUSH2 0xC5E JUMP JUMPDEST PUSH1 0x40 MLOAD PUSH2 0x3AF SWAP2 SWAP1 PUSH2 0x21A3 JUMP JUMPDEST PUSH1 0x40 MLOAD DUP1 SWAP2 SUB SWAP1 RETURN JUMPDEST CALLVALUE DUP1 ISZERO PUSH2 0x3C4 JUMPI PUSH1 0x0 DUP1 REVERT JUMPDEST POP PUSH2 0x3DF PUSH1 0x4 DUP1 CALLDATASIZE SUB DUP2 ADD SWAP1 PUSH2 0x3DA SWAP2 SWAP1 PUSH2 0x2035 JUMP JUMPDEST PUSH2 0x11DB JUMP JUMPDEST STOP JUMPDEST CALLVALUE DUP1 ISZERO PUSH2 0x3ED JUMPI PUSH1 0x0 DUP1 REVERT JUMPDEST POP PUSH2 0x408 PUSH1 0x4 DUP1 CALLDATASIZE SUB DUP2 ADD SWAP1 PUSH2 0x403 SWAP2 SWAP1 PUSH2 0x21BE JUMP JUMPDEST PUSH2 0x1226 JUMP JUMPDEST STOP JUMPDEST CALLVALUE DUP1 ISZERO PUSH2 0x416 JUMPI PUSH1 0x0 DUP1 REVERT JUMPDEST POP PUSH2 0x431 PUSH1 0x4 DUP1 CALLDATASIZE SUB DUP2 ADD SWAP1 PUSH2 0x42C SWAP2 SWAP1 PUSH2 0x1E6A JUMP JUMPDEST PUSH2 0x1289 JUMP JUMPDEST STOP JUMPDEST PUSH1 0x0 PUSH32 0x85572FFB00000000000000000000000000000000000000000000000000000000 PUSH28 0xFFFFFFFFFFFFFFFFFFFFFFFFFFFFFFFFFFFFFFFFFFFFFFFFFFFFFFFF NOT AND DUP3 PUSH28 0xFFFFFFFFFFFFFFFFFFFFFFFFFFFFFFFFFFFFFFFFFFFFFFFFFFFFFFFF NOT AND EQ DUP1 PUSH2 0x4FE JUMPI POP PUSH32 0x1FFC9A700000000000000000000000000000000000000000000000000000000 PUSH28 0xFFFFFFFFFFFFFFFFFFFFFFFFFFFFFFFFFFFFFFFFFFFFFFFFFFFFFFFF NOT AND DUP3 PUSH28 0xFFFFFFFFFFFFFFFFFFFFFFFFFFFFFFFFFFFFFFFFFFFFFFFFFFFFFFFF NOT AND EQ JUMPDEST SWAP1 POP SWAP2 SWAP1 POP JUMP JUMPDEST PUSH2 0x50D PUSH2 0x129D JUMP JUMPDEST PUSH1 0x0 DUP2 PUSH20 0xFFFFFFFFFFFFFFFFFFFFFFFFFFFFFFFFFFFFFFFF AND PUSH4 0x70A08231 ADDRESS PUSH1 0x40 MLOAD DUP3 PUSH4 0xFFFFFFFF AND PUSH1 0xE0 SHL DUP2 MSTORE PUSH1 0x4 ADD PUSH2 0x548 SWAP2 SWAP1 PUSH2 0x1FEE JUMP JUMPDEST PUSH1 0x20 PUSH1 0x40 MLOAD DUP1 DUP4 SUB DUP2 DUP7 GAS STATICCALL ISZERO DUP1 ISZERO PUSH2 0x565 JUMPI RETURNDATASIZE PUSH1 0x0 DUP1 RETURNDATACOPY RETURNDATASIZE PUSH1 0x0 REVERT JUMPDEST POP POP POP POP PUSH1 0x40 MLOAD RETURNDATASIZE PUSH1 0x1F NOT PUSH1 0x1F DUP3 ADD AND DUP3 ADD DUP1 PUSH1 0x40 MSTORE POP DUP2 ADD SWAP1 PUSH2 0x589 SWAP2 SWAP1 PUSH2 0x2213 JUMP JUMPDEST SWAP1 POP PUSH1 0x0 DUP2 SUB PUSH2 0x5C5 JUMPI PUSH1 0x40 MLOAD PUSH32 0xD0D04F6000000000000000000000000000000000000000000000000000000000 DUP2 MSTORE PUSH1 0x4 ADD PUSH1 0x40 MLOAD DUP1 SWAP2 SUB SWAP1 REVERT JUMPDEST DUP2 PUSH20 0xFFFFFFFFFFFFFFFFFFFFFFFFFFFFFFFFFFFFFFFF AND PUSH4 0xA9059CBB DUP5 DUP4 PUSH1 0x40 MLOAD DUP4 PUSH4 0xFFFFFFFF AND PUSH1 0xE0 SHL DUP2 MSTORE PUSH1 0x4 ADD PUSH2 0x600 SWAP3 SWAP2 SWAP1 PUSH2 0x2240 JUMP JUMPDEST PUSH1 0x20 PUSH1 0x40 MLOAD DUP1 DUP4 SUB DUP2 PUSH1 0x0 DUP8 GAS CALL ISZERO DUP1 ISZERO PUSH2 0x61F JUMPI RETURNDATASIZE PUSH1 0x0 DUP1 RETURNDATACOPY RETURNDATASIZE PUSH1 0x0 REVERT JUMPDEST POP POP POP POP PUSH1 0x40 MLOAD RETURNDATASIZE PUSH1 0x1F NOT PUSH1 0x1F DUP3 ADD AND DUP3 ADD DUP1 PUSH1 0x40 MSTORE POP DUP2 ADD SWAP1 PUSH2 0x643 SWAP2 SWAP1 PUSH2 0x227E JUMP JUMPDEST POP POP POP POP JUMP JUMPDEST PUSH1 0x3 PUSH1 0x20 MSTORE DUP1 PUSH1 0x0 MSTORE PUSH1 0x40 PUSH1 0x0 KECCAK256 PUSH1 0x0 SWAP2 POP SLOAD SWAP1 PUSH2 0x100 EXP SWAP1 DIV PUSH1 0xFF AND DUP2 JUMP JUMPDEST PUSH2 0x671 PUSH2 0x129D JUMP JUMPDEST PUSH1 0x0 SELFBALANCE SWAP1 POP PUSH1 0x0 DUP2 SUB PUSH2 0x6B0 JUMPI PUSH1 0x40 MLOAD PUSH32 0xD0D04F6000000000000000000000000000000000000000000000000000000000 DUP2 MSTORE PUSH1 0x4 ADD PUSH1 0x40 MLOAD DUP1 SWAP2 SUB SWAP1 REVERT JUMPDEST PUSH1 0x0 DUP3 PUSH20 0xFFFFFFFFFFFFFFFFFFFFFFFFFFFFFFFFFFFFFFFF AND DUP3 PUSH1 0x40 MLOAD PUSH2 0x6D6 SWAP1 PUSH2 0x22DC JUMP JUMPDEST PUSH1 0x0 PUSH1 0x40 MLOAD DUP1 DUP4 SUB DUP2 DUP6 DUP8 GAS CALL SWAP3 POP POP POP RETURNDATASIZE DUP1 PUSH1 0x0 DUP2 EQ PUSH2 0x713 JUMPI PUSH1 0x40 MLOAD SWAP2 POP PUSH1 0x1F NOT PUSH1 0x3F RETURNDATASIZE ADD AND DUP3 ADD PUSH1 0x40 MSTORE RETURNDATASIZE DUP3 MSTORE RETURNDATASIZE PUSH1 0x0 PUSH1 0x20 DUP5 ADD RETURNDATACOPY PUSH2 0x718 JUMP JUMPDEST PUSH1 0x60 SWAP2 POP JUMPDEST POP POP SWAP1 POP DUP1 PUSH2 0x762 JUMPI CALLER DUP4 DUP4 PUSH1 0x40 MLOAD PUSH32 0x9D11F56300000000000000000000000000000000000000000000000000000000 DUP2 MSTORE PUSH1 0x4 ADD PUSH2 0x759 SWAP4 SWAP3 SWAP2 SWAP1 PUSH2 0x22F1 JUMP JUMPDEST PUSH1 0x40 MLOAD DUP1 SWAP2 SUB SWAP1 REVERT JUMPDEST POP POP POP JUMP JUMPDEST PUSH1 0x0 PUSH2 0x794 DUP7 PUSH32 0x0 DUP8 PUSH2 0x132D JUMP JUMPDEST PUSH1 0x0 PUSH1 0x40 MLOAD DUP1 PUSH2 0x100 ADD PUSH1 0x40 MSTORE DUP1 DUP9 PUSH20 0xFFFFFFFFFFFFFFFFFFFFFFFFFFFFFFFFFFFFFFFF AND DUP2 MSTORE PUSH1 0x20 ADD DUP7 PUSH20 0xFFFFFFFFFFFFFFFFFFFFFFFFFFFFFFFFFFFFFFFF AND DUP2 MSTORE PUSH1 0x20 ADD PUSH1 0x0 PUSH3 0xFFFFFF AND DUP2 MSTORE PUSH1 0x20 ADD DUP5 PUSH20 0xFFFFFFFFFFFFFFFFFFFFFFFFFFFFFFFFFFFFFFFF AND DUP2 MSTORE PUSH1 0x20 ADD TIMESTAMP DUP2 MSTORE PUSH1 0x20 ADD DUP6 DUP2 MSTORE PUSH1 0x20 ADD DUP8 DUP2 MSTORE PUSH1 0x20 ADD PUSH1 0x0 PUSH20 0xFFFFFFFFFFFFFFFFFFFFFFFFFFFFFFFFFFFFFFFF AND DUP2 MSTORE POP SWAP1 POP PUSH32 0x0 PUSH20 0xFFFFFFFFFFFFFFFFFFFFFFFFFFFFFFFFFFFFFFFF AND PUSH4 0xDB3E2198 DUP3 PUSH1 0x40 MLOAD DUP3 PUSH4 0xFFFFFFFF AND PUSH1 0xE0 SHL DUP2 MSTORE PUSH1 0x4 ADD PUSH2 0x88A SWAP2 SWAP1 PUSH2 0x2415 JUMP JUMPDEST PUSH1 0x20 PUSH1 0x40 MLOAD DUP1 DUP4 SUB DUP2 PUSH1 0x0 DUP8 GAS CALL ISZERO DUP1 ISZERO PUSH2 0x8A9 JUMPI RETURNDATASIZE PUSH1 0x0 DUP1 RETURNDATACOPY RETURNDATASIZE PUSH1 0x0 REVERT JUMPDEST POP POP POP POP PUSH1 0x40 MLOAD RETURNDATASIZE PUSH1 0x1F NOT PUSH1 0x1F DUP3 ADD AND DUP3 ADD DUP1 PUSH1 0x40 MSTORE POP DUP2 ADD SWAP1 PUSH2 0x8CD SWAP2 SWAP1 PUSH2 0x2213 JUMP JUMPDEST SWAP2 POP DUP6 DUP3 LT ISZERO PUSH2 0x91A JUMPI PUSH2 0x903 DUP8 PUSH32 0x0 PUSH1 0x0 PUSH2 0x132D JUMP JUMPDEST PUSH2 0x919 DUP8 DUP5 DUP5 DUP10 PUSH2 0x914 SWAP2 SWAP1 PUSH2 0x2460 JUMP JUMPDEST PUSH2 0x1482 JUMP JUMPDEST JUMPDEST POP SWAP6 SWAP5 POP POP POP POP POP JUMP JUMPDEST PUSH1 0x4 PUSH1 0x20 MSTORE DUP1 PUSH1 0x0 MSTORE PUSH1 0x40 PUSH1 0x0 KECCAK256 PUSH1 0x0 SWAP2 POP SLOAD SWAP1 PUSH2 0x100 EXP SWAP1 DIV PUSH1 0xFF AND DUP2 JUMP JUMPDEST PUSH1 0x2 PUSH1 0x20 MSTORE DUP1 PUSH1 0x0 MSTORE PUSH1 0x40 PUSH1 0x0 KECCAK256 PUSH1 0x0 SWAP2 POP SLOAD SWAP1 PUSH2 0x100 EXP SWAP1 DIV PUSH1 0xFF AND DUP2 JUMP JUMPDEST PUSH1 0x1 PUSH1 0x0 SWAP1 SLOAD SWAP1 PUSH2 0x100 EXP SWAP1 DIV PUSH20 0xFFFFFFFFFFFFFFFFFFFFFFFFFFFFFFFFFFFFFFFF AND PUSH20 0xFFFFFFFFFFFFFFFFFFFFFFFFFFFFFFFFFFFFFFFF AND CALLER PUSH20 0xFFFFFFFFFFFFFFFFFFFFFFFFFFFFFFFFFFFFFFFF AND EQ PUSH2 0x9F4 JUMPI PUSH1 0x40 MLOAD PUSH32 0x8C379A000000000000000000000000000000000000000000000000000000000 DUP2 MSTORE PUSH1 0x4 ADD PUSH2 0x9EB SWAP1 PUSH2 0x24F1 JUMP JUMPDEST PUSH1 0x40 MLOAD DUP1 SWAP2 SUB SWAP1 REVERT JUMPDEST PUSH1 0x0 DUP1 PUSH1 0x0 SWAP1 SLOAD SWAP1 PUSH2 0x100 EXP SWAP1 DIV PUSH20 0xFFFFFFFFFFFFFFFFFFFFFFFFFFFFFFFFFFFFFFFF AND SWAP1 POP CALLER PUSH1 0x0 DUP1 PUSH2 0x100 EXP DUP2 SLOAD DUP2 PUSH20 0xFFFFFFFFFFFFFFFFFFFFFFFFFFFFFFFFFFFFFFFF MUL NOT AND SWAP1 DUP4 PUSH20 0xFFFFFFFFFFFFFFFFFFFFFFFFFFFFFFFFFFFFFFFF AND MUL OR SWAP1 SSTORE POP PUSH1 0x0 PUSH1 0x1 PUSH1 0x0 PUSH2 0x100 EXP DUP2 SLOAD DUP2 PUSH20 0xFFFFFFFFFFFFFFFFFFFFFFFFFFFFFFFFFFFFFFFF MUL NOT AND SWAP1 DUP4 PUSH20 0xFFFFFFFFFFFFFFFFFFFFFFFFFFFFFFFFFFFFFFFF AND MUL OR SWAP1 SSTORE POP CALLER PUSH20 0xFFFFFFFFFFFFFFFFFFFFFFFFFFFFFFFFFFFFFFFF AND DUP2 PUSH20 0xFFFFFFFFFFFFFFFFFFFFFFFFFFFFFFFFFFFFFFFF AND PUSH32 0x8BE0079C531659141344CD1FD0A4F28419497F9722A3DAAFE3B4186F6B6457E0 PUSH1 0x40 MLOAD PUSH1 0x40 MLOAD DUP1 SWAP2 SUB SWAP1 LOG3 POP JUMP JUMPDEST PUSH32 0x0 PUSH20 0xFFFFFFFFFFFFFFFFFFFFFFFFFFFFFFFFFFFFFFFF AND CALLER PUSH20 0xFFFFFFFFFFFFFFFFFFFFFFFFFFFFFFFFFFFFFFFF AND EQ PUSH2 0xB89 JUMPI CALLER PUSH1 0x40 MLOAD PUSH32 0xD7F7333400000000000000000000000000000000000000000000000000000000 DUP2 MSTORE PUSH1 0x4 ADD PUSH2 0xB80 SWAP2 SWAP1 PUSH2 0x1FEE JUMP JUMPDEST PUSH1 0x40 MLOAD DUP1 SWAP2 SUB SWAP1 REVERT JUMPDEST PUSH2 0xB9B DUP2 PUSH2 0xB96 SWAP1 PUSH2 0x2885 JUMP JUMPDEST PUSH2 0x15D7 JUMP JUMPDEST POP JUMP JUMPDEST PUSH1 0x0 DUP1 PUSH1 0x0 SWAP1 SLOAD SWAP1 PUSH2 0x100 EXP SWAP1 DIV PUSH20 0xFFFFFFFFFFFFFFFFFFFFFFFFFFFFFFFFFFFFFFFF AND SWAP1 POP SWAP1 JUMP JUMPDEST PUSH2 0xBCF PUSH2 0x129D JUMP JUMPDEST DUP1 PUSH1 0x2 PUSH1 0x0 DUP5 PUSH8 0xFFFFFFFFFFFFFFFF AND PUSH8 0xFFFFFFFFFFFFFFFF AND DUP2 MSTORE PUSH1 0x20 ADD SWAP1 DUP2 MSTORE PUSH1 0x20 ADD PUSH1 0x0 KECCAK256 PUSH1 0x0 PUSH2 0x100 EXP DUP2 SLOAD DUP2 PUSH1 0xFF MUL NOT AND SWAP1 DUP4 ISZERO ISZERO MUL OR SWAP1 SSTORE POP POP POP JUMP JUMPDEST PUSH1 0x0 PUSH32 0x0 SWAP1 POP SWAP1 JUMP JUMPDEST PUSH32 0x0 DUP2 JUMP JUMPDEST PUSH1 0x0 PUSH2 0xC68 PUSH2 0x129D JUMP JUMPDEST DUP6 PUSH1 0x2 PUSH1 0x0 DUP3 PUSH8 0xFFFFFFFFFFFFFFFF AND PUSH8 0xFFFFFFFFFFFFFFFF AND DUP2 MSTORE PUSH1 0x20 ADD SWAP1 DUP2 MSTORE PUSH1 0x20 ADD PUSH1 0x0 KECCAK256 PUSH1 0x0 SWAP1 SLOAD SWAP1 PUSH2 0x100 EXP SWAP1 DIV PUSH1 0xFF AND PUSH2 0xCDF JUMPI DUP1 PUSH1 0x40 MLOAD PUSH32 0x206ABAD700000000000000000000000000000000000000000000000000000000 DUP2 MSTORE PUSH1 0x4 ADD PUSH2 0xCD6 SWAP2 SWAP1 PUSH2 0x28A7 JUMP JUMPDEST PUSH1 0x40 MLOAD DUP1 SWAP2 SUB SWAP1 REVERT JUMPDEST DUP6 PUSH1 0x0 PUSH20 0xFFFFFFFFFFFFFFFFFFFFFFFFFFFFFFFFFFFFFFFF AND DUP2 PUSH20 0xFFFFFFFFFFFFFFFFFFFFFFFFFFFFFFFFFFFFFFFF AND SUB PUSH2 0xD46 JUMPI PUSH1 0x40 MLOAD PUSH32 0xA05FF47E00000000000000000000000000000000000000000000000000000000 DUP2 MSTORE PUSH1 0x4 ADD PUSH1 0x40 MLOAD DUP1 SWAP2 SUB SWAP1 REVERT JUMPDEST DUP6 PUSH1 0x0 PUSH20 0xFFFFFFFFFFFFFFFFFFFFFFFFFFFFFFFFFFFFFFFF AND DUP2 PUSH1 0x0 ADD PUSH1 0x20 DUP2 ADD SWAP1 PUSH2 0xD72 SWAP2 SWAP1 PUSH2 0x1E6A JUMP JUMPDEST PUSH20 0xFFFFFFFFFFFFFFFFFFFFFFFFFFFFFFFFFFFFFFFF AND SUB PUSH2 0xDBF JUMPI PUSH1 0x40 MLOAD PUSH32 0x87EBED7100000000000000000000000000000000000000000000000000000000 DUP2 MSTORE PUSH1 0x4 ADD PUSH1 0x40 MLOAD DUP1 SWAP2 SUB SWAP1 REVERT JUMPDEST PUSH1 0x0 PUSH20 0xFFFFFFFFFFFFFFFFFFFFFFFFFFFFFFFFFFFFFFFF AND DUP2 PUSH1 0x20 ADD PUSH1 0x20 DUP2 ADD SWAP1 PUSH2 0xDEA SWAP2 SWAP1 PUSH2 0x1E6A JUMP JUMPDEST PUSH20 0xFFFFFFFFFFFFFFFFFFFFFFFFFFFFFFFFFFFFFFFF AND SUB PUSH2 0xE37 JUMPI PUSH1 0x40 MLOAD PUSH32 0xD343D98400000000000000000000000000000000000000000000000000000000 DUP2 MSTORE PUSH1 0x4 ADD PUSH1 0x40 MLOAD DUP1 SWAP2 SUB SWAP1 REVERT JUMPDEST PUSH1 0x0 PUSH20 0xFFFFFFFFFFFFFFFFFFFFFFFFFFFFFFFFFFFFFFFF AND DUP2 PUSH1 0x40 ADD PUSH1 0x20 DUP2 ADD SWAP1 PUSH2 0xE62 SWAP2 SWAP1 PUSH2 0x1E6A JUMP JUMPDEST PUSH20 0xFFFFFFFFFFFFFFFFFFFFFFFFFFFFFFFFFFFFFFFF AND SUB PUSH2 0xEAF JUMPI PUSH1 0x40 MLOAD PUSH32 0x1EB00B0600000000000000000000000000000000000000000000000000000000 DUP2 MSTORE PUSH1 0x4 ADD PUSH1 0x40 MLOAD DUP1 SWAP2 SUB SWAP1 REVERT JUMPDEST DUP7 PUSH1 0x40 ADD PUSH1 0x20 DUP2 ADD SWAP1 PUSH2 0xEC2 SWAP2 SWAP1 PUSH2 0x1E6A JUMP JUMPDEST PUSH20 0xFFFFFFFFFFFFFFFFFFFFFFFFFFFFFFFFFFFFFFFF AND DUP7 PUSH20 0xFFFFFFFFFFFFFFFFFFFFFFFFFFFFFFFFFFFFFFFF AND EQ DUP1 ISZERO PUSH2 0xF00 JUMPI POP DUP7 PUSH1 0x60 ADD CALLDATALOAD DUP6 EQ ISZERO JUMPDEST ISZERO PUSH2 0xF37 JUMPI PUSH1 0x40 MLOAD PUSH32 0x3C5A808400000000000000000000000000000000000000000000000000000000 DUP2 MSTORE PUSH1 0x4 ADD PUSH1 0x40 MLOAD DUP1 SWAP2 SUB SWAP1 REVERT JUMPDEST PUSH1 0x0 PUSH2 0xF45 DUP10 DUP10 DUP10 DUP10 PUSH2 0x1925 JUMP JUMPDEST SWAP1 POP PUSH1 0x0 ADDRESS PUSH20 0xFFFFFFFFFFFFFFFFFFFFFFFFFFFFFFFFFFFFFFFF AND PUSH4 0xB0F479A1 PUSH1 0x40 MLOAD DUP2 PUSH4 0xFFFFFFFF AND PUSH1 0xE0 SHL DUP2 MSTORE PUSH1 0x4 ADD PUSH1 0x20 PUSH1 0x40 MLOAD DUP1 DUP4 SUB DUP2 DUP7 GAS STATICCALL ISZERO DUP1 ISZERO PUSH2 0xF94 JUMPI RETURNDATASIZE PUSH1 0x0 DUP1 RETURNDATACOPY RETURNDATASIZE PUSH1 0x0 REVERT JUMPDEST POP POP POP POP PUSH1 0x40 MLOAD RETURNDATASIZE PUSH1 0x1F NOT PUSH1 0x1F DUP3 ADD AND DUP3 ADD DUP1 PUSH1 0x40 MSTORE POP DUP2 ADD SWAP1 PUSH2 0xFB8 SWAP2 SWAP1 PUSH2 0x28D7 JUMP JUMPDEST SWAP1 POP PUSH1 0x0 DUP2 PUSH20 0xFFFFFFFFFFFFFFFFFFFFFFFFFFFFFFFFFFFFFFFF AND PUSH4 0x20487DED DUP14 DUP6 PUSH1 0x40 MLOAD DUP4 PUSH4 0xFFFFFFFF AND PUSH1 0xE0 SHL DUP2 MSTORE PUSH1 0x4 ADD PUSH2 0xFF7 SWAP3 SWAP2 SWAP1 PUSH2 0x2AEC JUMP JUMPDEST PUSH1 0x20 PUSH1 0x40 MLOAD DUP1 DUP4 SUB DUP2 DUP7 GAS STATICCALL ISZERO DUP1 ISZERO PUSH2 0x1014 JUMPI RETURNDATASIZE PUSH1 0x0 DUP1 RETURNDATACOPY RETURNDATASIZE PUSH1 0x0 REVERT JUMPDEST POP POP POP POP PUSH1 0x40 MLOAD RETURNDATASIZE PUSH1 0x1F NOT PUSH1 0x1F DUP3 ADD AND DUP3 ADD DUP1 PUSH1 0x40 MSTORE POP DUP2 ADD SWAP1 PUSH2 0x1038 SWAP2 SWAP1 PUSH2 0x2213 JUMP JUMPDEST SWAP1 POP SELFBALANCE DUP2 GT ISZERO PUSH2 0x1081 JUMPI SELFBALANCE DUP2 PUSH1 0x40 MLOAD PUSH32 0x8F0F420600000000000000000000000000000000000000000000000000000000 DUP2 MSTORE PUSH1 0x4 ADD PUSH2 0x1078 SWAP3 SWAP2 SWAP1 PUSH2 0x2B1C JUMP JUMPDEST PUSH1 0x40 MLOAD DUP1 SWAP2 SUB SWAP1 REVERT JUMPDEST DUP9 PUSH20 0xFFFFFFFFFFFFFFFFFFFFFFFFFFFFFFFFFFFFFFFF AND PUSH4 0x95EA7B3 DUP4 DUP11 PUSH1 0x40 MLOAD DUP4 PUSH4 0xFFFFFFFF AND PUSH1 0xE0 SHL DUP2 MSTORE PUSH1 0x4 ADD PUSH2 0x10BC SWAP3 SWAP2 SWAP1 PUSH2 0x2240 JUMP JUMPDEST PUSH1 0x20 PUSH1 0x40 MLOAD DUP1 DUP4 SUB DUP2 PUSH1 0x0 DUP8 GAS CALL ISZERO DUP1 ISZERO PUSH2 0x10DB JUMPI RETURNDATASIZE PUSH1 0x0 DUP1 RETURNDATACOPY RETURNDATASIZE PUSH1 0x0 REVERT JUMPDEST POP POP POP POP PUSH1 0x40 MLOAD RETURNDATASIZE PUSH1 0x1F NOT PUSH1 0x1F DUP3 ADD AND DUP3 ADD DUP1 PUSH1 0x40 MSTORE POP DUP2 ADD SWAP1 PUSH2 0x10FF SWAP2 SWAP1 PUSH2 0x227E JUMP JUMPDEST POP DUP2 PUSH20 0xFFFFFFFFFFFFFFFFFFFFFFFFFFFFFFFFFFFFFFFF AND PUSH4 0x96F4E9F9 DUP3 DUP15 DUP7 PUSH1 0x40 MLOAD DUP5 PUSH4 0xFFFFFFFF AND PUSH1 0xE0 SHL DUP2 MSTORE PUSH1 0x4 ADD PUSH2 0x113C SWAP3 SWAP2 SWAP1 PUSH2 0x2AEC JUMP JUMPDEST PUSH1 0x20 PUSH1 0x40 MLOAD DUP1 DUP4 SUB DUP2 DUP6 DUP9 GAS CALL ISZERO DUP1 ISZERO PUSH2 0x115A JUMPI RETURNDATASIZE PUSH1 0x0 DUP1 RETURNDATACOPY RETURNDATASIZE PUSH1 0x0 REVERT JUMPDEST POP POP POP POP POP PUSH1 0x40 MLOAD RETURNDATASIZE PUSH1 0x1F NOT PUSH1 0x1F DUP3 ADD AND DUP3 ADD DUP1 PUSH1 0x40 MSTORE POP DUP2 ADD SWAP1 PUSH2 0x117F SWAP2 SWAP1 PUSH2 0x2B5A JUMP JUMPDEST SWAP7 POP DUP12 PUSH8 0xFFFFFFFFFFFFFFFF AND DUP8 PUSH32 0x27CF2B4E28CECC12D1735413A6C08EB26B855BB1582D83637B301AEE8555943F DUP14 DUP14 DUP14 DUP14 DUP8 PUSH1 0x40 MLOAD PUSH2 0x11C4 SWAP6 SWAP5 SWAP4 SWAP3 SWAP2 SWAP1 PUSH2 0x2C2A JUMP JUMPDEST PUSH1 0x40 MLOAD DUP1 SWAP2 SUB SWAP1 LOG3 POP POP POP POP POP POP SWAP6 SWAP5 POP POP POP POP POP JUMP JUMPDEST PUSH2 0x11E3 PUSH2 0x129D JUMP JUMPDEST DUP1 PUSH1 0x3 PUSH1 0x0 DUP5 PUSH8 0xFFFFFFFFFFFFFFFF AND PUSH8 0xFFFFFFFFFFFFFFFF AND DUP2 MSTORE PUSH1 0x20 ADD SWAP1 DUP2 MSTORE PUSH1 0x20 ADD PUSH1 0x0 KECCAK256 PUSH1 0x0 PUSH2 0x100 EXP DUP2 SLOAD DUP2 PUSH1 0xFF MUL NOT AND SWAP1 DUP4 ISZERO ISZERO MUL OR SWAP1 SSTORE POP POP POP JUMP JUMPDEST PUSH2 0x122E PUSH2 0x129D JUMP JUMPDEST DUP1 PUSH1 0x4 PUSH1 0x0 DUP5 PUSH20 0xFFFFFFFFFFFFFFFFFFFFFFFFFFFFFFFFFFFFFFFF AND PUSH20 0xFFFFFFFFFFFFFFFFFFFFFFFFFFFFFFFFFFFFFFFF AND DUP2 MSTORE PUSH1 0x20 ADD SWAP1 DUP2 MSTORE PUSH1 0x20 ADD PUSH1 0x0 KECCAK256 PUSH1 0x0 PUSH2 0x100 EXP DUP2 SLOAD DUP2 PUSH1 0xFF MUL NOT AND SWAP1 DUP4 ISZERO ISZERO MUL OR SWAP1 SSTORE POP POP POP JUMP JUMPDEST PUSH2 0x1291 PUSH2 0x129D JUMP JUMPDEST PUSH2 0x129A DUP2 PUSH2 0x1A70 JUMP JUMPDEST POP JUMP JUMPDEST PUSH1 0x0 DUP1 SLOAD SWAP1 PUSH2 0x100 EXP SWAP1 DIV PUSH20 0xFFFFFFFFFFFFFFFFFFFFFFFFFFFFFFFFFFFFFFFF AND PUSH20 0xFFFFFFFFFFFFFFFFFFFFFFFFFFFFFFFFFFFFFFFF AND CALLER PUSH20 0xFFFFFFFFFFFFFFFFFFFFFFFFFFFFFFFFFFFFFFFF AND EQ PUSH2 0x132B JUMPI PUSH1 0x40 MLOAD PUSH32 0x8C379A000000000000000000000000000000000000000000000000000000000 DUP2 MSTORE PUSH1 0x4 ADD PUSH2 0x1322 SWAP1 PUSH2 0x2CCA JUMP JUMPDEST PUSH1 0x40 MLOAD DUP1 SWAP2 SUB SWAP1 REVERT JUMPDEST JUMP JUMPDEST PUSH1 0x0 DUP1 DUP5 PUSH20 0xFFFFFFFFFFFFFFFFFFFFFFFFFFFFFFFFFFFFFFFF AND PUSH4 0x95EA7B3 PUSH1 0xE0 SHL DUP6 DUP6 PUSH1 0x40 MLOAD PUSH1 0x24 ADD PUSH2 0x1362 SWAP3 SWAP2 SWAP1 PUSH2 0x2240 JUMP JUMPDEST PUSH1 0x40 MLOAD PUSH1 0x20 DUP2 DUP4 SUB SUB DUP2 MSTORE SWAP1 PUSH1 0x40 MSTORE SWAP1 PUSH28 0xFFFFFFFFFFFFFFFFFFFFFFFFFFFFFFFFFFFFFFFFFFFFFFFFFFFFFFFF NOT AND PUSH1 0x20 DUP3 ADD DUP1 MLOAD PUSH28 0xFFFFFFFFFFFFFFFFFFFFFFFFFFFFFFFFFFFFFFFFFFFFFFFFFFFFFFFF DUP4 DUP2 DUP4 AND OR DUP4 MSTORE POP POP POP POP PUSH1 0x40 MLOAD PUSH2 0x13CC SWAP2 SWAP1 PUSH2 0x2D1B JUMP JUMPDEST PUSH1 0x0 PUSH1 0x40 MLOAD DUP1 DUP4 SUB DUP2 PUSH1 0x0 DUP7 GAS CALL SWAP2 POP POP RETURNDATASIZE DUP1 PUSH1 0x0 DUP2 EQ PUSH2 0x1409 JUMPI PUSH1 0x40 MLOAD SWAP2 POP PUSH1 0x1F NOT PUSH1 0x3F RETURNDATASIZE ADD AND DUP3 ADD PUSH1 0x40 MSTORE RETURNDATASIZE DUP3 MSTORE RETURNDATASIZE PUSH1 0x0 PUSH1 0x20 DUP5 ADD RETURNDATACOPY PUSH2 0x140E JUMP JUMPDEST PUSH1 0x60 SWAP2 POP JUMPDEST POP SWAP2 POP SWAP2 POP DUP2 DUP1 ISZERO PUSH2 0x143C JUMPI POP PUSH1 0x0 DUP2 MLOAD EQ DUP1 PUSH2 0x143B JUMPI POP DUP1 DUP1 PUSH1 0x20 ADD SWAP1 MLOAD DUP2 ADD SWAP1 PUSH2 0x143A SWAP2 SWAP1 PUSH2 0x227E JUMP JUMPDEST JUMPDEST JUMPDEST PUSH2 0x147B JUMPI PUSH1 0x40 MLOAD PUSH32 0x8C379A000000000000000000000000000000000000000000000000000000000 DUP2 MSTORE PUSH1 0x4 ADD PUSH2 0x1472 SWAP1 PUSH2 0x2D7E JUMP JUMPDEST PUSH1 0x40 MLOAD DUP1 SWAP2 SUB SWAP1 REVERT JUMPDEST POP POP POP POP POP JUMP JUMPDEST PUSH1 0x0 DUP1 DUP5 PUSH20 0xFFFFFFFFFFFFFFFFFFFFFFFFFFFFFFFFFFFFFFFF AND PUSH4 0xA9059CBB PUSH1 0xE0 SHL DUP6 DUP6 PUSH1 0x40 MLOAD PUSH1 0x24 ADD PUSH2 0x14B7 SWAP3 SWAP2 SWAP1 PUSH2 0x2240 JUMP JUMPDEST PUSH1 0x40 MLOAD PUSH1 0x20 DUP2 DUP4 SUB SUB DUP2 MSTORE SWAP1 PUSH1 0x40 MSTORE SWAP1 PUSH28 0xFFFFFFFFFFFFFFFFFFFFFFFFFFFFFFFFFFFFFFFFFFFFFFFFFFFFFFFF NOT AND PUSH1 0x20 DUP3 ADD DUP1 MLOAD PUSH28 0xFFFFFFFFFFFFFFFFFFFFFFFFFFFFFFFFFFFFFFFFFFFFFFFFFFFFFFFF DUP4 DUP2 DUP4 AND OR DUP4 MSTORE POP POP POP POP PUSH1 0x40 MLOAD PUSH2 0x1521 SWAP2 SWAP1 PUSH2 0x2D1B JUMP JUMPDEST PUSH1 0x0 PUSH1 0x40 MLOAD DUP1 DUP4 SUB DUP2 PUSH1 0x0 DUP7 GAS CALL SWAP2 POP POP RETURNDATASIZE DUP1 PUSH1 0x0 DUP2 EQ PUSH2 0x155E JUMPI PUSH1 0x40 MLOAD SWAP2 POP PUSH1 0x1F NOT PUSH1 0x3F RETURNDATASIZE ADD AND DUP3 ADD PUSH1 0x40 MSTORE RETURNDATASIZE DUP3 MSTORE RETURNDATASIZE PUSH1 0x0 PUSH1 0x20 DUP5 ADD RETURNDATACOPY PUSH2 0x1563 JUMP JUMPDEST PUSH1 0x60 SWAP2 POP JUMPDEST POP SWAP2 POP SWAP2 POP DUP2 DUP1 ISZERO PUSH2 0x1591 JUMPI POP PUSH1 0x0 DUP2 MLOAD EQ DUP1 PUSH2 0x1590 JUMPI POP DUP1 DUP1 PUSH1 0x20 ADD SWAP1 MLOAD DUP2 ADD SWAP1 PUSH2 0x158F SWAP2 SWAP1 PUSH2 0x227E JUMP JUMPDEST JUMPDEST JUMPDEST PUSH2 0x15D0 JUMPI PUSH1 0x40 MLOAD PUSH32 0x8C379A000000000000000000000000000000000000000000000000000000000 DUP2 MSTORE PUSH1 0x4 ADD PUSH2 0x15C7 SWAP1 PUSH2 0x2DEA JUMP JUMPDEST PUSH1 0x40 MLOAD DUP1 SWAP2 SUB SWAP1 REVERT JUMPDEST POP POP POP POP POP JUMP JUMPDEST DUP1 PUSH1 0x20 ADD MLOAD DUP2 PUSH1 0x40 ADD MLOAD DUP1 PUSH1 0x20 ADD SWAP1 MLOAD DUP2 ADD SWAP1 PUSH2 0x15F4 SWAP2 SWAP1 PUSH2 0x2E48 JUMP JUMPDEST PUSH1 0x3 PUSH1 0x0 DUP4 PUSH8 0xFFFFFFFFFFFFFFFF AND PUSH8 0xFFFFFFFFFFFFFFFF AND DUP2 MSTORE PUSH1 0x20 ADD SWAP1 DUP2 MSTORE PUSH1 0x20 ADD PUSH1 0x0 KECCAK256 PUSH1 0x0 SWAP1 SLOAD SWAP1 PUSH2 0x100 EXP SWAP1 DIV PUSH1 0xFF AND PUSH2 0x166A JUMPI DUP2 PUSH1 0x40 MLOAD PUSH32 0x213C267800000000000000000000000000000000000000000000000000000000 DUP2 MSTORE PUSH1 0x4 ADD PUSH2 0x1661 SWAP2 SWAP1 PUSH2 0x28A7 JUMP JUMPDEST PUSH1 0x40 MLOAD DUP1 SWAP2 SUB SWAP1 REVERT JUMPDEST PUSH1 0x4 PUSH1 0x0 DUP3 PUSH20 0xFFFFFFFFFFFFFFFFFFFFFFFFFFFFFFFFFFFFFFFF AND PUSH20 0xFFFFFFFFFFFFFFFFFFFFFFFFFFFFFFFFFFFFFFFF AND DUP2 MSTORE PUSH1 0x20 ADD SWAP1 DUP2 MSTORE PUSH1 0x20 ADD PUSH1 0x0 KECCAK256 PUSH1 0x0 SWAP1 SLOAD SWAP1 PUSH2 0x100 EXP SWAP1 DIV PUSH1 0xFF AND PUSH2 0x16F8 JUMPI DUP1 PUSH1 0x40 MLOAD PUSH32 0xD0D2597600000000000000000000000000000000000000000000000000000000 DUP2 MSTORE PUSH1 0x4 ADD PUSH2 0x16EF SWAP2 SWAP1 PUSH2 0x1FEE JUMP JUMPDEST PUSH1 0x40 MLOAD DUP1 SWAP2 SUB SWAP1 REVERT JUMPDEST PUSH1 0x0 DUP4 PUSH1 0x60 ADD MLOAD DUP1 PUSH1 0x20 ADD SWAP1 MLOAD DUP2 ADD SWAP1 PUSH2 0x1712 SWAP2 SWAP1 PUSH2 0x2EED JUMP JUMPDEST SWAP1 POP PUSH1 0x0 DUP5 PUSH1 0x80 ADD MLOAD PUSH1 0x0 DUP2 MLOAD DUP2 LT PUSH2 0x172E JUMPI PUSH2 0x172D PUSH2 0x2F1A JUMP JUMPDEST JUMPDEST PUSH1 0x20 MUL PUSH1 0x20 ADD ADD MLOAD PUSH1 0x0 ADD MLOAD SWAP1 POP PUSH1 0x0 DUP6 PUSH1 0x80 ADD MLOAD PUSH1 0x0 DUP2 MLOAD DUP2 LT PUSH2 0x1756 JUMPI PUSH2 0x1755 PUSH2 0x2F1A JUMP JUMPDEST JUMPDEST PUSH1 0x20 MUL PUSH1 0x20 ADD ADD MLOAD PUSH1 0x20 ADD MLOAD SWAP1 POP DUP2 PUSH20 0xFFFFFFFFFFFFFFFFFFFFFFFFFFFFFFFFFFFFFFFF AND DUP4 PUSH1 0x40 ADD MLOAD PUSH20 0xFFFFFFFFFFFFFFFFFFFFFFFFFFFFFFFFFFFFFFFF AND SUB PUSH2 0x1823 JUMPI DUP2 PUSH20 0xFFFFFFFFFFFFFFFFFFFFFFFFFFFFFFFFFFFFFFFF AND PUSH4 0xA9059CBB DUP5 PUSH1 0x20 ADD MLOAD DUP4 PUSH1 0x40 MLOAD DUP4 PUSH4 0xFFFFFFFF AND PUSH1 0xE0 SHL DUP2 MSTORE PUSH1 0x4 ADD PUSH2 0x17DA SWAP3 SWAP2 SWAP1 PUSH2 0x2240 JUMP JUMPDEST PUSH1 0x20 PUSH1 0x40 MLOAD DUP1 DUP4 SUB DUP2 PUSH1 0x0 DUP8 GAS CALL ISZERO DUP1 ISZERO PUSH2 0x17F9 JUMPI RETURNDATASIZE PUSH1 0x0 DUP1 RETURNDATACOPY RETURNDATASIZE PUSH1 0x0 REVERT JUMPDEST POP POP POP POP PUSH1 0x40 MLOAD RETURNDATASIZE PUSH1 0x1F NOT PUSH1 0x1F DUP3 ADD AND DUP3 ADD DUP1 PUSH1 0x40 MSTORE POP DUP2 ADD SWAP1 PUSH2 0x181D SWAP2 SWAP1 PUSH2 0x227E JUMP JUMPDEST POP PUSH2 0x18B5 JUMP JUMPDEST ADDRESS PUSH20 0xFFFFFFFFFFFFFFFFFFFFFFFFFFFFFFFFFFFFFFFF AND PUSH4 0x5F299CBE DUP4 DUP4 DUP7 PUSH1 0x40 ADD MLOAD DUP8 PUSH1 0x60 ADD MLOAD DUP9 PUSH1 0x20 ADD MLOAD PUSH1 0x40 MLOAD DUP7 PUSH4 0xFFFFFFFF AND PUSH1 0xE0 SHL DUP2 MSTORE PUSH1 0x4 ADD PUSH2 0x1870 SWAP6 SWAP5 SWAP4 SWAP3 SWAP2 SWAP1 PUSH2 0x2F49 JUMP JUMPDEST PUSH1 0x20 PUSH1 0x40 MLOAD DUP1 DUP4 SUB DUP2 PUSH1 0x0 DUP8 GAS CALL ISZERO DUP1 ISZERO PUSH2 0x188F JUMPI RETURNDATASIZE PUSH1 0x0 DUP1 RETURNDATACOPY RETURNDATASIZE PUSH1 0x0 REVERT JUMPDEST POP POP POP POP PUSH1 0x40 MLOAD RETURNDATASIZE PUSH1 0x1F NOT PUSH1 0x1F DUP3 ADD AND DUP3 ADD DUP1 PUSH1 0x40 MSTORE POP DUP2 ADD SWAP1 PUSH2 0x18B3 SWAP2 SWAP1 PUSH2 0x2213 JUMP JUMPDEST POP JUMPDEST DUP6 PUSH1 0x20 ADD MLOAD PUSH8 0xFFFFFFFFFFFFFFFF AND DUP7 PUSH1 0x0 ADD MLOAD PUSH32 0x599C623EEF336D2101CFEB7A6E55C2E8AA98AE12831C9A86FCB31F5650401F03 DUP9 PUSH1 0x40 ADD MLOAD DUP1 PUSH1 0x20 ADD SWAP1 MLOAD DUP2 ADD SWAP1 PUSH2 0x1902 SWAP2 SWAP1 PUSH2 0x2E48 JUMP JUMPDEST DUP7 DUP7 DUP7 PUSH1 0x40 MLOAD PUSH2 0x1915 SWAP5 SWAP4 SWAP3 SWAP2 SWAP1 PUSH2 0x3012 JUMP JUMPDEST PUSH1 0x40 MLOAD DUP1 SWAP2 SUB SWAP1 LOG3 POP POP POP POP POP POP JUMP JUMPDEST PUSH2 0x192D PUSH2 0x1C1B JUMP JUMPDEST PUSH1 0x0 PUSH1 0x1 PUSH8 0xFFFFFFFFFFFFFFFF DUP2 GT ISZERO PUSH2 0x194A JUMPI PUSH2 0x1949 PUSH2 0x2527 JUMP JUMPDEST JUMPDEST PUSH1 0x40 MLOAD SWAP1 DUP1 DUP3 MSTORE DUP1 PUSH1 0x20 MUL PUSH1 0x20 ADD DUP3 ADD PUSH1 0x40 MSTORE DUP1 ISZERO PUSH2 0x1983 JUMPI DUP2 PUSH1 0x20 ADD JUMPDEST PUSH2 0x1970 PUSH2 0x1C60 JUMP JUMPDEST DUP2 MSTORE PUSH1 0x20 ADD SWAP1 PUSH1 0x1 SWAP1 SUB SWAP1 DUP2 PUSH2 0x1968 JUMPI SWAP1 POP JUMPDEST POP SWAP1 POP PUSH1 0x40 MLOAD DUP1 PUSH1 0x40 ADD PUSH1 0x40 MSTORE DUP1 DUP6 PUSH20 0xFFFFFFFFFFFFFFFFFFFFFFFFFFFFFFFFFFFFFFFF AND DUP2 MSTORE PUSH1 0x20 ADD DUP5 DUP2 MSTORE POP DUP2 PUSH1 0x0 DUP2 MLOAD DUP2 LT PUSH2 0x19C5 JUMPI PUSH2 0x19C4 PUSH2 0x2F1A JUMP JUMPDEST JUMPDEST PUSH1 0x20 MUL PUSH1 0x20 ADD ADD DUP2 SWAP1 MSTORE POP PUSH1 0x40 MLOAD DUP1 PUSH1 0xA0 ADD PUSH1 0x40 MSTORE DUP1 DUP8 PUSH1 0x40 MLOAD PUSH1 0x20 ADD PUSH2 0x19EC SWAP2 SWAP1 PUSH2 0x1FEE JUMP JUMPDEST PUSH1 0x40 MLOAD PUSH1 0x20 DUP2 DUP4 SUB SUB DUP2 MSTORE SWAP1 PUSH1 0x40 MSTORE DUP2 MSTORE PUSH1 0x20 ADD DUP7 PUSH1 0x40 MLOAD PUSH1 0x20 ADD PUSH2 0x1A11 SWAP2 SWAP1 PUSH2 0x3057 JUMP JUMPDEST PUSH1 0x40 MLOAD PUSH1 0x20 DUP2 DUP4 SUB SUB DUP2 MSTORE SWAP1 PUSH1 0x40 MSTORE DUP2 MSTORE PUSH1 0x20 ADD DUP3 DUP2 MSTORE PUSH1 0x20 ADD PUSH1 0x0 PUSH20 0xFFFFFFFFFFFFFFFFFFFFFFFFFFFFFFFFFFFFFFFF AND DUP2 MSTORE PUSH1 0x20 ADD PUSH2 0x1A62 PUSH1 0x40 MLOAD DUP1 PUSH1 0x20 ADD PUSH1 0x40 MSTORE DUP1 PUSH3 0x30D40 DUP2 MSTORE POP PUSH2 0x1B9C JUMP JUMPDEST DUP2 MSTORE POP SWAP2 POP POP SWAP5 SWAP4 POP POP POP POP JUMP JUMPDEST CALLER PUSH20 0xFFFFFFFFFFFFFFFFFFFFFFFFFFFFFFFFFFFFFFFF AND DUP2 PUSH20 0xFFFFFFFFFFFFFFFFFFFFFFFFFFFFFFFFFFFFFFFF AND SUB PUSH2 0x1ADE JUMPI PUSH1 0x40 MLOAD PUSH32 0x8C379A000000000000000000000000000000000000000000000000000000000 DUP2 MSTORE PUSH1 0x4 ADD PUSH2 0x1AD5 SWAP1 PUSH2 0x30BE JUMP JUMPDEST PUSH1 0x40 MLOAD DUP1 SWAP2 SUB SWAP1 REVERT JUMPDEST DUP1 PUSH1 0x1 PUSH1 0x0 PUSH2 0x100 EXP DUP2 SLOAD DUP2 PUSH20 0xFFFFFFFFFFFFFFFFFFFFFFFFFFFFFFFFFFFFFFFF MUL NOT AND SWAP1 DUP4 PUSH20 0xFFFFFFFFFFFFFFFFFFFFFFFFFFFFFFFFFFFFFFFF AND MUL OR SWAP1 SSTORE POP DUP1 PUSH20 0xFFFFFFFFFFFFFFFFFFFFFFFFFFFFFFFFFFFFFFFF AND PUSH1 0x0 DUP1 SLOAD SWAP1 PUSH2 0x100 EXP SWAP1 DIV PUSH20 0xFFFFFFFFFFFFFFFFFFFFFFFFFFFFFFFFFFFFFFFF AND PUSH20 0xFFFFFFFFFFFFFFFFFFFFFFFFFFFFFFFFFFFFFFFF AND PUSH32 0xED8889F560326EB138920D842192F0EB3DD22B4F139C87A2C57538E05BAE1278 PUSH1 0x40 MLOAD PUSH1 0x40 MLOAD DUP1 SWAP2 SUB SWAP1 LOG3 POP JUMP JUMPDEST PUSH1 0x60 PUSH4 0x97A657C9 PUSH1 0xE0 SHL DUP3 PUSH1 0x40 MLOAD PUSH1 0x24 ADD PUSH2 0x1BB7 SWAP2 SWAP1 PUSH2 0x30FA JUMP JUMPDEST PUSH1 0x40 MLOAD PUSH1 0x20 DUP2 DUP4 SUB SUB DUP2 MSTORE SWAP1 PUSH1 0x40 MSTORE SWAP1 PUSH28 0xFFFFFFFFFFFFFFFFFFFFFFFFFFFFFFFFFFFFFFFFFFFFFFFFFFFFFFFF NOT AND PUSH1 0x20 DUP3 ADD DUP1 MLOAD PUSH28 0xFFFFFFFFFFFFFFFFFFFFFFFFFFFFFFFFFFFFFFFFFFFFFFFFFFFFFFFF DUP4 DUP2 DUP4 AND OR DUP4 MSTORE POP POP POP POP SWAP1 POP SWAP2 SWAP1 POP JUMP JUMPDEST PUSH1 0x40 MLOAD DUP1 PUSH1 0xA0 ADD PUSH1 0x40 MSTORE DUP1 PUSH1 0x60 DUP2 MSTORE PUSH1 0x20 ADD PUSH1 0x60 DUP2 MSTORE PUSH1 0x20 ADD PUSH1 0x60 DUP2 MSTORE PUSH1 0x20 ADD PUSH1 0x0 PUSH20 0xFFFFFFFFFFFFFFFFFFFFFFFFFFFFFFFFFFFFFFFF AND DUP2 MSTORE PUSH1 0x20 ADD PUSH1 0x60 DUP2 MSTORE POP SWAP1 JUMP JUMPDEST PUSH1 0x40 MLOAD DUP1 PUSH1 0x40 ADD PUSH1 0x40 MSTORE DUP1 PUSH1 0x0 PUSH20 0xFFFFFFFFFFFFFFFFFFFFFFFFFFFFFFFFFFFFFFFF AND DUP2 MSTORE PUSH1 0x20 ADD PUSH1 0x0 DUP2 MSTORE POP SWAP1 JUMP JUMPDEST PUSH1 0x0 PUSH1 0x40 MLOAD SWAP1 POP SWAP1 JUMP JUMPDEST PUSH1 0x0 DUP1 REVERT JUMPDEST PUSH1 0x0 DUP1 REVERT JUMPDEST PUSH1 0x0 PUSH32 0xFFFFFFFF00000000000000000000000000000000000000000000000000000000 DUP3 AND SWAP1 POP SWAP2 SWAP1 POP JUMP JUMPDEST PUSH2 0x1CD9 DUP2 PUSH2 0x1CA4 JUMP JUMPDEST DUP2 EQ PUSH2 0x1CE4 JUMPI PUSH1 0x0 DUP1 REVERT JUMPDEST POP JUMP JUMPDEST PUSH1 0x0 DUP2 CALLDATALOAD SWAP1 POP PUSH2 0x1CF6 DUP2 PUSH2 0x1CD0 JUMP JUMPDEST SWAP3 SWAP2 POP POP JUMP JUMPDEST PUSH1 0x0 PUSH1 0x20 DUP3 DUP5 SUB SLT ISZERO PUSH2 0x1D12 JUMPI PUSH2 0x1D11 PUSH2 0x1C9A JUMP JUMPDEST JUMPDEST PUSH1 0x0 PUSH2 0x1D20 DUP5 DUP3 DUP6 ADD PUSH2 0x1CE7 JUMP JUMPDEST SWAP2 POP POP SWAP3 SWAP2 POP POP JUMP JUMPDEST PUSH1 0x0 DUP2 ISZERO ISZERO SWAP1 POP SWAP2 SWAP1 POP JUMP JUMPDEST PUSH2 0x1D3E DUP2 PUSH2 0x1D29 JUMP JUMPDEST DUP3 MSTORE POP POP JUMP JUMPDEST PUSH1 0x0 PUSH1 0x20 DUP3 ADD SWAP1 POP PUSH2 0x1D59 PUSH1 0x0 DUP4 ADD DUP5 PUSH2 0x1D35 JUMP JUMPDEST SWAP3 SWAP2 POP POP JUMP JUMPDEST PUSH1 0x0 PUSH20 0xFFFFFFFFFFFFFFFFFFFFFFFFFFFFFFFFFFFFFFFF DUP3 AND SWAP1 POP SWAP2 SWAP1 POP JUMP JUMPDEST PUSH1 0x0 PUSH2 0x1D8A DUP3 PUSH2 0x1D5F JUMP JUMPDEST SWAP1 POP SWAP2 SWAP1 POP JUMP JUMPDEST PUSH2 0x1D9A DUP2 PUSH2 0x1D7F JUMP JUMPDEST DUP2 EQ PUSH2 0x1DA5 JUMPI PUSH1 0x0 DUP1 REVERT JUMPDEST POP JUMP JUMPDEST PUSH1 0x0 DUP2 CALLDATALOAD SWAP1 POP PUSH2 0x1DB7 DUP2 PUSH2 0x1D91 JUMP JUMPDEST SWAP3 SWAP2 POP POP JUMP JUMPDEST PUSH1 0x0 DUP1 PUSH1 0x40 DUP4 DUP6 SUB SLT ISZERO PUSH2 0x1DD4 JUMPI PUSH2 0x1DD3 PUSH2 0x1C9A JUMP JUMPDEST JUMPDEST PUSH1 0x0 PUSH2 0x1DE2 DUP6 DUP3 DUP7 ADD PUSH2 0x1DA8 JUMP JUMPDEST SWAP3 POP POP PUSH1 0x20 PUSH2 0x1DF3 DUP6 DUP3 DUP7 ADD PUSH2 0x1DA8 JUMP JUMPDEST SWAP2 POP POP SWAP3 POP SWAP3 SWAP1 POP JUMP JUMPDEST PUSH1 0x0 PUSH8 0xFFFFFFFFFFFFFFFF DUP3 AND SWAP1 POP SWAP2 SWAP1 POP JUMP JUMPDEST PUSH2 0x1E1A DUP2 PUSH2 0x1DFD JUMP JUMPDEST DUP2 EQ PUSH2 0x1E25 JUMPI PUSH1 0x0 DUP1 REVERT JUMPDEST POP JUMP JUMPDEST PUSH1 0x0 DUP2 CALLDATALOAD SWAP1 POP PUSH2 0x1E37 DUP2 PUSH2 0x1E11 JUMP JUMPDEST SWAP3 SWAP2 POP POP JUMP JUMPDEST PUSH1 0x0 PUSH1 0x20 DUP3 DUP5 SUB SLT ISZERO PUSH2 0x1E53 JUMPI PUSH2 0x1E52 PUSH2 0x1C9A JUMP JUMPDEST JUMPDEST PUSH1 0x0 PUSH2 0x1E61 DUP5 DUP3 DUP6 ADD PUSH2 0x1E28 JUMP JUMPDEST SWAP2 POP POP SWAP3 SWAP2 POP POP JUMP JUMPDEST PUSH1 0x0 PUSH1 0x20 DUP3 DUP5 SUB SLT ISZERO PUSH2 0x1E80 JUMPI PUSH2 0x1E7F PUSH2 0x1C9A JUMP JUMPDEST JUMPDEST PUSH1 0x0 PUSH2 0x1E8E DUP5 DUP3 DUP6 ADD PUSH2 0x1DA8 JUMP JUMPDEST SWAP2 POP POP SWAP3 SWAP2 POP POP JUMP JUMPDEST PUSH1 0x0 DUP2 SWAP1 POP SWAP2 SWAP1 POP JUMP JUMPDEST PUSH2 0x1EAA DUP2 PUSH2 0x1E97 JUMP JUMPDEST DUP2 EQ PUSH2 0x1EB5 JUMPI PUSH1 0x0 DUP1 REVERT JUMPDEST POP JUMP JUMPDEST PUSH1 0x0 DUP2 CALLDATALOAD SWAP1 POP PUSH2 0x1EC7 DUP2 PUSH2 0x1EA1 JUMP JUMPDEST SWAP3 SWAP2 POP POP JUMP JUMPDEST PUSH1 0x0 DUP1 PUSH1 0x0 DUP1 PUSH1 0x0 PUSH1 0xA0 DUP7 DUP9 SUB SLT ISZERO PUSH2 0x1EE9 JUMPI PUSH2 0x1EE8 PUSH2 0x1C9A JUMP JUMPDEST JUMPDEST PUSH1 0x0 PUSH2 0x1EF7 DUP9 DUP3 DUP10 ADD PUSH2 0x1DA8 JUMP JUMPDEST SWAP6 POP POP PUSH1 0x20 PUSH2 0x1F08 DUP9 DUP3 DUP10 ADD PUSH2 0x1EB8 JUMP JUMPDEST SWAP5 POP POP PUSH1 0x40 PUSH2 0x1F19 DUP9 DUP3 DUP10 ADD PUSH2 0x1DA8 JUMP JUMPDEST SWAP4 POP POP PUSH1 0x60 PUSH2 0x1F2A DUP9 DUP3 DUP10 ADD PUSH2 0x1EB8 JUMP JUMPDEST SWAP3 POP POP PUSH1 0x80 PUSH2 0x1F3B DUP9 DUP3 DUP10 ADD PUSH2 0x1DA8 JUMP JUMPDEST SWAP2 POP POP SWAP3 SWAP6 POP SWAP3 SWAP6 SWAP1 SWAP4 POP JUMP JUMPDEST PUSH2 0x1F51 DUP2 PUSH2 0x1E97 JUMP JUMPDEST DUP3 MSTORE POP POP JUMP JUMPDEST PUSH1 0x0 PUSH1 0x20 DUP3 ADD SWAP1 POP PUSH2 0x1F6C PUSH1 0x0 DUP4 ADD DUP5 PUSH2 0x1F48 JUMP JUMPDEST SWAP3 SWAP2 POP POP JUMP JUMPDEST PUSH1 0x0 DUP1 REVERT JUMPDEST PUSH1 0x0 PUSH1 0xA0 DUP3 DUP5 SUB SLT ISZERO PUSH2 0x1F8D JUMPI PUSH2 0x1F8C PUSH2 0x1F72 JUMP JUMPDEST JUMPDEST DUP2 SWAP1 POP SWAP3 SWAP2 POP POP JUMP JUMPDEST PUSH1 0x0 PUSH1 0x20 DUP3 DUP5 SUB SLT ISZERO PUSH2 0x1FAC JUMPI PUSH2 0x1FAB PUSH2 0x1C9A JUMP JUMPDEST JUMPDEST PUSH1 0x0 DUP3 ADD CALLDATALOAD PUSH8 0xFFFFFFFFFFFFFFFF DUP2 GT ISZERO PUSH2 0x1FCA JUMPI PUSH2 0x1FC9 PUSH2 0x1C9F JUMP JUMPDEST JUMPDEST PUSH2 0x1FD6 DUP5 DUP3 DUP6 ADD PUSH2 0x1F77 JUMP JUMPDEST SWAP2 POP POP SWAP3 SWAP2 POP POP JUMP JUMPDEST PUSH2 0x1FE8 DUP2 PUSH2 0x1D7F JUMP JUMPDEST DUP3 MSTORE POP POP JUMP JUMPDEST PUSH1 0x0 PUSH1 0x20 DUP3 ADD SWAP1 POP PUSH2 0x2003 PUSH1 0x0 DUP4 ADD DUP5 PUSH2 0x1FDF JUMP JUMPDEST SWAP3 SWAP2 POP POP JUMP JUMPDEST PUSH2 0x2012 DUP2 PUSH2 0x1D29 JUMP JUMPDEST DUP2 EQ PUSH2 0x201D JUMPI PUSH1 0x0 DUP1 REVERT JUMPDEST POP JUMP JUMPDEST PUSH1 0x0 DUP2 CALLDATALOAD SWAP1 POP PUSH2 0x202F DUP2 PUSH2 0x2009 JUMP JUMPDEST SWAP3 SWAP2 POP POP JUMP JUMPDEST PUSH1 0x0 DUP1 PUSH1 0x40 DUP4 DUP6 SUB SLT ISZERO PUSH2 0x204C JUMPI PUSH2 0x204B PUSH2 0x1C9A JUMP JUMPDEST JUMPDEST PUSH1 0x0 PUSH2 0x205A DUP6 DUP3 DUP7 ADD PUSH2 0x1E28 JUMP JUMPDEST SWAP3 POP POP PUSH1 0x20 PUSH2 0x206B DUP6 DUP3 DUP7 ADD PUSH2 0x2020 JUMP JUMPDEST SWAP2 POP POP SWAP3 POP SWAP3 SWAP1 POP JUMP JUMPDEST PUSH1 0x0 DUP2 SWAP1 POP SWAP2 SWAP1 POP JUMP JUMPDEST PUSH1 0x0 PUSH2 0x209A PUSH2 0x2095 PUSH2 0x2090 DUP5 PUSH2 0x1D5F JUMP JUMPDEST PUSH2 0x2075 JUMP JUMPDEST PUSH2 0x1D5F JUMP JUMPDEST SWAP1 POP SWAP2 SWAP1 POP JUMP JUMPDEST PUSH1 0x0 PUSH2 0x20AC DUP3 PUSH2 0x207F JUMP JUMPDEST SWAP1 POP SWAP2 SWAP1 POP JUMP JUMPDEST PUSH1 0x0 PUSH2 0x20BE DUP3 PUSH2 0x20A1 JUMP JUMPDEST SWAP1 POP SWAP2 SWAP1 POP JUMP JUMPDEST PUSH2 0x20CE DUP2 PUSH2 0x20B3 JUMP JUMPDEST DUP3 MSTORE POP POP JUMP JUMPDEST PUSH1 0x0 PUSH1 0x20 DUP3 ADD SWAP1 POP PUSH2 0x20E9 PUSH1 0x0 DUP4 ADD DUP5 PUSH2 0x20C5 JUMP JUMPDEST SWAP3 SWAP2 POP POP JUMP JUMPDEST PUSH1 0x0 PUSH1 0x80 DUP3 DUP5 SUB SLT ISZERO PUSH2 0x2105 JUMPI PUSH2 0x2104 PUSH2 0x1F72 JUMP JUMPDEST JUMPDEST DUP2 SWAP1 POP SWAP3 SWAP2 POP POP JUMP JUMPDEST PUSH1 0x0 DUP1 PUSH1 0x0 DUP1 PUSH1 0x0 PUSH2 0x100 DUP7 DUP9 SUB SLT ISZERO PUSH2 0x212B JUMPI PUSH2 0x212A PUSH2 0x1C9A JUMP JUMPDEST JUMPDEST PUSH1 0x0 PUSH2 0x2139 DUP9 DUP3 DUP10 ADD PUSH2 0x1E28 JUMP JUMPDEST SWAP6 POP POP PUSH1 0x20 PUSH2 0x214A DUP9 DUP3 DUP10 ADD PUSH2 0x1DA8 JUMP JUMPDEST SWAP5 POP POP PUSH1 0x40 PUSH2 0x215B DUP9 DUP3 DUP10 ADD PUSH2 0x20EF JUMP JUMPDEST SWAP4 POP POP PUSH1 0xC0 PUSH2 0x216C DUP9 DUP3 DUP10 ADD PUSH2 0x1DA8 JUMP JUMPDEST SWAP3 POP POP PUSH1 0xE0 PUSH2 0x217D DUP9 DUP3 DUP10 ADD PUSH2 0x1EB8 JUMP JUMPDEST SWAP2 POP POP SWAP3 SWAP6 POP SWAP3 SWAP6 SWAP1 SWAP4 POP JUMP JUMPDEST PUSH1 0x0 DUP2 SWAP1 POP SWAP2 SWAP1 POP JUMP JUMPDEST PUSH2 0x219D DUP2 PUSH2 0x218A JUMP JUMPDEST DUP3 MSTORE POP POP JUMP JUMPDEST PUSH1 0x0 PUSH1 0x20 DUP3 ADD SWAP1 POP PUSH2 0x21B8 PUSH1 0x0 DUP4 ADD DUP5 PUSH2 0x2194 JUMP JUMPDEST SWAP3 SWAP2 POP POP JUMP JUMPDEST PUSH1 0x0 DUP1 PUSH1 0x40 DUP4 DUP6 SUB SLT ISZERO PUSH2 0x21D5 JUMPI PUSH2 0x21D4 PUSH2 0x1C9A JUMP JUMPDEST JUMPDEST PUSH1 0x0 PUSH2 0x21E3 DUP6 DUP3 DUP7 ADD PUSH2 0x1DA8 JUMP JUMPDEST SWAP3 POP POP PUSH1 0x20 PUSH2 0x21F4 DUP6 DUP3 DUP7 ADD PUSH2 0x2020 JUMP JUMPDEST SWAP2 POP POP SWAP3 POP SWAP3 SWAP1 POP JUMP JUMPDEST PUSH1 0x0 DUP2 MLOAD SWAP1 POP PUSH2 0x220D DUP2 PUSH2 0x1EA1 JUMP JUMPDEST SWAP3 SWAP2 POP POP JUMP JUMPDEST PUSH1 0x0 PUSH1 0x20 DUP3 DUP5 SUB SLT ISZERO PUSH2 0x2229 JUMPI PUSH2 0x2228 PUSH2 0x1C9A JUMP JUMPDEST JUMPDEST PUSH1 0x0 PUSH2 0x2237 DUP5 DUP3 DUP6 ADD PUSH2 0x21FE JUMP JUMPDEST SWAP2 POP POP SWAP3 SWAP2 POP POP JUMP JUMPDEST PUSH1 0x0 PUSH1 0x40 DUP3 ADD SWAP1 POP PUSH2 0x2255 PUSH1 0x0 DUP4 ADD DUP6 PUSH2 0x1FDF JUMP JUMPDEST PUSH2 0x2262 PUSH1 0x20 DUP4 ADD DUP5 PUSH2 0x1F48 JUMP JUMPDEST SWAP4 SWAP3 POP POP POP JUMP JUMPDEST PUSH1 0x0 DUP2 MLOAD SWAP1 POP PUSH2 0x2278 DUP2 PUSH2 0x2009 JUMP JUMPDEST SWAP3 SWAP2 POP POP JUMP JUMPDEST PUSH1 0x0 PUSH1 0x20 DUP3 DUP5 SUB SLT ISZERO PUSH2 0x2294 JUMPI PUSH2 0x2293 PUSH2 0x1C9A JUMP JUMPDEST JUMPDEST PUSH1 0x0 PUSH2 0x22A2 DUP5 DUP3 DUP6 ADD PUSH2 0x2269 JUMP JUMPDEST SWAP2 POP POP SWAP3 SWAP2 POP POP JUMP JUMPDEST PUSH1 0x0 DUP2 SWAP1 POP SWAP3 SWAP2 POP POP JUMP JUMPDEST POP JUMP JUMPDEST PUSH1 0x0 PUSH2 0x22C6 PUSH1 0x0 DUP4 PUSH2 0x22AB JUMP JUMPDEST SWAP2 POP PUSH2 0x22D1 DUP3 PUSH2 0x22B6 JUMP JUMPDEST PUSH1 0x0 DUP3 ADD SWAP1 POP SWAP2 SWAP1 POP JUMP JUMPDEST PUSH1 0x0 PUSH2 0x22E7 DUP3 PUSH2 0x22B9 JUMP JUMPDEST SWAP2 POP DUP2 SWAP1 POP SWAP2 SWAP1 POP JUMP JUMPDEST PUSH1 0x0 PUSH1 0x60 DUP3 ADD SWAP1 POP PUSH2 0x2306 PUSH1 0x0 DUP4 ADD DUP7 PUSH2 0x1FDF JUMP JUMPDEST PUSH2 0x2313 PUSH1 0x20 DUP4 ADD DUP6 PUSH2 0x1FDF JUMP JUMPDEST PUSH2 0x2320 PUSH1 0x40 DUP4 ADD DUP5 PUSH2 0x1F48 JUMP JUMPDEST SWAP5 SWAP4 POP POP POP POP JUMP JUMPDEST PUSH2 0x2331 DUP2 PUSH2 0x1D7F JUMP JUMPDEST DUP3 MSTORE POP POP JUMP JUMPDEST PUSH1 0x0 PUSH3 0xFFFFFF DUP3 AND SWAP1 POP SWAP2 SWAP1 POP JUMP JUMPDEST PUSH2 0x234F DUP2 PUSH2 0x2337 JUMP JUMPDEST DUP3 MSTORE POP POP JUMP JUMPDEST PUSH2 0x235E DUP2 PUSH2 0x1E97 JUMP JUMPDEST DUP3 MSTORE POP POP JUMP JUMPDEST PUSH2 0x236D DUP2 PUSH2 0x1D5F JUMP JUMPDEST DUP3 MSTORE POP POP JUMP JUMPDEST PUSH2 0x100 DUP3 ADD PUSH1 0x0 DUP3 ADD MLOAD PUSH2 0x238A PUSH1 0x0 DUP6 ADD DUP3 PUSH2 0x2328 JUMP JUMPDEST POP PUSH1 0x20 DUP3 ADD MLOAD PUSH2 0x239D PUSH1 0x20 DUP6 ADD DUP3 PUSH2 0x2328 JUMP JUMPDEST POP PUSH1 0x40 DUP3 ADD MLOAD PUSH2 0x23B0 PUSH1 0x40 DUP6 ADD DUP3 PUSH2 0x2346 JUMP JUMPDEST POP PUSH1 0x60 DUP3 ADD MLOAD PUSH2 0x23C3 PUSH1 0x60 DUP6 ADD DUP3 PUSH2 0x2328 JUMP JUMPDEST POP PUSH1 0x80 DUP3 ADD MLOAD PUSH2 0x23D6 PUSH1 0x80 DUP6 ADD DUP3 PUSH2 0x2355 JUMP JUMPDEST POP PUSH1 0xA0 DUP3 ADD MLOAD PUSH2 0x23E9 PUSH1 0xA0 DUP6 ADD DUP3 PUSH2 0x2355 JUMP JUMPDEST POP PUSH1 0xC0 DUP3 ADD MLOAD PUSH2 0x23FC PUSH1 0xC0 DUP6 ADD DUP3 PUSH2 0x2355 JUMP JUMPDEST POP PUSH1 0xE0 DUP3 ADD MLOAD PUSH2 0x240F PUSH1 0xE0 DUP6 ADD DUP3 PUSH2 0x2364 JUMP JUMPDEST POP POP POP POP JUMP JUMPDEST PUSH1 0x0 PUSH2 0x100 DUP3 ADD SWAP1 POP PUSH2 0x242B PUSH1 0x0 DUP4 ADD DUP5 PUSH2 0x2373 JUMP JUMPDEST SWAP3 SWAP2 POP POP JUMP JUMPDEST PUSH32 0x4E487B7100000000000000000000000000000000000000000000000000000000 PUSH1 0x0 MSTORE PUSH1 0x11 PUSH1 0x4 MSTORE PUSH1 0x24 PUSH1 0x0 REVERT JUMPDEST PUSH1 0x0 PUSH2 0x246B DUP3 PUSH2 0x1E97 JUMP JUMPDEST SWAP2 POP PUSH2 0x2476 DUP4 PUSH2 0x1E97 JUMP JUMPDEST SWAP3 POP DUP3 DUP3 SUB SWAP1 POP DUP2 DUP2 GT ISZERO PUSH2 0x248E JUMPI PUSH2 0x248D PUSH2 0x2431 JUMP JUMPDEST JUMPDEST SWAP3 SWAP2 POP POP JUMP JUMPDEST PUSH1 0x0 DUP3 DUP3 MSTORE PUSH1 0x20 DUP3 ADD SWAP1 POP SWAP3 SWAP2 POP POP JUMP JUMPDEST PUSH32 0x4D7573742062652070726F706F736564206F776E657200000000000000000000 PUSH1 0x0 DUP3 ADD MSTORE POP JUMP JUMPDEST PUSH1 0x0 PUSH2 0x24DB PUSH1 0x16 DUP4 PUSH2 0x2494 JUMP JUMPDEST SWAP2 POP PUSH2 0x24E6 DUP3 PUSH2 0x24A5 JUMP JUMPDEST PUSH1 0x20 DUP3 ADD SWAP1 POP SWAP2 SWAP1 POP JUMP JUMPDEST PUSH1 0x0 PUSH1 0x20 DUP3 ADD SWAP1 POP DUP2 DUP2 SUB PUSH1 0x0 DUP4 ADD MSTORE PUSH2 0x250A DUP2 PUSH2 0x24CE JUMP JUMPDEST SWAP1 POP SWAP2 SWAP1 POP JUMP JUMPDEST PUSH1 0x0 DUP1 REVERT JUMPDEST PUSH1 0x0 PUSH1 0x1F NOT PUSH1 0x1F DUP4 ADD AND SWAP1 POP SWAP2 SWAP1 POP JUMP JUMPDEST PUSH32 0x4E487B7100000000000000000000000000000000000000000000000000000000 PUSH1 0x0 MSTORE PUSH1 0x41 PUSH1 0x4 MSTORE PUSH1 0x24 PUSH1 0x0 REVERT JUMPDEST PUSH2 0x255F DUP3 PUSH2 0x2516 JUMP JUMPDEST DUP2 ADD DUP2 DUP2 LT PUSH8 0xFFFFFFFFFFFFFFFF DUP3 GT OR ISZERO PUSH2 0x257E JUMPI PUSH2 0x257D PUSH2 0x2527 JUMP JUMPDEST JUMPDEST DUP1 PUSH1 0x40 MSTORE POP POP POP JUMP JUMPDEST PUSH1 0x0 PUSH2 0x2591 PUSH2 0x1C90 JUMP JUMPDEST SWAP1 POP PUSH2 0x259D DUP3 DUP3 PUSH2 0x2556 JUMP JUMPDEST SWAP2 SWAP1 POP JUMP JUMPDEST PUSH1 0x0 DUP1 REVERT JUMPDEST PUSH2 0x25B0 DUP2 PUSH2 0x218A JUMP JUMPDEST DUP2 EQ PUSH2 0x25BB JUMPI PUSH1 0x0 DUP1 REVERT JUMPDEST POP JUMP JUMPDEST PUSH1 0x0 DUP2 CALLDATALOAD SWAP1 POP PUSH2 0x25CD DUP2 PUSH2 0x25A7 JUMP JUMPDEST SWAP3 SWAP2 POP POP JUMP JUMPDEST PUSH1 0x0 DUP1 REVERT JUMPDEST PUSH1 0x0 DUP1 REVERT JUMPDEST PUSH1 0x0 PUSH8 0xFFFFFFFFFFFFFFFF DUP3 GT ISZERO PUSH2 0x25F8 JUMPI PUSH2 0x25F7 PUSH2 0x2527 JUMP JUMPDEST JUMPDEST PUSH2 0x2601 DUP3 PUSH2 0x2516 JUMP JUMPDEST SWAP1 POP PUSH1 0x20 DUP2 ADD SWAP1 POP SWAP2 SWAP1 POP JUMP JUMPDEST DUP3 DUP2 DUP4 CALLDATACOPY PUSH1 0x0 DUP4 DUP4 ADD MSTORE POP POP POP JUMP JUMPDEST PUSH1 0x0 PUSH2 0x2630 PUSH2 0x262B DUP5 PUSH2 0x25DD JUMP JUMPDEST PUSH2 0x2587 JUMP JUMPDEST SWAP1 POP DUP3 DUP2 MSTORE PUSH1 0x20 DUP2 ADD DUP5 DUP5 DUP5 ADD GT ISZERO PUSH2 0x264C JUMPI PUSH2 0x264B PUSH2 0x25D8 JUMP JUMPDEST JUMPDEST PUSH2 0x2657 DUP5 DUP3 DUP6 PUSH2 0x260E JUMP JUMPDEST POP SWAP4 SWAP3 POP POP POP JUMP JUMPDEST PUSH1 0x0 DUP3 PUSH1 0x1F DUP4 ADD SLT PUSH2 0x2674 JUMPI PUSH2 0x2673 PUSH2 0x25D3 JUMP JUMPDEST JUMPDEST DUP2 CALLDATALOAD PUSH2 0x2684 DUP5 DUP3 PUSH1 0x20 DUP7 ADD PUSH2 0x261D JUMP JUMPDEST SWAP2 POP POP SWAP3 SWAP2 POP POP JUMP JUMPDEST PUSH1 0x0 PUSH8 0xFFFFFFFFFFFFFFFF DUP3 GT ISZERO PUSH2 0x26A8 JUMPI PUSH2 0x26A7 PUSH2 0x2527 JUMP JUMPDEST JUMPDEST PUSH1 0x20 DUP3 MUL SWAP1 POP PUSH1 0x20 DUP2 ADD SWAP1 POP SWAP2 SWAP1 POP JUMP JUMPDEST PUSH1 0x0 DUP1 REVERT JUMPDEST PUSH1 0x0 PUSH1 0x40 DUP3 DUP5 SUB SLT ISZERO PUSH2 0x26D4 JUMPI PUSH2 0x26D3 PUSH2 0x2511 JUMP JUMPDEST JUMPDEST PUSH2 0x26DE PUSH1 0x40 PUSH2 0x2587 JUMP JUMPDEST SWAP1 POP PUSH1 0x0 PUSH2 0x26EE DUP5 DUP3 DUP6 ADD PUSH2 0x1DA8 JUMP JUMPDEST PUSH1 0x0 DUP4 ADD MSTORE POP PUSH1 0x20 PUSH2 0x2702 DUP5 DUP3 DUP6 ADD PUSH2 0x1EB8 JUMP JUMPDEST PUSH1 0x20 DUP4 ADD MSTORE POP SWAP3 SWAP2 POP POP JUMP JUMPDEST PUSH1 0x0 PUSH2 0x2721 PUSH2 0x271C DUP5 PUSH2 0x268D JUMP JUMPDEST PUSH2 0x2587 JUMP JUMPDEST SWAP1 POP DUP1 DUP4 DUP3 MSTORE PUSH1 0x20 DUP3 ADD SWAP1 POP PUSH1 0x40 DUP5 MUL DUP4 ADD DUP6 DUP2 GT ISZERO PUSH2 0x2744 JUMPI PUSH2 0x2743 PUSH2 0x26B9 JUMP JUMPDEST JUMPDEST DUP4 JUMPDEST DUP2 DUP2 LT ISZERO PUSH2 0x276D JUMPI DUP1 PUSH2 0x2759 DUP9 DUP3 PUSH2 0x26BE JUMP JUMPDEST DUP5 MSTORE PUSH1 0x20 DUP5 ADD SWAP4 POP POP PUSH1 0x40 DUP2 ADD SWAP1 POP PUSH2 0x2746 JUMP JUMPDEST POP POP POP SWAP4 SWAP3 POP POP POP JUMP JUMPDEST PUSH1 0x0 DUP3 PUSH1 0x1F DUP4 ADD SLT PUSH2 0x278C JUMPI PUSH2 0x278B PUSH2 0x25D3 JUMP JUMPDEST JUMPDEST DUP2 CALLDATALOAD PUSH2 0x279C DUP5 DUP3 PUSH1 0x20 DUP7 ADD PUSH2 0x270E JUMP JUMPDEST SWAP2 POP POP SWAP3 SWAP2 POP POP JUMP JUMPDEST PUSH1 0x0 PUSH1 0xA0 DUP3 DUP5 SUB SLT ISZERO PUSH2 0x27BB JUMPI PUSH2 0x27BA PUSH2 0x2511 JUMP JUMPDEST JUMPDEST PUSH2 0x27C5 PUSH1 0xA0 PUSH2 0x2587 JUMP JUMPDEST SWAP1 POP PUSH1 0x0 PUSH2 0x27D5 DUP5 DUP3 DUP6 ADD PUSH2 0x25BE JUMP JUMPDEST PUSH1 0x0 DUP4 ADD MSTORE POP PUSH1 0x20 PUSH2 0x27E9 DUP5 DUP3 DUP6 ADD PUSH2 0x1E28 JUMP JUMPDEST PUSH1 0x20 DUP4 ADD MSTORE POP PUSH1 0x40 DUP3 ADD CALLDATALOAD PUSH8 0xFFFFFFFFFFFFFFFF DUP2 GT ISZERO PUSH2 0x280D JUMPI PUSH2 0x280C PUSH2 0x25A2 JUMP JUMPDEST JUMPDEST PUSH2 0x2819 DUP5 DUP3 DUP6 ADD PUSH2 0x265F JUMP JUMPDEST PUSH1 0x40 DUP4 ADD MSTORE POP PUSH1 0x60 DUP3 ADD CALLDATALOAD PUSH8 0xFFFFFFFFFFFFFFFF DUP2 GT ISZERO PUSH2 0x283D JUMPI PUSH2 0x283C PUSH2 0x25A2 JUMP JUMPDEST JUMPDEST PUSH2 0x2849 DUP5 DUP3 DUP6 ADD PUSH2 0x265F JUMP JUMPDEST PUSH1 0x60 DUP4 ADD MSTORE POP PUSH1 0x80 DUP3 ADD CALLDATALOAD PUSH8 0xFFFFFFFFFFFFFFFF DUP2 GT ISZERO PUSH2 0x286D JUMPI PUSH2 0x286C PUSH2 0x25A2 JUMP JUMPDEST JUMPDEST PUSH2 0x2879 DUP5 DUP3 DUP6 ADD PUSH2 0x2777 JUMP JUMPDEST PUSH1 0x80 DUP4 ADD MSTORE POP SWAP3 SWAP2 POP POP JUMP JUMPDEST PUSH1 0x0 PUSH2 0x2891 CALLDATASIZE DUP4 PUSH2 0x27A5 JUMP JUMPDEST SWAP1 POP SWAP2 SWAP1 POP JUMP JUMPDEST PUSH2 0x28A1 DUP2 PUSH2 0x1DFD JUMP JUMPDEST DUP3 MSTORE POP POP JUMP JUMPDEST PUSH1 0x0 PUSH1 0x20 DUP3 ADD SWAP1 POP PUSH2 0x28BC PUSH1 0x0 DUP4 ADD DUP5 PUSH2 0x2898 JUMP JUMPDEST SWAP3 SWAP2 POP POP JUMP JUMPDEST PUSH1 0x0 DUP2 MLOAD SWAP1 POP PUSH2 0x28D1 DUP2 PUSH2 0x1D91 JUMP JUMPDEST SWAP3 SWAP2 POP POP JUMP JUMPDEST PUSH1 0x0 PUSH1 0x20 DUP3 DUP5 SUB SLT ISZERO PUSH2 0x28ED JUMPI PUSH2 0x28EC PUSH2 0x1C9A JUMP JUMPDEST JUMPDEST PUSH1 0x0 PUSH2 0x28FB DUP5 DUP3 DUP6 ADD PUSH2 0x28C2 JUMP JUMPDEST SWAP2 POP POP SWAP3 SWAP2 POP POP JUMP JUMPDEST PUSH1 0x0 DUP2 MLOAD SWAP1 POP SWAP2 SWAP1 POP JUMP JUMPDEST PUSH1 0x0 DUP3 DUP3 MSTORE PUSH1 0x20 DUP3 ADD SWAP1 POP SWAP3 SWAP2 POP POP JUMP JUMPDEST PUSH1 0x0 JUMPDEST DUP4 DUP2 LT ISZERO PUSH2 0x293E JUMPI DUP1 DUP3 ADD MLOAD DUP2 DUP5 ADD MSTORE PUSH1 0x20 DUP2 ADD SWAP1 POP PUSH2 0x2923 JUMP JUMPDEST PUSH1 0x0 DUP5 DUP5 ADD MSTORE POP POP POP POP JUMP JUMPDEST PUSH1 0x0 PUSH2 0x2955 DUP3 PUSH2 0x2904 JUMP JUMPDEST PUSH2 0x295F DUP2 DUP6 PUSH2 0x290F JUMP JUMPDEST SWAP4 POP PUSH2 0x296F DUP2 DUP6 PUSH1 0x20 DUP7 ADD PUSH2 0x2920 JUMP JUMPDEST PUSH2 0x2978 DUP2 PUSH2 0x2516 JUMP JUMPDEST DUP5 ADD SWAP2 POP POP SWAP3 SWAP2 POP POP JUMP JUMPDEST PUSH1 0x0 DUP2 MLOAD SWAP1 POP SWAP2 SWAP1 POP JUMP JUMPDEST PUSH1 0x0 DUP3 DUP3 MSTORE PUSH1 0x20 DUP3 ADD SWAP1 POP SWAP3 SWAP2 POP POP JUMP JUMPDEST PUSH1 0x0 DUP2 SWAP1 POP PUSH1 0x20 DUP3 ADD SWAP1 POP SWAP2 SWAP1 POP JUMP JUMPDEST PUSH1 0x40 DUP3 ADD PUSH1 0x0 DUP3 ADD MLOAD PUSH2 0x29C5 PUSH1 0x0 DUP6 ADD DUP3 PUSH2 0x2328 JUMP JUMPDEST POP PUSH1 0x20 DUP3 ADD MLOAD PUSH2 0x29D8 PUSH1 0x20 DUP6 ADD DUP3 PUSH2 0x2355 JUMP JUMPDEST POP POP POP POP JUMP JUMPDEST PUSH1 0x0 PUSH2 0x29EA DUP4 DUP4 PUSH2 0x29AF JUMP JUMPDEST PUSH1 0x40 DUP4 ADD SWAP1 POP SWAP3 SWAP2 POP POP JUMP JUMPDEST PUSH1 0x0 PUSH1 0x20 DUP3 ADD SWAP1 POP SWAP2 SWAP1 POP JUMP JUMPDEST PUSH1 0x0 PUSH2 0x2A0E DUP3 PUSH2 0x2983 JUMP JUMPDEST PUSH2 0x2A18 DUP2 DUP6 PUSH2 0x298E JUMP JUMPDEST SWAP4 POP PUSH2 0x2A23 DUP4 PUSH2 0x299F JUMP JUMPDEST DUP1 PUSH1 0x0 JUMPDEST DUP4 DUP2 LT ISZERO PUSH2 0x2A54 JUMPI DUP2 MLOAD PUSH2 0x2A3B DUP9 DUP3 PUSH2 0x29DE JUMP JUMPDEST SWAP8 POP PUSH2 0x2A46 DUP4 PUSH2 0x29F6 JUMP JUMPDEST SWAP3 POP POP PUSH1 0x1 DUP2 ADD SWAP1 POP PUSH2 0x2A27 JUMP JUMPDEST POP DUP6 SWAP4 POP POP POP POP SWAP3 SWAP2 POP POP JUMP JUMPDEST PUSH1 0x0 PUSH1 0xA0 DUP4 ADD PUSH1 0x0 DUP4 ADD MLOAD DUP5 DUP3 SUB PUSH1 0x0 DUP7 ADD MSTORE PUSH2 0x2A7E DUP3 DUP3 PUSH2 0x294A JUMP JUMPDEST SWAP2 POP POP PUSH1 0x20 DUP4 ADD MLOAD DUP5 DUP3 SUB PUSH1 0x20 DUP7 ADD MSTORE PUSH2 0x2A98 DUP3 DUP3 PUSH2 0x294A JUMP JUMPDEST SWAP2 POP POP PUSH1 0x40 DUP4 ADD MLOAD DUP5 DUP3 SUB PUSH1 0x40 DUP7 ADD MSTORE PUSH2 0x2AB2 DUP3 DUP3 PUSH2 0x2A03 JUMP JUMPDEST SWAP2 POP POP PUSH1 0x60 DUP4 ADD MLOAD PUSH2 0x2AC7 PUSH1 0x60 DUP7 ADD DUP3 PUSH2 0x2328 JUMP JUMPDEST POP PUSH1 0x80 DUP4 ADD MLOAD DUP5 DUP3 SUB PUSH1 0x80 DUP7 ADD MSTORE PUSH2 0x2ADF DUP3 DUP3 PUSH2 0x294A JUMP JUMPDEST SWAP2 POP POP DUP1 SWAP2 POP POP SWAP3 SWAP2 POP POP JUMP JUMPDEST PUSH1 0x0 PUSH1 0x40 DUP3 ADD SWAP1 POP PUSH2 0x2B01 PUSH1 0x0 DUP4 ADD DUP6 PUSH2 0x2898 JUMP JUMPDEST DUP2 DUP2 SUB PUSH1 0x20 DUP4 ADD MSTORE PUSH2 0x2B13 DUP2 DUP5 PUSH2 0x2A61 JUMP JUMPDEST SWAP1 POP SWAP4 SWAP3 POP POP POP JUMP JUMPDEST PUSH1 0x0 PUSH1 0x40 DUP3 ADD SWAP1 POP PUSH2 0x2B31 PUSH1 0x0 DUP4 ADD DUP6 PUSH2 0x1F48 JUMP JUMPDEST PUSH2 0x2B3E PUSH1 0x20 DUP4 ADD DUP5 PUSH2 0x1F48 JUMP JUMPDEST SWAP4 SWAP3 POP POP POP JUMP JUMPDEST PUSH1 0x0 DUP2 MLOAD SWAP1 POP PUSH2 0x2B54 DUP2 PUSH2 0x25A7 JUMP JUMPDEST SWAP3 SWAP2 POP POP JUMP JUMPDEST PUSH1 0x0 PUSH1 0x20 DUP3 DUP5 SUB SLT ISZERO PUSH2 0x2B70 JUMPI PUSH2 0x2B6F PUSH2 0x1C9A JUMP JUMPDEST JUMPDEST PUSH1 0x0 PUSH2 0x2B7E DUP5 DUP3 DUP6 ADD PUSH2 0x2B45 JUMP JUMPDEST SWAP2 POP POP SWAP3 SWAP2 POP POP JUMP JUMPDEST PUSH1 0x0 PUSH2 0x2B96 PUSH1 0x20 DUP5 ADD DUP5 PUSH2 0x1DA8 JUMP JUMPDEST SWAP1 POP SWAP3 SWAP2 POP POP JUMP JUMPDEST PUSH1 0x0 PUSH2 0x2BAD PUSH1 0x20 DUP5 ADD DUP5 PUSH2 0x1EB8 JUMP JUMPDEST SWAP1 POP SWAP3 SWAP2 POP POP JUMP JUMPDEST PUSH1 0x80 DUP3 ADD PUSH2 0x2BC6 PUSH1 0x0 DUP4 ADD DUP4 PUSH2 0x2B87 JUMP JUMPDEST PUSH2 0x2BD3 PUSH1 0x0 DUP6 ADD DUP3 PUSH2 0x2328 JUMP JUMPDEST POP PUSH2 0x2BE1 PUSH1 0x20 DUP4 ADD DUP4 PUSH2 0x2B87 JUMP JUMPDEST PUSH2 0x2BEE PUSH1 0x20 DUP6 ADD DUP3 PUSH2 0x2328 JUMP JUMPDEST POP PUSH2 0x2BFC PUSH1 0x40 DUP4 ADD DUP4 PUSH2 0x2B87 JUMP JUMPDEST PUSH2 0x2C09 PUSH1 0x40 DUP6 ADD DUP3 PUSH2 0x2328 JUMP JUMPDEST POP PUSH2 0x2C17 PUSH1 0x60 DUP4 ADD DUP4 PUSH2 0x2B9E JUMP JUMPDEST PUSH2 0x2C24 PUSH1 0x60 DUP6 ADD DUP3 PUSH2 0x2355 JUMP JUMPDEST POP POP POP POP JUMP JUMPDEST PUSH1 0x0 PUSH2 0x100 DUP3 ADD SWAP1 POP PUSH2 0x2C40 PUSH1 0x0 DUP4 ADD DUP9 PUSH2 0x1FDF JUMP JUMPDEST PUSH2 0x2C4D PUSH1 0x20 DUP4 ADD DUP8 PUSH2 0x2BB5 JUMP JUMPDEST PUSH2 0x2C5A PUSH1 0xA0 DUP4 ADD DUP7 PUSH2 0x1FDF JUMP JUMPDEST PUSH2 0x2C67 PUSH1 0xC0 DUP4 ADD DUP6 PUSH2 0x1F48 JUMP JUMPDEST PUSH2 0x2C74 PUSH1 0xE0 DUP4 ADD DUP5 PUSH2 0x1F48 JUMP JUMPDEST SWAP7 SWAP6 POP POP POP POP POP POP JUMP JUMPDEST PUSH32 0x4F6E6C792063616C6C61626C65206279206F776E657200000000000000000000 PUSH1 0x0 DUP3 ADD MSTORE POP JUMP JUMPDEST PUSH1 0x0 PUSH2 0x2CB4 PUSH1 0x16 DUP4 PUSH2 0x2494 JUMP JUMPDEST SWAP2 POP PUSH2 0x2CBF DUP3 PUSH2 0x2C7E JUMP JUMPDEST PUSH1 0x20 DUP3 ADD SWAP1 POP SWAP2 SWAP1 POP JUMP JUMPDEST PUSH1 0x0 PUSH1 0x20 DUP3 ADD SWAP1 POP DUP2 DUP2 SUB PUSH1 0x0 DUP4 ADD MSTORE PUSH2 0x2CE3 DUP2 PUSH2 0x2CA7 JUMP JUMPDEST SWAP1 POP SWAP2 SWAP1 POP JUMP JUMPDEST PUSH1 0x0 PUSH2 0x2CF5 DUP3 PUSH2 0x2904 JUMP JUMPDEST PUSH2 0x2CFF DUP2 DUP6 PUSH2 0x22AB JUMP JUMPDEST SWAP4 POP PUSH2 0x2D0F DUP2 DUP6 PUSH1 0x20 DUP7 ADD PUSH2 0x2920 JUMP JUMPDEST DUP1 DUP5 ADD SWAP2 POP POP SWAP3 SWAP2 POP POP JUMP JUMPDEST PUSH1 0x0 PUSH2 0x2D27 DUP3 DUP5 PUSH2 0x2CEA JUMP JUMPDEST SWAP2 POP DUP2 SWAP1 POP SWAP3 SWAP2 POP POP JUMP JUMPDEST PUSH32 0x5341000000000000000000000000000000000000000000000000000000000000 PUSH1 0x0 DUP3 ADD MSTORE POP JUMP JUMPDEST PUSH1 0x0 PUSH2 0x2D68 PUSH1 0x2 DUP4 PUSH2 0x2494 JUMP JUMPDEST SWAP2 POP PUSH2 0x2D73 DUP3 PUSH2 0x2D32 JUMP JUMPDEST PUSH1 0x20 DUP3 ADD SWAP1 POP SWAP2 SWAP1 POP JUMP JUMPDEST PUSH1 0x0 PUSH1 0x20 DUP3 ADD SWAP1 POP DUP2 DUP2 SUB PUSH1 0x0 DUP4 ADD MSTORE PUSH2 0x2D97 DUP2 PUSH2 0x2D5B JUMP JUMPDEST SWAP1 POP SWAP2 SWAP1 POP JUMP JUMPDEST PUSH32 0x5354000000000000000000000000000000000000000000000000000000000000 PUSH1 0x0 DUP3 ADD MSTORE POP JUMP JUMPDEST PUSH1 0x0 PUSH2 0x2DD4 PUSH1 0x2 DUP4 PUSH2 0x2494 JUMP JUMPDEST SWAP2 POP PUSH2 0x2DDF DUP3 PUSH2 0x2D9E JUMP JUMPDEST PUSH1 0x20 DUP3 ADD SWAP1 POP SWAP2 SWAP1 POP JUMP JUMPDEST PUSH1 0x0 PUSH1 0x20 DUP3 ADD SWAP1 POP DUP2 DUP2 SUB PUSH1 0x0 DUP4 ADD MSTORE PUSH2 0x2E03 DUP2 PUSH2 0x2DC7 JUMP JUMPDEST SWAP1 POP SWAP2 SWAP1 POP JUMP JUMPDEST PUSH1 0x0 PUSH2 0x2E15 DUP3 PUSH2 0x1D5F JUMP JUMPDEST SWAP1 POP SWAP2 SWAP1 POP JUMP JUMPDEST PUSH2 0x2E25 DUP2 PUSH2 0x2E0A JUMP JUMPDEST DUP2 EQ PUSH2 0x2E30 JUMPI PUSH1 0x0 DUP1 REVERT JUMPDEST POP JUMP JUMPDEST PUSH1 0x0 DUP2 MLOAD SWAP1 POP PUSH2 0x2E42 DUP2 PUSH2 0x2E1C JUMP JUMPDEST SWAP3 SWAP2 POP POP JUMP JUMPDEST PUSH1 0x0 PUSH1 0x20 DUP3 DUP5 SUB SLT ISZERO PUSH2 0x2E5E JUMPI PUSH2 0x2E5D PUSH2 0x1C9A JUMP JUMPDEST JUMPDEST PUSH1 0x0 PUSH2 0x2E6C DUP5 DUP3 DUP6 ADD PUSH2 0x2E33 JUMP JUMPDEST SWAP2 POP POP SWAP3 SWAP2 POP POP JUMP JUMPDEST PUSH1 0x0 PUSH1 0x80 DUP3 DUP5 SUB SLT ISZERO PUSH2 0x2E8B JUMPI PUSH2 0x2E8A PUSH2 0x2511 JUMP JUMPDEST JUMPDEST PUSH2 0x2E95 PUSH1 0x80 PUSH2 0x2587 JUMP JUMPDEST SWAP1 POP PUSH1 0x0 PUSH2 0x2EA5 DUP5 DUP3 DUP6 ADD PUSH2 0x28C2 JUMP JUMPDEST PUSH1 0x0 DUP4 ADD MSTORE POP PUSH1 0x20 PUSH2 0x2EB9 DUP5 DUP3 DUP6 ADD PUSH2 0x28C2 JUMP JUMPDEST PUSH1 0x20 DUP4 ADD MSTORE POP PUSH1 0x40 PUSH2 0x2ECD DUP5 DUP3 DUP6 ADD PUSH2 0x28C2 JUMP JUMPDEST PUSH1 0x40 DUP4 ADD MSTORE POP PUSH1 0x60 PUSH2 0x2EE1 DUP5 DUP3 DUP6 ADD PUSH2 0x21FE JUMP JUMPDEST PUSH1 0x60 DUP4 ADD MSTORE POP SWAP3 SWAP2 POP POP JUMP JUMPDEST PUSH1 0x0 PUSH1 0x80 DUP3 DUP5 SUB SLT ISZERO PUSH2 0x2F03 JUMPI PUSH2 0x2F02 PUSH2 0x1C9A JUMP JUMPDEST JUMPDEST PUSH1 0x0 PUSH2 0x2F11 DUP5 DUP3 DUP6 ADD PUSH2 0x2E75 JUMP JUMPDEST SWAP2 POP POP SWAP3 SWAP2 POP POP JUMP JUMPDEST PUSH32 0x4E487B7100000000000000000000000000000000000000000000000000000000 PUSH1 0x0 MSTORE PUSH1 0x32 PUSH1 0x4 MSTORE PUSH1 0x24 PUSH1 0x0 REVERT JUMPDEST PUSH1 0x0 PUSH1 0xA0 DUP3 ADD SWAP1 POP PUSH2 0x2F5E PUSH1 0x0 DUP4 ADD DUP9 PUSH2 0x1FDF JUMP JUMPDEST PUSH2 0x2F6B PUSH1 0x20 DUP4 ADD DUP8 PUSH2 0x1F48 JUMP JUMPDEST PUSH2 0x2F78 PUSH1 0x40 DUP4 ADD DUP7 PUSH2 0x1FDF JUMP JUMPDEST PUSH2 0x2F85 PUSH1 0x60 DUP4 ADD DUP6 PUSH2 0x1F48 JUMP JUMPDEST PUSH2 0x2F92 PUSH1 0x80 DUP4 ADD DUP5 PUSH2 0x1FDF JUMP JUMPDEST SWAP7 SWAP6 POP POP POP POP POP POP JUMP JUMPDEST PUSH1 0x0 PUSH2 0x2FA7 DUP3 PUSH2 0x20A1 JUMP JUMPDEST SWAP1 POP SWAP2 SWAP1 POP JUMP JUMPDEST PUSH2 0x2FB7 DUP2 PUSH2 0x2F9C JUMP JUMPDEST DUP3 MSTORE POP POP JUMP JUMPDEST PUSH1 0x80 DUP3 ADD PUSH1 0x0 DUP3 ADD MLOAD PUSH2 0x2FD3 PUSH1 0x0 DUP6 ADD DUP3 PUSH2 0x2328 JUMP JUMPDEST POP PUSH1 0x20 DUP3 ADD MLOAD PUSH2 0x2FE6 PUSH1 0x20 DUP6 ADD DUP3 PUSH2 0x2328 JUMP JUMPDEST POP PUSH1 0x40 DUP3 ADD MLOAD PUSH2 0x2FF9 PUSH1 0x40 DUP6 ADD DUP3 PUSH2 0x2328 JUMP JUMPDEST POP PUSH1 0x60 DUP3 ADD MLOAD PUSH2 0x300C PUSH1 0x60 DUP6 ADD DUP3 PUSH2 0x2355 JUMP JUMPDEST POP POP POP POP JUMP JUMPDEST PUSH1 0x0 PUSH1 0xE0 DUP3 ADD SWAP1 POP PUSH2 0x3027 PUSH1 0x0 DUP4 ADD DUP8 PUSH2 0x2FAE JUMP JUMPDEST PUSH2 0x3034 PUSH1 0x20 DUP4 ADD DUP7 PUSH2 0x2FBD JUMP JUMPDEST PUSH2 0x3041 PUSH1 0xA0 DUP4 ADD DUP6 PUSH2 0x1FDF JUMP JUMPDEST PUSH2 0x304E PUSH1 0xC0 DUP4 ADD DUP5 PUSH2 0x1F48 JUMP JUMPDEST SWAP6 SWAP5 POP POP POP POP POP JUMP JUMPDEST PUSH1 0x0 PUSH1 0x80 DUP3 ADD SWAP1 POP PUSH2 0x306C PUSH1 0x0 DUP4 ADD DUP5 PUSH2 0x2BB5 JUMP JUMPDEST SWAP3 SWAP2 POP POP JUMP JUMPDEST PUSH32 0x43616E6E6F74207472616E7366657220746F2073656C66000000000000000000 PUSH1 0x0 DUP3 ADD MSTORE POP JUMP JUMPDEST PUSH1 0x0 PUSH2 0x30A8 PUSH1 0x17 DUP4 PUSH2 0x2494 JUMP JUMPDEST SWAP2 POP PUSH2 0x30B3 DUP3 PUSH2 0x3072 JUMP JUMPDEST PUSH1 0x20 DUP3 ADD SWAP1 POP SWAP2 SWAP1 POP JUMP JUMPDEST PUSH1 0x0 PUSH1 0x20 DUP3 ADD SWAP1 POP DUP2 DUP2 SUB PUSH1 0x0 DUP4 ADD MSTORE PUSH2 0x30D7 DUP2 PUSH2 0x309B JUMP JUMPDEST SWAP1 POP SWAP2 SWAP1 POP JUMP JUMPDEST PUSH1 0x20 DUP3 ADD PUSH1 0x0 DUP3 ADD MLOAD PUSH2 0x30F4 PUSH1 0x0 DUP6 ADD DUP3 PUSH2 0x2355 JUMP JUMPDEST POP POP POP POP JUMP JUMPDEST PUSH1 0x0 PUSH1 0x20 DUP3 ADD SWAP1 POP PUSH2 0x310F PUSH1 0x0 DUP4 ADD DUP5 PUSH2 0x30DE JUMP JUMPDEST SWAP3 SWAP2 POP POP JUMP INVALID LOG2 PUSH5 0x6970667358 0x22 SLT KECCAK256 XOR SWAP3 JUMPI 0xEC PUSH28 0x5DD683107EE90109C320E33C54D713AE222DBAD44D8DD674FD45064 PUSH20 0x6F6C634300081300330000000000000000000000 "},"methodIdentifiers":{"acceptOwnership()":"79ba5097","allowlistDestinationChain(uint64,bool)":"96d3b83d","allowlistSender(address,bool)":"eab5b02c","allowlistSourceChain(uint64,bool)":"db04fa49","allowlistedDestinationChains(uint64)":"75c67c66","allowlistedSenders(address)":"6159ada1","allowlistedSourceChains(uint64)":"4030d521","ccipReceive((bytes32,uint64,bytes,bytes,(address,uint256)[]))":"85572ffb","getRouter()":"b0f479a1","owner()":"8da5cb5b","supportsInterface(bytes4)":"01ffc9a7","swapExactOutputSingle(address,uint256,address,uint256,address)":"5f299cbe","swapRouter()":"c31c9c07","transferOwnership(address)":"f2fde38b","transferToken(uint64,address,(address,address,address,uint256),address,uint256)":"d1ee0dd0","withdraw(address)":"51cff8d9","withdrawToken(address,address)":"3aeac4e1"}}}}}