{"contracts/ProgrammableTokenTransfer.sol":{"ProgrammableTokenTransfer":{"abi":[{"inputs":[{"internalType":"address","name":"_owner","type":"address"},{"internalType":"address","name":"_router","type":"address"},{"internalType":"address","name":"_swapRouter","type":"address"}],"stateMutability":"nonpayable","type":"constructor"},{"inputs":[{"internalType":"uint64","name":"destinationChainSelector","type":"uint64"}],"name":"DestinationChainNotAllowed","type":"error"},{"inputs":[{"internalType":"address","name":"owner","type":"address"},{"internalType":"address","name":"target","type":"address"},{"internalType":"uint256","name":"value","type":"uint256"}],"name":"FailedToWithdrawEth","type":"error"},{"inputs":[],"name":"InvalidBeneficiaryAddress","type":"error"},{"inputs":[],"name":"InvalidPayerAddress","type":"error"},{"inputs":[],"name":"InvalidReceiverAddress","type":"error"},{"inputs":[{"internalType":"address","name":"router","type":"address"}],"name":"InvalidRouter","type":"error"},{"inputs":[],"name":"InvalidTokenAddress","type":"error"},{"inputs":[],"name":"InvalidTransferAmount","type":"error"},{"inputs":[{"internalType":"uint256","name":"currentBalance","type":"uint256"},{"internalType":"uint256","name":"calculatedFees","type":"uint256"}],"name":"NotEnoughBalance","type":"error"},{"inputs":[],"name":"NothingToWithdraw","type":"error"},{"inputs":[{"internalType":"address","name":"owner","type":"address"}],"name":"OwnableInvalidOwner","type":"error"},{"inputs":[{"internalType":"address","name":"account","type":"address"}],"name":"OwnableUnauthorizedAccount","type":"error"},{"inputs":[{"internalType":"address","name":"sender","type":"address"}],"name":"SenderNotAllowed","type":"error"},{"inputs":[{"internalType":"uint64","name":"sourceChainSelector","type":"uint64"}],"name":"SourceChainNotAllowed","type":"error"},{"anonymous":false,"inputs":[{"indexed":true,"internalType":"bytes32","name":"messageId","type":"bytes32"},{"indexed":true,"internalType":"uint64","name":"sourceChainSelector","type":"uint64"},{"indexed":false,"internalType":"address","name":"sender","type":"address"},{"components":[{"internalType":"address","name":"payer","type":"address"},{"internalType":"address","name":"beneficiary","type":"address"},{"internalType":"address","name":"targetToken","type":"address"},{"internalType":"uint256","name":"targetAmount","type":"uint256"}],"indexed":false,"internalType":"struct ProgrammableTokenTransfer.TransferData","name":"data","type":"tuple"},{"indexed":false,"internalType":"address","name":"token","type":"address"},{"indexed":false,"internalType":"uint256","name":"tokenAmount","type":"uint256"}],"name":"MessageReceived","type":"event"},{"anonymous":false,"inputs":[{"indexed":true,"internalType":"bytes32","name":"messageId","type":"bytes32"},{"indexed":true,"internalType":"uint64","name":"destinationChainSelector","type":"uint64"},{"indexed":false,"internalType":"address","name":"receiver","type":"address"},{"components":[{"internalType":"address","name":"payer","type":"address"},{"internalType":"address","name":"beneficiary","type":"address"},{"internalType":"address","name":"targetToken","type":"address"},{"internalType":"uint256","name":"targetAmount","type":"uint256"}],"indexed":false,"internalType":"struct ProgrammableTokenTransfer.TransferData","name":"data","type":"tuple"},{"indexed":false,"internalType":"address","name":"token","type":"address"},{"indexed":false,"internalType":"uint256","name":"tokenAmount","type":"uint256"},{"indexed":false,"internalType":"uint256","name":"fees","type":"uint256"}],"name":"MessageSent","type":"event"},{"anonymous":false,"inputs":[{"indexed":true,"internalType":"address","name":"previousOwner","type":"address"},{"indexed":true,"internalType":"address","name":"newOwner","type":"address"}],"name":"OwnershipTransferred","type":"event"},{"inputs":[{"internalType":"uint64","name":"_destinationChainSelector","type":"uint64"},{"internalType":"bool","name":"allowed","type":"bool"}],"name":"allowlistDestinationChain","outputs":[],"stateMutability":"nonpayable","type":"function"},{"inputs":[{"internalType":"address","name":"_sender","type":"address"},{"internalType":"bool","name":"allowed","type":"bool"}],"name":"allowlistSender","outputs":[],"stateMutability":"nonpayable","type":"function"},{"inputs":[{"internalType":"uint64","name":"_sourceChainSelector","type":"uint64"},{"internalType":"bool","name":"allowed","type":"bool"}],"name":"allowlistSourceChain","outputs":[],"stateMutability":"nonpayable","type":"function"},{"inputs":[{"internalType":"uint64","name":"","type":"uint64"}],"name":"allowlistedDestinationChains","outputs":[{"internalType":"bool","name":"","type":"bool"}],"stateMutability":"view","type":"function"},{"inputs":[{"internalType":"address","name":"","type":"address"}],"name":"allowlistedSenders","outputs":[{"internalType":"bool","name":"","type":"bool"}],"stateMutability":"view","type":"function"},{"inputs":[{"internalType":"uint64","name":"","type":"uint64"}],"name":"allowlistedSourceChains","outputs":[{"internalType":"bool","name":"","type":"bool"}],"stateMutability":"view","type":"function"},{"inputs":[{"components":[{"internalType":"bytes32","name":"messageId","type":"bytes32"},{"internalType":"uint64","name":"sourceChainSelector","type":"uint64"},{"internalType":"bytes","name":"sender","type":"bytes"},{"internalType":"bytes","name":"data","type":"bytes"},{"components":[{"internalType":"address","name":"token","type":"address"},{"internalType":"uint256","name":"amount","type":"uint256"}],"internalType":"struct Client.EVMTokenAmount[]","name":"destTokenAmounts","type":"tuple[]"}],"internalType":"struct Client.Any2EVMMessage","name":"message","type":"tuple"}],"name":"ccipReceive","outputs":[],"stateMutability":"nonpayable","type":"function"},{"inputs":[],"name":"getRouter","outputs":[{"internalType":"address","name":"","type":"address"}],"stateMutability":"view","type":"function"},{"inputs":[],"name":"owner","outputs":[{"internalType":"address","name":"","type":"address"}],"stateMutability":"view","type":"function"},{"inputs":[],"name":"renounceOwnership","outputs":[],"stateMutability":"nonpayable","type":"function"},{"inputs":[{"internalType":"bytes4","name":"interfaceId","type":"bytes4"}],"name":"supportsInterface","outputs":[{"internalType":"bool","name":"","type":"bool"}],"stateMutability":"pure","type":"function"},{"inputs":[{"internalType":"address","name":"_sourceToken","type":"address"},{"internalType":"uint256","name":"_maxSourceAmount","type":"uint256"},{"internalType":"address","name":"_targetToken","type":"address"},{"internalType":"uint256","name":"_targetAmount","type":"uint256"},{"internalType":"address","name":"_beneficiary","type":"address"}],"name":"swapExactOutputSingle","outputs":[{"internalType":"uint256","name":"sourceAmount","type":"uint256"}],"stateMutability":"nonpayable","type":"function"},{"inputs":[],"name":"swapRouter","outputs":[{"internalType":"contract ISwapRouter","name":"","type":"address"}],"stateMutability":"view","type":"function"},{"inputs":[{"internalType":"address","name":"newOwner","type":"address"}],"name":"transferOwnership","outputs":[],"stateMutability":"nonpayable","type":"function"},{"inputs":[{"internalType":"uint64","name":"_destinationChainSelector","type":"uint64"},{"internalType":"address","name":"_receiver","type":"address"},{"components":[{"internalType":"address","name":"payer","type":"address"},{"internalType":"address","name":"beneficiary","type":"address"},{"internalType":"address","name":"targetToken","type":"address"},{"internalType":"uint256","name":"targetAmount","type":"uint256"}],"internalType":"struct ProgrammableTokenTransfer.TransferData","name":"_data","type":"tuple"},{"internalType":"address","name":"_token","type":"address"},{"internalType":"uint256","name":"_amount","type":"uint256"}],"name":"transferToken","outputs":[{"internalType":"bytes32","name":"messageId","type":"bytes32"}],"stateMutability":"nonpayable","type":"function"},{"inputs":[{"internalType":"address","name":"_beneficiary","type":"address"}],"name":"withdraw","outputs":[],"stateMutability":"nonpayable","type":"function"},{"inputs":[{"internalType":"address","name":"_beneficiary","type":"address"},{"internalType":"address","name":"_token","type":"address"}],"name":"withdrawToken","outputs":[],"stateMutability":"nonpayable","type":"function"},{"stateMutability":"payable","type":"receive"}],"evm":{"bytecode":{"linkReferences":{},"object":"60c060405234801561001057600080fd5b5060405161320d38038061320d833981810160405281019061003291906102c0565b8282600073ffffffffffffffffffffffffffffffffffffffff168173ffffffffffffffffffffffffffffffffffffffff16036100a65760006040517fd7f7333400000000000000000000000000000000000000000000000000000000815260040161009d9190610322565b60405180910390fd5b8073ffffffffffffffffffffffffffffffffffffffff1660808173ffffffffffffffffffffffffffffffffffffffff168152505050600073ffffffffffffffffffffffffffffffffffffffff168173ffffffffffffffffffffffffffffffffffffffff160361014d5760006040517f1e4fbdf70000000000000000000000000000000000000000000000000000000081526004016101449190610322565b60405180910390fd5b61015c8161019960201b60201c565b508073ffffffffffffffffffffffffffffffffffffffff1660a08173ffffffffffffffffffffffffffffffffffffffff168152505050505061033d565b60008060009054906101000a900473ffffffffffffffffffffffffffffffffffffffff169050816000806101000a81548173ffffffffffffffffffffffffffffffffffffffff021916908373ffffffffffffffffffffffffffffffffffffffff1602179055508173ffffffffffffffffffffffffffffffffffffffff168173ffffffffffffffffffffffffffffffffffffffff167f8be0079c531659141344cd1fd0a4f28419497f9722a3daafe3b4186f6b6457e060405160405180910390a35050565b600080fd5b600073ffffffffffffffffffffffffffffffffffffffff82169050919050565b600061028d82610262565b9050919050565b61029d81610282565b81146102a857600080fd5b50565b6000815190506102ba81610294565b92915050565b6000806000606084860312156102d9576102d861025d565b5b60006102e7868287016102ab565b93505060206102f8868287016102ab565b9250506040610309868287016102ab565b9150509250925092565b61031c81610282565b82525050565b60006020820190506103376000830184610313565b92915050565b60805160a051612e8f61037e6000396000818161076f01528181610833015281816108dd0152610abb01526000818161097a0152610a950152612e8f6000f3fe6080604052600436106101025760003560e01c806385572ffb11610095578063c31c9c0711610064578063c31c9c0714610350578063d1ee0dd01461037b578063db04fa49146103b8578063eab5b02c146103e1578063f2fde38b1461040a57610109565b806385572ffb146102a85780638da5cb5b146102d157806396d3b83d146102fc578063b0f479a11461032557610109565b80635f299cbe116100d15780635f299cbe146101da5780636159ada114610217578063715018a61461025457806375c67c661461026b57610109565b806301ffc9a71461010e5780633aeac4e11461014b5780634030d5211461017457806351cff8d9146101b157610109565b3661010957005b600080fd5b34801561011a57600080fd5b5061013560048036038101906101309190611b84565b610433565b6040516101429190611bcc565b60405180910390f35b34801561015757600080fd5b50610172600480360381019061016d9190611c45565b610505565b005b34801561018057600080fd5b5061019b60048036038101906101969190611cc5565b610649565b6040516101a89190611bcc565b60405180910390f35b3480156101bd57600080fd5b506101d860048036038101906101d39190611cf2565b610669565b005b3480156101e657600080fd5b5061020160048036038101906101fc9190611d55565b610767565b60405161020e9190611ddf565b60405180910390f35b34801561022357600080fd5b5061023e60048036038101906102399190611cf2565b610924565b60405161024b9190611bcc565b60405180910390f35b34801561026057600080fd5b50610269610944565b005b34801561027757600080fd5b50610292600480360381019061028d9190611cc5565b610958565b60405161029f9190611bcc565b60405180910390f35b3480156102b457600080fd5b506102cf60048036038101906102ca9190611e1e565b610978565b005b3480156102dd57600080fd5b506102e6610a1d565b6040516102f39190611e76565b60405180910390f35b34801561030857600080fd5b50610323600480360381019061031e9190611ebd565b610a46565b005b34801561033157600080fd5b5061033a610a91565b6040516103479190611e76565b60405180910390f35b34801561035c57600080fd5b50610365610ab9565b6040516103729190611f5c565b60405180910390f35b34801561038757600080fd5b506103a2600480360381019061039d9190611f96565b610add565b6040516103af919061202b565b60405180910390f35b3480156103c457600080fd5b506103df60048036038101906103da9190611ebd565b61105a565b005b3480156103ed57600080fd5b5061040860048036038101906104039190612046565b6110a5565b005b34801561041657600080fd5b50610431600480360381019061042c9190611cf2565b611108565b005b60007f85572ffb000000000000000000000000000000000000000000000000000000007bffffffffffffffffffffffffffffffffffffffffffffffffffffffff1916827bffffffffffffffffffffffffffffffffffffffffffffffffffffffff191614806104fe57507f01ffc9a7000000000000000000000000000000000000000000000000000000007bffffffffffffffffffffffffffffffffffffffffffffffffffffffff1916827bffffffffffffffffffffffffffffffffffffffffffffffffffffffff1916145b9050919050565b61050d61118e565b60008173ffffffffffffffffffffffffffffffffffffffff166370a08231306040518263ffffffff1660e01b81526004016105489190611e76565b602060405180830381865afa158015610565573d6000803e3d6000fd5b505050506040513d601f19601f82011682018060405250810190610589919061209b565b9050600081036105c5576040517fd0d04f6000000000000000000000000000000000000000000000000000000000815260040160405180910390fd5b8173ffffffffffffffffffffffffffffffffffffffff1663a9059cbb84836040518363ffffffff1660e01b81526004016106009291906120c8565b6020604051808303816000875af115801561061f573d6000803e3d6000fd5b505050506040513d601f19601f820116820180604052508101906106439190612106565b50505050565b60026020528060005260406000206000915054906101000a900460ff1681565b61067161118e565b6000479050600081036106b0576040517fd0d04f6000000000000000000000000000000000000000000000000000000000815260040160405180910390fd5b60008273ffffffffffffffffffffffffffffffffffffffff16826040516106d690612164565b60006040518083038185875af1925050503d8060008114610713576040519150601f19603f3d011682016040523d82523d6000602084013e610718565b606091505b5050905080610762573383836040517f9d11f56300000000000000000000000000000000000000000000000000000000815260040161075993929190612179565b60405180910390fd5b505050565b6000610794867f000000000000000000000000000000000000000000000000000000000000000087611215565b60006040518061010001604052808873ffffffffffffffffffffffffffffffffffffffff1681526020018673ffffffffffffffffffffffffffffffffffffffff168152602001600062ffffff1681526020018473ffffffffffffffffffffffffffffffffffffffff168152602001428152602001858152602001878152602001600073ffffffffffffffffffffffffffffffffffffffff1681525090507f000000000000000000000000000000000000000000000000000000000000000073ffffffffffffffffffffffffffffffffffffffff1663db3e2198826040518263ffffffff1660e01b815260040161088a919061229d565b6020604051808303816000875af11580156108a9573d6000803e3d6000fd5b505050506040513d601f19601f820116820180604052508101906108cd919061209b565b91508582101561091a57610903877f00000000000000000000000000000000000000000000000000000000000000006000611215565b6109198784848961091491906122e8565b61136a565b5b5095945050505050565b60036020528060005260406000206000915054906101000a900460ff1681565b61094c61118e565b61095660006114bf565b565b60016020528060005260406000206000915054906101000a900460ff1681565b7f000000000000000000000000000000000000000000000000000000000000000073ffffffffffffffffffffffffffffffffffffffff163373ffffffffffffffffffffffffffffffffffffffff1614610a0857336040517fd7f733340000000000000000000000000000000000000000000000000000000081526004016109ff9190611e76565b60405180910390fd5b610a1a81610a1590612690565b611583565b50565b60008060009054906101000a900473ffffffffffffffffffffffffffffffffffffffff16905090565b610a4e61118e565b80600160008467ffffffffffffffff1667ffffffffffffffff16815260200190815260200160002060006101000a81548160ff0219169083151502179055505050565b60007f0000000000000000000000000000000000000000000000000000000000000000905090565b7f000000000000000000000000000000000000000000000000000000000000000081565b6000610ae761118e565b85600160008267ffffffffffffffff1667ffffffffffffffff16815260200190815260200160002060009054906101000a900460ff16610b5e57806040517f206abad7000000000000000000000000000000000000000000000000000000008152600401610b5591906126b2565b60405180910390fd5b85600073ffffffffffffffffffffffffffffffffffffffff168173ffffffffffffffffffffffffffffffffffffffff1603610bc5576040517fa05ff47e00000000000000000000000000000000000000000000000000000000815260040160405180910390fd5b85600073ffffffffffffffffffffffffffffffffffffffff16816000016020810190610bf19190611cf2565b73ffffffffffffffffffffffffffffffffffffffff1603610c3e576040517f87ebed7100000000000000000000000000000000000000000000000000000000815260040160405180910390fd5b600073ffffffffffffffffffffffffffffffffffffffff16816020016020810190610c699190611cf2565b73ffffffffffffffffffffffffffffffffffffffff1603610cb6576040517fd343d98400000000000000000000000000000000000000000000000000000000815260040160405180910390fd5b600073ffffffffffffffffffffffffffffffffffffffff16816040016020810190610ce19190611cf2565b73ffffffffffffffffffffffffffffffffffffffff1603610d2e576040517f1eb00b0600000000000000000000000000000000000000000000000000000000815260040160405180910390fd5b866040016020810190610d419190611cf2565b73ffffffffffffffffffffffffffffffffffffffff168673ffffffffffffffffffffffffffffffffffffffff16148015610d7f575086606001358514155b15610db6576040517f3c5a808400000000000000000000000000000000000000000000000000000000815260040160405180910390fd5b6000610dc4898989896118d1565b905060003073ffffffffffffffffffffffffffffffffffffffff1663b0f479a16040518163ffffffff1660e01b8152600401602060405180830381865afa158015610e13573d6000803e3d6000fd5b505050506040513d601f19601f82011682018060405250810190610e3791906126e2565b905060008173ffffffffffffffffffffffffffffffffffffffff166320487ded8d856040518363ffffffff1660e01b8152600401610e769291906128f7565b602060405180830381865afa158015610e93573d6000803e3d6000fd5b505050506040513d601f19601f82011682018060405250810190610eb7919061209b565b905047811115610f005747816040517f8f0f4206000000000000000000000000000000000000000000000000000000008152600401610ef7929190612927565b60405180910390fd5b8873ffffffffffffffffffffffffffffffffffffffff1663095ea7b3838a6040518363ffffffff1660e01b8152600401610f3b9291906120c8565b6020604051808303816000875af1158015610f5a573d6000803e3d6000fd5b505050506040513d601f19601f82011682018060405250810190610f7e9190612106565b508173ffffffffffffffffffffffffffffffffffffffff166396f4e9f9828e866040518463ffffffff1660e01b8152600401610fbb9291906128f7565b60206040518083038185885af1158015610fd9573d6000803e3d6000fd5b50505050506040513d601f19601f82011682018060405250810190610ffe9190612965565b96508b67ffffffffffffffff16877f27cf2b4e28cecc12d1735413a6c08eb26b855bb1582d83637b301aee8555943f8d8d8d8d87604051611043959493929190612a35565b60405180910390a350505050505095945050505050565b61106261118e565b80600260008467ffffffffffffffff1667ffffffffffffffff16815260200190815260200160002060006101000a81548160ff0219169083151502179055505050565b6110ad61118e565b80600360008473ffffffffffffffffffffffffffffffffffffffff1673ffffffffffffffffffffffffffffffffffffffff16815260200190815260200160002060006101000a81548160ff0219169083151502179055505050565b61111061118e565b600073ffffffffffffffffffffffffffffffffffffffff168173ffffffffffffffffffffffffffffffffffffffff16036111825760006040517f1e4fbdf70000000000000000000000000000000000000000000000000000000081526004016111799190611e76565b60405180910390fd5b61118b816114bf565b50565b611196611a1c565b73ffffffffffffffffffffffffffffffffffffffff166111b4610a1d565b73ffffffffffffffffffffffffffffffffffffffff1614611213576111d7611a1c565b6040517f118cdaa700000000000000000000000000000000000000000000000000000000815260040161120a9190611e76565b60405180910390fd5b565b6000808473ffffffffffffffffffffffffffffffffffffffff1663095ea7b360e01b858560405160240161124a9291906120c8565b604051602081830303815290604052907bffffffffffffffffffffffffffffffffffffffffffffffffffffffff19166020820180517bffffffffffffffffffffffffffffffffffffffffffffffffffffffff83818316178352505050506040516112b49190612aba565b6000604051808303816000865af19150503d80600081146112f1576040519150601f19603f3d011682016040523d82523d6000602084013e6112f6565b606091505b509150915081801561132457506000815114806113235750808060200190518101906113229190612106565b5b5b611363576040517f08c379a000000000000000000000000000000000000000000000000000000000815260040161135a90612b2e565b60405180910390fd5b5050505050565b6000808473ffffffffffffffffffffffffffffffffffffffff1663a9059cbb60e01b858560405160240161139f9291906120c8565b604051602081830303815290604052907bffffffffffffffffffffffffffffffffffffffffffffffffffffffff19166020820180517bffffffffffffffffffffffffffffffffffffffffffffffffffffffff83818316178352505050506040516114099190612aba565b6000604051808303816000865af19150503d8060008114611446576040519150601f19603f3d011682016040523d82523d6000602084013e61144b565b606091505b509150915081801561147957506000815114806114785750808060200190518101906114779190612106565b5b5b6114b8576040517f08c379a00000000000000000000000000000000000000000000000000000000081526004016114af90612b9a565b60405180910390fd5b5050505050565b60008060009054906101000a900473ffffffffffffffffffffffffffffffffffffffff169050816000806101000a81548173ffffffffffffffffffffffffffffffffffffffff021916908373ffffffffffffffffffffffffffffffffffffffff1602179055508173ffffffffffffffffffffffffffffffffffffffff168173ffffffffffffffffffffffffffffffffffffffff167f8be0079c531659141344cd1fd0a4f28419497f9722a3daafe3b4186f6b6457e060405160405180910390a35050565b806020015181604001518060200190518101906115a09190612bf8565b600260008367ffffffffffffffff1667ffffffffffffffff16815260200190815260200160002060009054906101000a900460ff1661161657816040517f213c267800000000000000000000000000000000000000000000000000000000815260040161160d91906126b2565b60405180910390fd5b600360008273ffffffffffffffffffffffffffffffffffffffff1673ffffffffffffffffffffffffffffffffffffffff16815260200190815260200160002060009054906101000a900460ff166116a457806040517fd0d2597600000000000000000000000000000000000000000000000000000000815260040161169b9190611e76565b60405180910390fd5b600083606001518060200190518101906116be9190612c9d565b9050600084608001516000815181106116da576116d9612cca565b5b60200260200101516000015190506000856080015160008151811061170257611701612cca565b5b60200260200101516020015190508173ffffffffffffffffffffffffffffffffffffffff16836040015173ffffffffffffffffffffffffffffffffffffffff16036117cf578173ffffffffffffffffffffffffffffffffffffffff1663a9059cbb8460200151836040518363ffffffff1660e01b81526004016117869291906120c8565b6020604051808303816000875af11580156117a5573d6000803e3d6000fd5b505050506040513d601f19601f820116820180604052508101906117c99190612106565b50611861565b3073ffffffffffffffffffffffffffffffffffffffff16635f299cbe83838660400151876060015188602001516040518663ffffffff1660e01b815260040161181c959493929190612cf9565b6020604051808303816000875af115801561183b573d6000803e3d6000fd5b505050506040513d601f19601f8201168201806040525081019061185f919061209b565b505b856020015167ffffffffffffffff1686600001517f599c623eef336d2101cfeb7a6e55c2e8aa98ae12831c9a86fcb31f5650401f0388604001518060200190518101906118ae9190612bf8565b8686866040516118c19493929190612dc2565b60405180910390a3505050505050565b6118d9611aa3565b6000600167ffffffffffffffff8111156118f6576118f5612332565b5b60405190808252806020026020018201604052801561192f57816020015b61191c611ae8565b8152602001906001900390816119145790505b50905060405180604001604052808573ffffffffffffffffffffffffffffffffffffffff168152602001848152508160008151811061197157611970612cca565b5b60200260200101819052506040518060a00160405280876040516020016119989190611e76565b6040516020818303038152906040528152602001866040516020016119bd9190612e07565b6040516020818303038152906040528152602001828152602001600073ffffffffffffffffffffffffffffffffffffffff168152602001611a0e604051806020016040528062030d40815250611a24565b815250915050949350505050565b600033905090565b60606397a657c960e01b82604051602401611a3f9190612e3e565b604051602081830303815290604052907bffffffffffffffffffffffffffffffffffffffffffffffffffffffff19166020820180517bffffffffffffffffffffffffffffffffffffffffffffffffffffffff83818316178352505050509050919050565b6040518060a00160405280606081526020016060815260200160608152602001600073ffffffffffffffffffffffffffffffffffffffff168152602001606081525090565b6040518060400160405280600073ffffffffffffffffffffffffffffffffffffffff168152602001600081525090565b6000604051905090565b600080fd5b600080fd5b60007fffffffff0000000000000000000000000000000000000000000000000000000082169050919050565b611b6181611b2c565b8114611b6c57600080fd5b50565b600081359050611b7e81611b58565b92915050565b600060208284031215611b9a57611b99611b22565b5b6000611ba884828501611b6f565b91505092915050565b60008115159050919050565b611bc681611bb1565b82525050565b6000602082019050611be16000830184611bbd565b92915050565b600073ffffffffffffffffffffffffffffffffffffffff82169050919050565b6000611c1282611be7565b9050919050565b611c2281611c07565b8114611c2d57600080fd5b50565b600081359050611c3f81611c19565b92915050565b60008060408385031215611c5c57611c5b611b22565b5b6000611c6a85828601611c30565b9250506020611c7b85828601611c30565b9150509250929050565b600067ffffffffffffffff82169050919050565b611ca281611c85565b8114611cad57600080fd5b50565b600081359050611cbf81611c99565b92915050565b600060208284031215611cdb57611cda611b22565b5b6000611ce984828501611cb0565b91505092915050565b600060208284031215611d0857611d07611b22565b5b6000611d1684828501611c30565b91505092915050565b6000819050919050565b611d3281611d1f565b8114611d3d57600080fd5b50565b600081359050611d4f81611d29565b92915050565b600080600080600060a08688031215611d7157611d70611b22565b5b6000611d7f88828901611c30565b9550506020611d9088828901611d40565b9450506040611da188828901611c30565b9350506060611db288828901611d40565b9250506080611dc388828901611c30565b9150509295509295909350565b611dd981611d1f565b82525050565b6000602082019050611df46000830184611dd0565b92915050565b600080fd5b600060a08284031215611e1557611e14611dfa565b5b81905092915050565b600060208284031215611e3457611e33611b22565b5b600082013567ffffffffffffffff811115611e5257611e51611b27565b5b611e5e84828501611dff565b91505092915050565b611e7081611c07565b82525050565b6000602082019050611e8b6000830184611e67565b92915050565b611e9a81611bb1565b8114611ea557600080fd5b50565b600081359050611eb781611e91565b92915050565b60008060408385031215611ed457611ed3611b22565b5b6000611ee285828601611cb0565b9250506020611ef385828601611ea8565b9150509250929050565b6000819050919050565b6000611f22611f1d611f1884611be7565b611efd565b611be7565b9050919050565b6000611f3482611f07565b9050919050565b6000611f4682611f29565b9050919050565b611f5681611f3b565b82525050565b6000602082019050611f716000830184611f4d565b92915050565b600060808284031215611f8d57611f8c611dfa565b5b81905092915050565b60008060008060006101008688031215611fb357611fb2611b22565b5b6000611fc188828901611cb0565b9550506020611fd288828901611c30565b9450506040611fe388828901611f77565b93505060c0611ff488828901611c30565b92505060e061200588828901611d40565b9150509295509295909350565b6000819050919050565b61202581612012565b82525050565b6000602082019050612040600083018461201c565b92915050565b6000806040838503121561205d5761205c611b22565b5b600061206b85828601611c30565b925050602061207c85828601611ea8565b9150509250929050565b60008151905061209581611d29565b92915050565b6000602082840312156120b1576120b0611b22565b5b60006120bf84828501612086565b91505092915050565b60006040820190506120dd6000830185611e67565b6120ea6020830184611dd0565b9392505050565b60008151905061210081611e91565b92915050565b60006020828403121561211c5761211b611b22565b5b600061212a848285016120f1565b91505092915050565b600081905092915050565b50565b600061214e600083612133565b91506121598261213e565b600082019050919050565b600061216f82612141565b9150819050919050565b600060608201905061218e6000830186611e67565b61219b6020830185611e67565b6121a86040830184611dd0565b949350505050565b6121b981611c07565b82525050565b600062ffffff82169050919050565b6121d7816121bf565b82525050565b6121e681611d1f565b82525050565b6121f581611be7565b82525050565b6101008201600082015161221260008501826121b0565b50602082015161222560208501826121b0565b50604082015161223860408501826121ce565b50606082015161224b60608501826121b0565b50608082015161225e60808501826121dd565b5060a082015161227160a08501826121dd565b5060c082015161228460c08501826121dd565b5060e082015161229760e08501826121ec565b50505050565b6000610100820190506122b360008301846121fb565b92915050565b7f4e487b7100000000000000000000000000000000000000000000000000000000600052601160045260246000fd5b60006122f382611d1f565b91506122fe83611d1f565b9250828203905081811115612316576123156122b9565b5b92915050565b600080fd5b6000601f19601f8301169050919050565b7f4e487b7100000000000000000000000000000000000000000000000000000000600052604160045260246000fd5b61236a82612321565b810181811067ffffffffffffffff8211171561238957612388612332565b5b80604052505050565b600061239c611b18565b90506123a88282612361565b919050565b600080fd5b6123bb81612012565b81146123c657600080fd5b50565b6000813590506123d8816123b2565b92915050565b600080fd5b600080fd5b600067ffffffffffffffff82111561240357612402612332565b5b61240c82612321565b9050602081019050919050565b82818337600083830152505050565b600061243b612436846123e8565b612392565b905082815260208101848484011115612457576124566123e3565b5b612462848285612419565b509392505050565b600082601f83011261247f5761247e6123de565b5b813561248f848260208601612428565b91505092915050565b600067ffffffffffffffff8211156124b3576124b2612332565b5b602082029050602081019050919050565b600080fd5b6000604082840312156124df576124de61231c565b5b6124e96040612392565b905060006124f984828501611c30565b600083015250602061250d84828501611d40565b60208301525092915050565b600061252c61252784612498565b612392565b9050808382526020820190506040840283018581111561254f5761254e6124c4565b5b835b81811015612578578061256488826124c9565b845260208401935050604081019050612551565b5050509392505050565b600082601f830112612597576125966123de565b5b81356125a7848260208601612519565b91505092915050565b600060a082840312156125c6576125c561231c565b5b6125d060a0612392565b905060006125e0848285016123c9565b60008301525060206125f484828501611cb0565b602083015250604082013567ffffffffffffffff811115612618576126176123ad565b5b6126248482850161246a565b604083015250606082013567ffffffffffffffff811115612648576126476123ad565b5b6126548482850161246a565b606083015250608082013567ffffffffffffffff811115612678576126776123ad565b5b61268484828501612582565b60808301525092915050565b600061269c36836125b0565b9050919050565b6126ac81611c85565b82525050565b60006020820190506126c760008301846126a3565b92915050565b6000815190506126dc81611c19565b92915050565b6000602082840312156126f8576126f7611b22565b5b6000612706848285016126cd565b91505092915050565b600081519050919050565b600082825260208201905092915050565b60005b8381101561274957808201518184015260208101905061272e565b60008484015250505050565b60006127608261270f565b61276a818561271a565b935061277a81856020860161272b565b61278381612321565b840191505092915050565b600081519050919050565b600082825260208201905092915050565b6000819050602082019050919050565b6040820160008201516127d060008501826121b0565b5060208201516127e360208501826121dd565b50505050565b60006127f583836127ba565b60408301905092915050565b6000602082019050919050565b60006128198261278e565b6128238185612799565b935061282e836127aa565b8060005b8381101561285f57815161284688826127e9565b975061285183612801565b925050600181019050612832565b5085935050505092915050565b600060a08301600083015184820360008601526128898282612755565b915050602083015184820360208601526128a38282612755565b915050604083015184820360408601526128bd828261280e565b91505060608301516128d260608601826121b0565b50608083015184820360808601526128ea8282612755565b9150508091505092915050565b600060408201905061290c60008301856126a3565b818103602083015261291e818461286c565b90509392505050565b600060408201905061293c6000830185611dd0565b6129496020830184611dd0565b9392505050565b60008151905061295f816123b2565b92915050565b60006020828403121561297b5761297a611b22565b5b600061298984828501612950565b91505092915050565b60006129a16020840184611c30565b905092915050565b60006129b86020840184611d40565b905092915050565b608082016129d16000830183612992565b6129de60008501826121b0565b506129ec6020830183612992565b6129f960208501826121b0565b50612a076040830183612992565b612a1460408501826121b0565b50612a2260608301836129a9565b612a2f60608501826121dd565b50505050565b600061010082019050612a4b6000830188611e67565b612a5860208301876129c0565b612a6560a0830186611e67565b612a7260c0830185611dd0565b612a7f60e0830184611dd0565b9695505050505050565b6000612a948261270f565b612a9e8185612133565b9350612aae81856020860161272b565b80840191505092915050565b6000612ac68284612a89565b915081905092915050565b600082825260208201905092915050565b7f5341000000000000000000000000000000000000000000000000000000000000600082015250565b6000612b18600283612ad1565b9150612b2382612ae2565b602082019050919050565b60006020820190508181036000830152612b4781612b0b565b9050919050565b7f5354000000000000000000000000000000000000000000000000000000000000600082015250565b6000612b84600283612ad1565b9150612b8f82612b4e565b602082019050919050565b60006020820190508181036000830152612bb381612b77565b9050919050565b6000612bc582611be7565b9050919050565b612bd581612bba565b8114612be057600080fd5b50565b600081519050612bf281612bcc565b92915050565b600060208284031215612c0e57612c0d611b22565b5b6000612c1c84828501612be3565b91505092915050565b600060808284031215612c3b57612c3a61231c565b5b612c456080612392565b90506000612c55848285016126cd565b6000830152506020612c69848285016126cd565b6020830152506040612c7d848285016126cd565b6040830152506060612c9184828501612086565b60608301525092915050565b600060808284031215612cb357612cb2611b22565b5b6000612cc184828501612c25565b91505092915050565b7f4e487b7100000000000000000000000000000000000000000000000000000000600052603260045260246000fd5b600060a082019050612d0e6000830188611e67565b612d1b6020830187611dd0565b612d286040830186611e67565b612d356060830185611dd0565b612d426080830184611e67565b9695505050505050565b6000612d5782611f29565b9050919050565b612d6781612d4c565b82525050565b608082016000820151612d8360008501826121b0565b506020820151612d9660208501826121b0565b506040820151612da960408501826121b0565b506060820151612dbc60608501826121dd565b50505050565b600060e082019050612dd76000830187612d5e565b612de46020830186612d6d565b612df160a0830185611e67565b612dfe60c0830184611dd0565b95945050505050565b6000608082019050612e1c60008301846129c0565b92915050565b602082016000820151612e3860008501826121dd565b50505050565b6000602082019050612e536000830184612e22565b9291505056fea264697066735822122061b29098b88361f6bda67b176ca5db6a5367991a41ae0ab7806aa30f9e14224364736f6c63430008190033","opcodes":"PUSH1 0xC0 PUSH1 0x40 MSTORE CALLVALUE DUP1 ISZERO PUSH2 0x10 JUMPI PUSH1 0x0 DUP1 REVERT JUMPDEST POP PUSH1 0x40 MLOAD PUSH2 0x320D CODESIZE SUB DUP1 PUSH2 0x320D DUP4 CODECOPY DUP2 DUP2 ADD PUSH1 0x40 MSTORE DUP2 ADD SWAP1 PUSH2 0x32 SWAP2 SWAP1 PUSH2 0x2C0 JUMP JUMPDEST DUP3 DUP3 PUSH1 0x0 PUSH20 0xFFFFFFFFFFFFFFFFFFFFFFFFFFFFFFFFFFFFFFFF AND DUP2 PUSH20 0xFFFFFFFFFFFFFFFFFFFFFFFFFFFFFFFFFFFFFFFF AND SUB PUSH2 0xA6 JUMPI PUSH1 0x0 PUSH1 0x40 MLOAD PUSH32 0xD7F7333400000000000000000000000000000000000000000000000000000000 DUP2 MSTORE PUSH1 0x4 ADD PUSH2 0x9D SWAP2 SWAP1 PUSH2 0x322 JUMP JUMPDEST PUSH1 0x40 MLOAD DUP1 SWAP2 SUB SWAP1 REVERT JUMPDEST DUP1 PUSH20 0xFFFFFFFFFFFFFFFFFFFFFFFFFFFFFFFFFFFFFFFF AND PUSH1 0x80 DUP2 PUSH20 0xFFFFFFFFFFFFFFFFFFFFFFFFFFFFFFFFFFFFFFFF AND DUP2 MSTORE POP POP POP PUSH1 0x0 PUSH20 0xFFFFFFFFFFFFFFFFFFFFFFFFFFFFFFFFFFFFFFFF AND DUP2 PUSH20 0xFFFFFFFFFFFFFFFFFFFFFFFFFFFFFFFFFFFFFFFF AND SUB PUSH2 0x14D JUMPI PUSH1 0x0 PUSH1 0x40 MLOAD PUSH32 0x1E4FBDF700000000000000000000000000000000000000000000000000000000 DUP2 MSTORE PUSH1 0x4 ADD PUSH2 0x144 SWAP2 SWAP1 PUSH2 0x322 JUMP JUMPDEST PUSH1 0x40 MLOAD DUP1 SWAP2 SUB SWAP1 REVERT JUMPDEST PUSH2 0x15C DUP2 PUSH2 0x199 PUSH1 0x20 SHL PUSH1 0x20 SHR JUMP JUMPDEST POP DUP1 PUSH20 0xFFFFFFFFFFFFFFFFFFFFFFFFFFFFFFFFFFFFFFFF AND PUSH1 0xA0 DUP2 PUSH20 0xFFFFFFFFFFFFFFFFFFFFFFFFFFFFFFFFFFFFFFFF AND DUP2 MSTORE POP POP POP POP POP PUSH2 0x33D JUMP JUMPDEST PUSH1 0x0 DUP1 PUSH1 0x0 SWAP1 SLOAD SWAP1 PUSH2 0x100 EXP SWAP1 DIV PUSH20 0xFFFFFFFFFFFFFFFFFFFFFFFFFFFFFFFFFFFFFFFF AND SWAP1 POP DUP2 PUSH1 0x0 DUP1 PUSH2 0x100 EXP DUP2 SLOAD DUP2 PUSH20 0xFFFFFFFFFFFFFFFFFFFFFFFFFFFFFFFFFFFFFFFF MUL NOT AND SWAP1 DUP4 PUSH20 0xFFFFFFFFFFFFFFFFFFFFFFFFFFFFFFFFFFFFFFFF AND MUL OR SWAP1 SSTORE POP DUP2 PUSH20 0xFFFFFFFFFFFFFFFFFFFFFFFFFFFFFFFFFFFFFFFF AND DUP2 PUSH20 0xFFFFFFFFFFFFFFFFFFFFFFFFFFFFFFFFFFFFFFFF AND PUSH32 0x8BE0079C531659141344CD1FD0A4F28419497F9722A3DAAFE3B4186F6B6457E0 PUSH1 0x40 MLOAD PUSH1 0x40 MLOAD DUP1 SWAP2 SUB SWAP1 LOG3 POP POP JUMP JUMPDEST PUSH1 0x0 DUP1 REVERT JUMPDEST PUSH1 0x0 PUSH20 0xFFFFFFFFFFFFFFFFFFFFFFFFFFFFFFFFFFFFFFFF DUP3 AND SWAP1 POP SWAP2 SWAP1 POP JUMP JUMPDEST PUSH1 0x0 PUSH2 0x28D DUP3 PUSH2 0x262 JUMP JUMPDEST SWAP1 POP SWAP2 SWAP1 POP JUMP JUMPDEST PUSH2 0x29D DUP2 PUSH2 0x282 JUMP JUMPDEST DUP2 EQ PUSH2 0x2A8 JUMPI PUSH1 0x0 DUP1 REVERT JUMPDEST POP JUMP JUMPDEST PUSH1 0x0 DUP2 MLOAD SWAP1 POP PUSH2 0x2BA DUP2 PUSH2 0x294 JUMP JUMPDEST SWAP3 SWAP2 POP POP JUMP JUMPDEST PUSH1 0x0 DUP1 PUSH1 0x0 PUSH1 0x60 DUP5 DUP7 SUB SLT ISZERO PUSH2 0x2D9 JUMPI PUSH2 0x2D8 PUSH2 0x25D JUMP JUMPDEST JUMPDEST PUSH1 0x0 PUSH2 0x2E7 DUP7 DUP3 DUP8 ADD PUSH2 0x2AB JUMP JUMPDEST SWAP4 POP POP PUSH1 0x20 PUSH2 0x2F8 DUP7 DUP3 DUP8 ADD PUSH2 0x2AB JUMP JUMPDEST SWAP3 POP POP PUSH1 0x40 PUSH2 0x309 DUP7 DUP3 DUP8 ADD PUSH2 0x2AB JUMP JUMPDEST SWAP2 POP POP SWAP3 POP SWAP3 POP SWAP3 JUMP JUMPDEST PUSH2 0x31C DUP2 PUSH2 0x282 JUMP JUMPDEST DUP3 MSTORE POP POP JUMP JUMPDEST PUSH1 0x0 PUSH1 0x20 DUP3 ADD SWAP1 POP PUSH2 0x337 PUSH1 0x0 DUP4 ADD DUP5 PUSH2 0x313 JUMP JUMPDEST SWAP3 SWAP2 POP POP JUMP JUMPDEST PUSH1 0x80 MLOAD PUSH1 0xA0 MLOAD PUSH2 0x2E8F PUSH2 0x37E PUSH1 0x0 CODECOPY PUSH1 0x0 DUP2 DUP2 PUSH2 0x76F ADD MSTORE DUP2 DUP2 PUSH2 0x833 ADD MSTORE DUP2 DUP2 PUSH2 0x8DD ADD MSTORE PUSH2 0xABB ADD MSTORE PUSH1 0x0 DUP2 DUP2 PUSH2 0x97A ADD MSTORE PUSH2 0xA95 ADD MSTORE PUSH2 0x2E8F PUSH1 0x0 RETURN INVALID PUSH1 0x80 PUSH1 0x40 MSTORE PUSH1 0x4 CALLDATASIZE LT PUSH2 0x102 JUMPI PUSH1 0x0 CALLDATALOAD PUSH1 0xE0 SHR DUP1 PUSH4 0x85572FFB GT PUSH2 0x95 JUMPI DUP1 PUSH4 0xC31C9C07 GT PUSH2 0x64 JUMPI DUP1 PUSH4 0xC31C9C07 EQ PUSH2 0x350 JUMPI DUP1 PUSH4 0xD1EE0DD0 EQ PUSH2 0x37B JUMPI DUP1 PUSH4 0xDB04FA49 EQ PUSH2 0x3B8 JUMPI DUP1 PUSH4 0xEAB5B02C EQ PUSH2 0x3E1 JUMPI DUP1 PUSH4 0xF2FDE38B EQ PUSH2 0x40A JUMPI PUSH2 0x109 JUMP JUMPDEST DUP1 PUSH4 0x85572FFB EQ PUSH2 0x2A8 JUMPI DUP1 PUSH4 0x8DA5CB5B EQ PUSH2 0x2D1 JUMPI DUP1 PUSH4 0x96D3B83D EQ PUSH2 0x2FC JUMPI DUP1 PUSH4 0xB0F479A1 EQ PUSH2 0x325 JUMPI PUSH2 0x109 JUMP JUMPDEST DUP1 PUSH4 0x5F299CBE GT PUSH2 0xD1 JUMPI DUP1 PUSH4 0x5F299CBE EQ PUSH2 0x1DA JUMPI DUP1 PUSH4 0x6159ADA1 EQ PUSH2 0x217 JUMPI DUP1 PUSH4 0x715018A6 EQ PUSH2 0x254 JUMPI DUP1 PUSH4 0x75C67C66 EQ PUSH2 0x26B JUMPI PUSH2 0x109 JUMP JUMPDEST DUP1 PUSH4 0x1FFC9A7 EQ PUSH2 0x10E JUMPI DUP1 PUSH4 0x3AEAC4E1 EQ PUSH2 0x14B JUMPI DUP1 PUSH4 0x4030D521 EQ PUSH2 0x174 JUMPI DUP1 PUSH4 0x51CFF8D9 EQ PUSH2 0x1B1 JUMPI PUSH2 0x109 JUMP JUMPDEST CALLDATASIZE PUSH2 0x109 JUMPI STOP JUMPDEST PUSH1 0x0 DUP1 REVERT JUMPDEST CALLVALUE DUP1 ISZERO PUSH2 0x11A JUMPI PUSH1 0x0 DUP1 REVERT JUMPDEST POP PUSH2 0x135 PUSH1 0x4 DUP1 CALLDATASIZE SUB DUP2 ADD SWAP1 PUSH2 0x130 SWAP2 SWAP1 PUSH2 0x1B84 JUMP JUMPDEST PUSH2 0x433 JUMP JUMPDEST PUSH1 0x40 MLOAD PUSH2 0x142 SWAP2 SWAP1 PUSH2 0x1BCC JUMP JUMPDEST PUSH1 0x40 MLOAD DUP1 SWAP2 SUB SWAP1 RETURN JUMPDEST CALLVALUE DUP1 ISZERO PUSH2 0x157 JUMPI PUSH1 0x0 DUP1 REVERT JUMPDEST POP PUSH2 0x172 PUSH1 0x4 DUP1 CALLDATASIZE SUB DUP2 ADD SWAP1 PUSH2 0x16D SWAP2 SWAP1 PUSH2 0x1C45 JUMP JUMPDEST PUSH2 0x505 JUMP JUMPDEST STOP JUMPDEST CALLVALUE DUP1 ISZERO PUSH2 0x180 JUMPI PUSH1 0x0 DUP1 REVERT JUMPDEST POP PUSH2 0x19B PUSH1 0x4 DUP1 CALLDATASIZE SUB DUP2 ADD SWAP1 PUSH2 0x196 SWAP2 SWAP1 PUSH2 0x1CC5 JUMP JUMPDEST PUSH2 0x649 JUMP JUMPDEST PUSH1 0x40 MLOAD PUSH2 0x1A8 SWAP2 SWAP1 PUSH2 0x1BCC JUMP JUMPDEST PUSH1 0x40 MLOAD DUP1 SWAP2 SUB SWAP1 RETURN JUMPDEST CALLVALUE DUP1 ISZERO PUSH2 0x1BD JUMPI PUSH1 0x0 DUP1 REVERT JUMPDEST POP PUSH2 0x1D8 PUSH1 0x4 DUP1 CALLDATASIZE SUB DUP2 ADD SWAP1 PUSH2 0x1D3 SWAP2 SWAP1 PUSH2 0x1CF2 JUMP JUMPDEST PUSH2 0x669 JUMP JUMPDEST STOP JUMPDEST CALLVALUE DUP1 ISZERO PUSH2 0x1E6 JUMPI PUSH1 0x0 DUP1 REVERT JUMPDEST POP PUSH2 0x201 PUSH1 0x4 DUP1 CALLDATASIZE SUB DUP2 ADD SWAP1 PUSH2 0x1FC SWAP2 SWAP1 PUSH2 0x1D55 JUMP JUMPDEST PUSH2 0x767 JUMP JUMPDEST PUSH1 0x40 MLOAD PUSH2 0x20E SWAP2 SWAP1 PUSH2 0x1DDF JUMP JUMPDEST PUSH1 0x40 MLOAD DUP1 SWAP2 SUB SWAP1 RETURN JUMPDEST CALLVALUE DUP1 ISZERO PUSH2 0x223 JUMPI PUSH1 0x0 DUP1 REVERT JUMPDEST POP PUSH2 0x23E PUSH1 0x4 DUP1 CALLDATASIZE SUB DUP2 ADD SWAP1 PUSH2 0x239 SWAP2 SWAP1 PUSH2 0x1CF2 JUMP JUMPDEST PUSH2 0x924 JUMP JUMPDEST PUSH1 0x40 MLOAD PUSH2 0x24B SWAP2 SWAP1 PUSH2 0x1BCC JUMP JUMPDEST PUSH1 0x40 MLOAD DUP1 SWAP2 SUB SWAP1 RETURN JUMPDEST CALLVALUE DUP1 ISZERO PUSH2 0x260 JUMPI PUSH1 0x0 DUP1 REVERT JUMPDEST POP PUSH2 0x269 PUSH2 0x944 JUMP JUMPDEST STOP JUMPDEST CALLVALUE DUP1 ISZERO PUSH2 0x277 JUMPI PUSH1 0x0 DUP1 REVERT JUMPDEST POP PUSH2 0x292 PUSH1 0x4 DUP1 CALLDATASIZE SUB DUP2 ADD SWAP1 PUSH2 0x28D SWAP2 SWAP1 PUSH2 0x1CC5 JUMP JUMPDEST PUSH2 0x958 JUMP JUMPDEST PUSH1 0x40 MLOAD PUSH2 0x29F SWAP2 SWAP1 PUSH2 0x1BCC JUMP JUMPDEST PUSH1 0x40 MLOAD DUP1 SWAP2 SUB SWAP1 RETURN JUMPDEST CALLVALUE DUP1 ISZERO PUSH2 0x2B4 JUMPI PUSH1 0x0 DUP1 REVERT JUMPDEST POP PUSH2 0x2CF PUSH1 0x4 DUP1 CALLDATASIZE SUB DUP2 ADD SWAP1 PUSH2 0x2CA SWAP2 SWAP1 PUSH2 0x1E1E JUMP JUMPDEST PUSH2 0x978 JUMP JUMPDEST STOP JUMPDEST CALLVALUE DUP1 ISZERO PUSH2 0x2DD JUMPI PUSH1 0x0 DUP1 REVERT JUMPDEST POP PUSH2 0x2E6 PUSH2 0xA1D JUMP JUMPDEST PUSH1 0x40 MLOAD PUSH2 0x2F3 SWAP2 SWAP1 PUSH2 0x1E76 JUMP JUMPDEST PUSH1 0x40 MLOAD DUP1 SWAP2 SUB SWAP1 RETURN JUMPDEST CALLVALUE DUP1 ISZERO PUSH2 0x308 JUMPI PUSH1 0x0 DUP1 REVERT JUMPDEST POP PUSH2 0x323 PUSH1 0x4 DUP1 CALLDATASIZE SUB DUP2 ADD SWAP1 PUSH2 0x31E SWAP2 SWAP1 PUSH2 0x1EBD JUMP JUMPDEST PUSH2 0xA46 JUMP JUMPDEST STOP JUMPDEST CALLVALUE DUP1 ISZERO PUSH2 0x331 JUMPI PUSH1 0x0 DUP1 REVERT JUMPDEST POP PUSH2 0x33A PUSH2 0xA91 JUMP JUMPDEST PUSH1 0x40 MLOAD PUSH2 0x347 SWAP2 SWAP1 PUSH2 0x1E76 JUMP JUMPDEST PUSH1 0x40 MLOAD DUP1 SWAP2 SUB SWAP1 RETURN JUMPDEST CALLVALUE DUP1 ISZERO PUSH2 0x35C JUMPI PUSH1 0x0 DUP1 REVERT JUMPDEST POP PUSH2 0x365 PUSH2 0xAB9 JUMP JUMPDEST PUSH1 0x40 MLOAD PUSH2 0x372 SWAP2 SWAP1 PUSH2 0x1F5C JUMP JUMPDEST PUSH1 0x40 MLOAD DUP1 SWAP2 SUB SWAP1 RETURN JUMPDEST CALLVALUE DUP1 ISZERO PUSH2 0x387 JUMPI PUSH1 0x0 DUP1 REVERT JUMPDEST POP PUSH2 0x3A2 PUSH1 0x4 DUP1 CALLDATASIZE SUB DUP2 ADD SWAP1 PUSH2 0x39D SWAP2 SWAP1 PUSH2 0x1F96 JUMP JUMPDEST PUSH2 0xADD JUMP JUMPDEST PUSH1 0x40 MLOAD PUSH2 0x3AF SWAP2 SWAP1 PUSH2 0x202B JUMP JUMPDEST PUSH1 0x40 MLOAD DUP1 SWAP2 SUB SWAP1 RETURN JUMPDEST CALLVALUE DUP1 ISZERO PUSH2 0x3C4 JUMPI PUSH1 0x0 DUP1 REVERT JUMPDEST POP PUSH2 0x3DF PUSH1 0x4 DUP1 CALLDATASIZE SUB DUP2 ADD SWAP1 PUSH2 0x3DA SWAP2 SWAP1 PUSH2 0x1EBD JUMP JUMPDEST PUSH2 0x105A JUMP JUMPDEST STOP JUMPDEST CALLVALUE DUP1 ISZERO PUSH2 0x3ED JUMPI PUSH1 0x0 DUP1 REVERT JUMPDEST POP PUSH2 0x408 PUSH1 0x4 DUP1 CALLDATASIZE SUB DUP2 ADD SWAP1 PUSH2 0x403 SWAP2 SWAP1 PUSH2 0x2046 JUMP JUMPDEST PUSH2 0x10A5 JUMP JUMPDEST STOP JUMPDEST CALLVALUE DUP1 ISZERO PUSH2 0x416 JUMPI PUSH1 0x0 DUP1 REVERT JUMPDEST POP PUSH2 0x431 PUSH1 0x4 DUP1 CALLDATASIZE SUB DUP2 ADD SWAP1 PUSH2 0x42C SWAP2 SWAP1 PUSH2 0x1CF2 JUMP JUMPDEST PUSH2 0x1108 JUMP JUMPDEST STOP JUMPDEST PUSH1 0x0 PUSH32 0x85572FFB00000000000000000000000000000000000000000000000000000000 PUSH28 0xFFFFFFFFFFFFFFFFFFFFFFFFFFFFFFFFFFFFFFFFFFFFFFFFFFFFFFFF NOT AND DUP3 PUSH28 0xFFFFFFFFFFFFFFFFFFFFFFFFFFFFFFFFFFFFFFFFFFFFFFFFFFFFFFFF NOT AND EQ DUP1 PUSH2 0x4FE JUMPI POP PUSH32 0x1FFC9A700000000000000000000000000000000000000000000000000000000 PUSH28 0xFFFFFFFFFFFFFFFFFFFFFFFFFFFFFFFFFFFFFFFFFFFFFFFFFFFFFFFF NOT AND DUP3 PUSH28 0xFFFFFFFFFFFFFFFFFFFFFFFFFFFFFFFFFFFFFFFFFFFFFFFFFFFFFFFF NOT AND EQ JUMPDEST SWAP1 POP SWAP2 SWAP1 POP JUMP JUMPDEST PUSH2 0x50D PUSH2 0x118E JUMP JUMPDEST PUSH1 0x0 DUP2 PUSH20 0xFFFFFFFFFFFFFFFFFFFFFFFFFFFFFFFFFFFFFFFF AND PUSH4 0x70A08231 ADDRESS PUSH1 0x40 MLOAD DUP3 PUSH4 0xFFFFFFFF AND PUSH1 0xE0 SHL DUP2 MSTORE PUSH1 0x4 ADD PUSH2 0x548 SWAP2 SWAP1 PUSH2 0x1E76 JUMP JUMPDEST PUSH1 0x20 PUSH1 0x40 MLOAD DUP1 DUP4 SUB DUP2 DUP7 GAS STATICCALL ISZERO DUP1 ISZERO PUSH2 0x565 JUMPI RETURNDATASIZE PUSH1 0x0 DUP1 RETURNDATACOPY RETURNDATASIZE PUSH1 0x0 REVERT JUMPDEST POP POP POP POP PUSH1 0x40 MLOAD RETURNDATASIZE PUSH1 0x1F NOT PUSH1 0x1F DUP3 ADD AND DUP3 ADD DUP1 PUSH1 0x40 MSTORE POP DUP2 ADD SWAP1 PUSH2 0x589 SWAP2 SWAP1 PUSH2 0x209B JUMP JUMPDEST SWAP1 POP PUSH1 0x0 DUP2 SUB PUSH2 0x5C5 JUMPI PUSH1 0x40 MLOAD PUSH32 0xD0D04F6000000000000000000000000000000000000000000000000000000000 DUP2 MSTORE PUSH1 0x4 ADD PUSH1 0x40 MLOAD DUP1 SWAP2 SUB SWAP1 REVERT JUMPDEST DUP2 PUSH20 0xFFFFFFFFFFFFFFFFFFFFFFFFFFFFFFFFFFFFFFFF AND PUSH4 0xA9059CBB DUP5 DUP4 PUSH1 0x40 MLOAD DUP4 PUSH4 0xFFFFFFFF AND PUSH1 0xE0 SHL DUP2 MSTORE PUSH1 0x4 ADD PUSH2 0x600 SWAP3 SWAP2 SWAP1 PUSH2 0x20C8 JUMP JUMPDEST PUSH1 0x20 PUSH1 0x40 MLOAD DUP1 DUP4 SUB DUP2 PUSH1 0x0 DUP8 GAS CALL ISZERO DUP1 ISZERO PUSH2 0x61F JUMPI RETURNDATASIZE PUSH1 0x0 DUP1 RETURNDATACOPY RETURNDATASIZE PUSH1 0x0 REVERT JUMPDEST POP POP POP POP PUSH1 0x40 MLOAD RETURNDATASIZE PUSH1 0x1F NOT PUSH1 0x1F DUP3 ADD AND DUP3 ADD DUP1 PUSH1 0x40 MSTORE POP DUP2 ADD SWAP1 PUSH2 0x643 SWAP2 SWAP1 PUSH2 0x2106 JUMP JUMPDEST POP POP POP POP JUMP JUMPDEST PUSH1 0x2 PUSH1 0x20 MSTORE DUP1 PUSH1 0x0 MSTORE PUSH1 0x40 PUSH1 0x0 KECCAK256 PUSH1 0x0 SWAP2 POP SLOAD SWAP1 PUSH2 0x100 EXP SWAP1 DIV PUSH1 0xFF AND DUP2 JUMP JUMPDEST PUSH2 0x671 PUSH2 0x118E JUMP JUMPDEST PUSH1 0x0 SELFBALANCE SWAP1 POP PUSH1 0x0 DUP2 SUB PUSH2 0x6B0 JUMPI PUSH1 0x40 MLOAD PUSH32 0xD0D04F6000000000000000000000000000000000000000000000000000000000 DUP2 MSTORE PUSH1 0x4 ADD PUSH1 0x40 MLOAD DUP1 SWAP2 SUB SWAP1 REVERT JUMPDEST PUSH1 0x0 DUP3 PUSH20 0xFFFFFFFFFFFFFFFFFFFFFFFFFFFFFFFFFFFFFFFF AND DUP3 PUSH1 0x40 MLOAD PUSH2 0x6D6 SWAP1 PUSH2 0x2164 JUMP JUMPDEST PUSH1 0x0 PUSH1 0x40 MLOAD DUP1 DUP4 SUB DUP2 DUP6 DUP8 GAS CALL SWAP3 POP POP POP RETURNDATASIZE DUP1 PUSH1 0x0 DUP2 EQ PUSH2 0x713 JUMPI PUSH1 0x40 MLOAD SWAP2 POP PUSH1 0x1F NOT PUSH1 0x3F RETURNDATASIZE ADD AND DUP3 ADD PUSH1 0x40 MSTORE RETURNDATASIZE DUP3 MSTORE RETURNDATASIZE PUSH1 0x0 PUSH1 0x20 DUP5 ADD RETURNDATACOPY PUSH2 0x718 JUMP JUMPDEST PUSH1 0x60 SWAP2 POP JUMPDEST POP POP SWAP1 POP DUP1 PUSH2 0x762 JUMPI CALLER DUP4 DUP4 PUSH1 0x40 MLOAD PUSH32 0x9D11F56300000000000000000000000000000000000000000000000000000000 DUP2 MSTORE PUSH1 0x4 ADD PUSH2 0x759 SWAP4 SWAP3 SWAP2 SWAP1 PUSH2 0x2179 JUMP JUMPDEST PUSH1 0x40 MLOAD DUP1 SWAP2 SUB SWAP1 REVERT JUMPDEST POP POP POP JUMP JUMPDEST PUSH1 0x0 PUSH2 0x794 DUP7 PUSH32 0x0 DUP8 PUSH2 0x1215 JUMP JUMPDEST PUSH1 0x0 PUSH1 0x40 MLOAD DUP1 PUSH2 0x100 ADD PUSH1 0x40 MSTORE DUP1 DUP9 PUSH20 0xFFFFFFFFFFFFFFFFFFFFFFFFFFFFFFFFFFFFFFFF AND DUP2 MSTORE PUSH1 0x20 ADD DUP7 PUSH20 0xFFFFFFFFFFFFFFFFFFFFFFFFFFFFFFFFFFFFFFFF AND DUP2 MSTORE PUSH1 0x20 ADD PUSH1 0x0 PUSH3 0xFFFFFF AND DUP2 MSTORE PUSH1 0x20 ADD DUP5 PUSH20 0xFFFFFFFFFFFFFFFFFFFFFFFFFFFFFFFFFFFFFFFF AND DUP2 MSTORE PUSH1 0x20 ADD TIMESTAMP DUP2 MSTORE PUSH1 0x20 ADD DUP6 DUP2 MSTORE PUSH1 0x20 ADD DUP8 DUP2 MSTORE PUSH1 0x20 ADD PUSH1 0x0 PUSH20 0xFFFFFFFFFFFFFFFFFFFFFFFFFFFFFFFFFFFFFFFF AND DUP2 MSTORE POP SWAP1 POP PUSH32 0x0 PUSH20 0xFFFFFFFFFFFFFFFFFFFFFFFFFFFFFFFFFFFFFFFF AND PUSH4 0xDB3E2198 DUP3 PUSH1 0x40 MLOAD DUP3 PUSH4 0xFFFFFFFF AND PUSH1 0xE0 SHL DUP2 MSTORE PUSH1 0x4 ADD PUSH2 0x88A SWAP2 SWAP1 PUSH2 0x229D JUMP JUMPDEST PUSH1 0x20 PUSH1 0x40 MLOAD DUP1 DUP4 SUB DUP2 PUSH1 0x0 DUP8 GAS CALL ISZERO DUP1 ISZERO PUSH2 0x8A9 JUMPI RETURNDATASIZE PUSH1 0x0 DUP1 RETURNDATACOPY RETURNDATASIZE PUSH1 0x0 REVERT JUMPDEST POP POP POP POP PUSH1 0x40 MLOAD RETURNDATASIZE PUSH1 0x1F NOT PUSH1 0x1F DUP3 ADD AND DUP3 ADD DUP1 PUSH1 0x40 MSTORE POP DUP2 ADD SWAP1 PUSH2 0x8CD SWAP2 SWAP1 PUSH2 0x209B JUMP JUMPDEST SWAP2 POP DUP6 DUP3 LT ISZERO PUSH2 0x91A JUMPI PUSH2 0x903 DUP8 PUSH32 0x0 PUSH1 0x0 PUSH2 0x1215 JUMP JUMPDEST PUSH2 0x919 DUP8 DUP5 DUP5 DUP10 PUSH2 0x914 SWAP2 SWAP1 PUSH2 0x22E8 JUMP JUMPDEST PUSH2 0x136A JUMP JUMPDEST JUMPDEST POP SWAP6 SWAP5 POP POP POP POP POP JUMP JUMPDEST PUSH1 0x3 PUSH1 0x20 MSTORE DUP1 PUSH1 0x0 MSTORE PUSH1 0x40 PUSH1 0x0 KECCAK256 PUSH1 0x0 SWAP2 POP SLOAD SWAP1 PUSH2 0x100 EXP SWAP1 DIV PUSH1 0xFF AND DUP2 JUMP JUMPDEST PUSH2 0x94C PUSH2 0x118E JUMP JUMPDEST PUSH2 0x956 PUSH1 0x0 PUSH2 0x14BF JUMP JUMPDEST JUMP JUMPDEST PUSH1 0x1 PUSH1 0x20 MSTORE DUP1 PUSH1 0x0 MSTORE PUSH1 0x40 PUSH1 0x0 KECCAK256 PUSH1 0x0 SWAP2 POP SLOAD SWAP1 PUSH2 0x100 EXP SWAP1 DIV PUSH1 0xFF AND DUP2 JUMP JUMPDEST PUSH32 0x0 PUSH20 0xFFFFFFFFFFFFFFFFFFFFFFFFFFFFFFFFFFFFFFFF AND CALLER PUSH20 0xFFFFFFFFFFFFFFFFFFFFFFFFFFFFFFFFFFFFFFFF AND EQ PUSH2 0xA08 JUMPI CALLER PUSH1 0x40 MLOAD PUSH32 0xD7F7333400000000000000000000000000000000000000000000000000000000 DUP2 MSTORE PUSH1 0x4 ADD PUSH2 0x9FF SWAP2 SWAP1 PUSH2 0x1E76 JUMP JUMPDEST PUSH1 0x40 MLOAD DUP1 SWAP2 SUB SWAP1 REVERT JUMPDEST PUSH2 0xA1A DUP2 PUSH2 0xA15 SWAP1 PUSH2 0x2690 JUMP JUMPDEST PUSH2 0x1583 JUMP JUMPDEST POP JUMP JUMPDEST PUSH1 0x0 DUP1 PUSH1 0x0 SWAP1 SLOAD SWAP1 PUSH2 0x100 EXP SWAP1 DIV PUSH20 0xFFFFFFFFFFFFFFFFFFFFFFFFFFFFFFFFFFFFFFFF AND SWAP1 POP SWAP1 JUMP JUMPDEST PUSH2 0xA4E PUSH2 0x118E JUMP JUMPDEST DUP1 PUSH1 0x1 PUSH1 0x0 DUP5 PUSH8 0xFFFFFFFFFFFFFFFF AND PUSH8 0xFFFFFFFFFFFFFFFF AND DUP2 MSTORE PUSH1 0x20 ADD SWAP1 DUP2 MSTORE PUSH1 0x20 ADD PUSH1 0x0 KECCAK256 PUSH1 0x0 PUSH2 0x100 EXP DUP2 SLOAD DUP2 PUSH1 0xFF MUL NOT AND SWAP1 DUP4 ISZERO ISZERO MUL OR SWAP1 SSTORE POP POP POP JUMP JUMPDEST PUSH1 0x0 PUSH32 0x0 SWAP1 POP SWAP1 JUMP JUMPDEST PUSH32 0x0 DUP2 JUMP JUMPDEST PUSH1 0x0 PUSH2 0xAE7 PUSH2 0x118E JUMP JUMPDEST DUP6 PUSH1 0x1 PUSH1 0x0 DUP3 PUSH8 0xFFFFFFFFFFFFFFFF AND PUSH8 0xFFFFFFFFFFFFFFFF AND DUP2 MSTORE PUSH1 0x20 ADD SWAP1 DUP2 MSTORE PUSH1 0x20 ADD PUSH1 0x0 KECCAK256 PUSH1 0x0 SWAP1 SLOAD SWAP1 PUSH2 0x100 EXP SWAP1 DIV PUSH1 0xFF AND PUSH2 0xB5E JUMPI DUP1 PUSH1 0x40 MLOAD PUSH32 0x206ABAD700000000000000000000000000000000000000000000000000000000 DUP2 MSTORE PUSH1 0x4 ADD PUSH2 0xB55 SWAP2 SWAP1 PUSH2 0x26B2 JUMP JUMPDEST PUSH1 0x40 MLOAD DUP1 SWAP2 SUB SWAP1 REVERT JUMPDEST DUP6 PUSH1 0x0 PUSH20 0xFFFFFFFFFFFFFFFFFFFFFFFFFFFFFFFFFFFFFFFF AND DUP2 PUSH20 0xFFFFFFFFFFFFFFFFFFFFFFFFFFFFFFFFFFFFFFFF AND SUB PUSH2 0xBC5 JUMPI PUSH1 0x40 MLOAD PUSH32 0xA05FF47E00000000000000000000000000000000000000000000000000000000 DUP2 MSTORE PUSH1 0x4 ADD PUSH1 0x40 MLOAD DUP1 SWAP2 SUB SWAP1 REVERT JUMPDEST DUP6 PUSH1 0x0 PUSH20 0xFFFFFFFFFFFFFFFFFFFFFFFFFFFFFFFFFFFFFFFF AND DUP2 PUSH1 0x0 ADD PUSH1 0x20 DUP2 ADD SWAP1 PUSH2 0xBF1 SWAP2 SWAP1 PUSH2 0x1CF2 JUMP JUMPDEST PUSH20 0xFFFFFFFFFFFFFFFFFFFFFFFFFFFFFFFFFFFFFFFF AND SUB PUSH2 0xC3E JUMPI PUSH1 0x40 MLOAD PUSH32 0x87EBED7100000000000000000000000000000000000000000000000000000000 DUP2 MSTORE PUSH1 0x4 ADD PUSH1 0x40 MLOAD DUP1 SWAP2 SUB SWAP1 REVERT JUMPDEST PUSH1 0x0 PUSH20 0xFFFFFFFFFFFFFFFFFFFFFFFFFFFFFFFFFFFFFFFF AND DUP2 PUSH1 0x20 ADD PUSH1 0x20 DUP2 ADD SWAP1 PUSH2 0xC69 SWAP2 SWAP1 PUSH2 0x1CF2 JUMP JUMPDEST PUSH20 0xFFFFFFFFFFFFFFFFFFFFFFFFFFFFFFFFFFFFFFFF AND SUB PUSH2 0xCB6 JUMPI PUSH1 0x40 MLOAD PUSH32 0xD343D98400000000000000000000000000000000000000000000000000000000 DUP2 MSTORE PUSH1 0x4 ADD PUSH1 0x40 MLOAD DUP1 SWAP2 SUB SWAP1 REVERT JUMPDEST PUSH1 0x0 PUSH20 0xFFFFFFFFFFFFFFFFFFFFFFFFFFFFFFFFFFFFFFFF AND DUP2 PUSH1 0x40 ADD PUSH1 0x20 DUP2 ADD SWAP1 PUSH2 0xCE1 SWAP2 SWAP1 PUSH2 0x1CF2 JUMP JUMPDEST PUSH20 0xFFFFFFFFFFFFFFFFFFFFFFFFFFFFFFFFFFFFFFFF AND SUB PUSH2 0xD2E JUMPI PUSH1 0x40 MLOAD PUSH32 0x1EB00B0600000000000000000000000000000000000000000000000000000000 DUP2 MSTORE PUSH1 0x4 ADD PUSH1 0x40 MLOAD DUP1 SWAP2 SUB SWAP1 REVERT JUMPDEST DUP7 PUSH1 0x40 ADD PUSH1 0x20 DUP2 ADD SWAP1 PUSH2 0xD41 SWAP2 SWAP1 PUSH2 0x1CF2 JUMP JUMPDEST PUSH20 0xFFFFFFFFFFFFFFFFFFFFFFFFFFFFFFFFFFFFFFFF AND DUP7 PUSH20 0xFFFFFFFFFFFFFFFFFFFFFFFFFFFFFFFFFFFFFFFF AND EQ DUP1 ISZERO PUSH2 0xD7F JUMPI POP DUP7 PUSH1 0x60 ADD CALLDATALOAD DUP6 EQ ISZERO JUMPDEST ISZERO PUSH2 0xDB6 JUMPI PUSH1 0x40 MLOAD PUSH32 0x3C5A808400000000000000000000000000000000000000000000000000000000 DUP2 MSTORE PUSH1 0x4 ADD PUSH1 0x40 MLOAD DUP1 SWAP2 SUB SWAP1 REVERT JUMPDEST PUSH1 0x0 PUSH2 0xDC4 DUP10 DUP10 DUP10 DUP10 PUSH2 0x18D1 JUMP JUMPDEST SWAP1 POP PUSH1 0x0 ADDRESS PUSH20 0xFFFFFFFFFFFFFFFFFFFFFFFFFFFFFFFFFFFFFFFF AND PUSH4 0xB0F479A1 PUSH1 0x40 MLOAD DUP2 PUSH4 0xFFFFFFFF AND PUSH1 0xE0 SHL DUP2 MSTORE PUSH1 0x4 ADD PUSH1 0x20 PUSH1 0x40 MLOAD DUP1 DUP4 SUB DUP2 DUP7 GAS STATICCALL ISZERO DUP1 ISZERO PUSH2 0xE13 JUMPI RETURNDATASIZE PUSH1 0x0 DUP1 RETURNDATACOPY RETURNDATASIZE PUSH1 0x0 REVERT JUMPDEST POP POP POP POP PUSH1 0x40 MLOAD RETURNDATASIZE PUSH1 0x1F NOT PUSH1 0x1F DUP3 ADD AND DUP3 ADD DUP1 PUSH1 0x40 MSTORE POP DUP2 ADD SWAP1 PUSH2 0xE37 SWAP2 SWAP1 PUSH2 0x26E2 JUMP JUMPDEST SWAP1 POP PUSH1 0x0 DUP2 PUSH20 0xFFFFFFFFFFFFFFFFFFFFFFFFFFFFFFFFFFFFFFFF AND PUSH4 0x20487DED DUP14 DUP6 PUSH1 0x40 MLOAD DUP4 PUSH4 0xFFFFFFFF AND PUSH1 0xE0 SHL DUP2 MSTORE PUSH1 0x4 ADD PUSH2 0xE76 SWAP3 SWAP2 SWAP1 PUSH2 0x28F7 JUMP JUMPDEST PUSH1 0x20 PUSH1 0x40 MLOAD DUP1 DUP4 SUB DUP2 DUP7 GAS STATICCALL ISZERO DUP1 ISZERO PUSH2 0xE93 JUMPI RETURNDATASIZE PUSH1 0x0 DUP1 RETURNDATACOPY RETURNDATASIZE PUSH1 0x0 REVERT JUMPDEST POP POP POP POP PUSH1 0x40 MLOAD RETURNDATASIZE PUSH1 0x1F NOT PUSH1 0x1F DUP3 ADD AND DUP3 ADD DUP1 PUSH1 0x40 MSTORE POP DUP2 ADD SWAP1 PUSH2 0xEB7 SWAP2 SWAP1 PUSH2 0x209B JUMP JUMPDEST SWAP1 POP SELFBALANCE DUP2 GT ISZERO PUSH2 0xF00 JUMPI SELFBALANCE DUP2 PUSH1 0x40 MLOAD PUSH32 0x8F0F420600000000000000000000000000000000000000000000000000000000 DUP2 MSTORE PUSH1 0x4 ADD PUSH2 0xEF7 SWAP3 SWAP2 SWAP1 PUSH2 0x2927 JUMP JUMPDEST PUSH1 0x40 MLOAD DUP1 SWAP2 SUB SWAP1 REVERT JUMPDEST DUP9 PUSH20 0xFFFFFFFFFFFFFFFFFFFFFFFFFFFFFFFFFFFFFFFF AND PUSH4 0x95EA7B3 DUP4 DUP11 PUSH1 0x40 MLOAD DUP4 PUSH4 0xFFFFFFFF AND PUSH1 0xE0 SHL DUP2 MSTORE PUSH1 0x4 ADD PUSH2 0xF3B SWAP3 SWAP2 SWAP1 PUSH2 0x20C8 JUMP JUMPDEST PUSH1 0x20 PUSH1 0x40 MLOAD DUP1 DUP4 SUB DUP2 PUSH1 0x0 DUP8 GAS CALL ISZERO DUP1 ISZERO PUSH2 0xF5A JUMPI RETURNDATASIZE PUSH1 0x0 DUP1 RETURNDATACOPY RETURNDATASIZE PUSH1 0x0 REVERT JUMPDEST POP POP POP POP PUSH1 0x40 MLOAD RETURNDATASIZE PUSH1 0x1F NOT PUSH1 0x1F DUP3 ADD AND DUP3 ADD DUP1 PUSH1 0x40 MSTORE POP DUP2 ADD SWAP1 PUSH2 0xF7E SWAP2 SWAP1 PUSH2 0x2106 JUMP JUMPDEST POP DUP2 PUSH20 0xFFFFFFFFFFFFFFFFFFFFFFFFFFFFFFFFFFFFFFFF AND PUSH4 0x96F4E9F9 DUP3 DUP15 DUP7 PUSH1 0x40 MLOAD DUP5 PUSH4 0xFFFFFFFF AND PUSH1 0xE0 SHL DUP2 MSTORE PUSH1 0x4 ADD PUSH2 0xFBB SWAP3 SWAP2 SWAP1 PUSH2 0x28F7 JUMP JUMPDEST PUSH1 0x20 PUSH1 0x40 MLOAD DUP1 DUP4 SUB DUP2 DUP6 DUP9 GAS CALL ISZERO DUP1 ISZERO PUSH2 0xFD9 JUMPI RETURNDATASIZE PUSH1 0x0 DUP1 RETURNDATACOPY RETURNDATASIZE PUSH1 0x0 REVERT JUMPDEST POP POP POP POP POP PUSH1 0x40 MLOAD RETURNDATASIZE PUSH1 0x1F NOT PUSH1 0x1F DUP3 ADD AND DUP3 ADD DUP1 PUSH1 0x40 MSTORE POP DUP2 ADD SWAP1 PUSH2 0xFFE SWAP2 SWAP1 PUSH2 0x2965 JUMP JUMPDEST SWAP7 POP DUP12 PUSH8 0xFFFFFFFFFFFFFFFF AND DUP8 PUSH32 0x27CF2B4E28CECC12D1735413A6C08EB26B855BB1582D83637B301AEE8555943F DUP14 DUP14 DUP14 DUP14 DUP8 PUSH1 0x40 MLOAD PUSH2 0x1043 SWAP6 SWAP5 SWAP4 SWAP3 SWAP2 SWAP1 PUSH2 0x2A35 JUMP JUMPDEST PUSH1 0x40 MLOAD DUP1 SWAP2 SUB SWAP1 LOG3 POP POP POP POP POP POP SWAP6 SWAP5 POP POP POP POP POP JUMP JUMPDEST PUSH2 0x1062 PUSH2 0x118E JUMP JUMPDEST DUP1 PUSH1 0x2 PUSH1 0x0 DUP5 PUSH8 0xFFFFFFFFFFFFFFFF AND PUSH8 0xFFFFFFFFFFFFFFFF AND DUP2 MSTORE PUSH1 0x20 ADD SWAP1 DUP2 MSTORE PUSH1 0x20 ADD PUSH1 0x0 KECCAK256 PUSH1 0x0 PUSH2 0x100 EXP DUP2 SLOAD DUP2 PUSH1 0xFF MUL NOT AND SWAP1 DUP4 ISZERO ISZERO MUL OR SWAP1 SSTORE POP POP POP JUMP JUMPDEST PUSH2 0x10AD PUSH2 0x118E JUMP JUMPDEST DUP1 PUSH1 0x3 PUSH1 0x0 DUP5 PUSH20 0xFFFFFFFFFFFFFFFFFFFFFFFFFFFFFFFFFFFFFFFF AND PUSH20 0xFFFFFFFFFFFFFFFFFFFFFFFFFFFFFFFFFFFFFFFF AND DUP2 MSTORE PUSH1 0x20 ADD SWAP1 DUP2 MSTORE PUSH1 0x20 ADD PUSH1 0x0 KECCAK256 PUSH1 0x0 PUSH2 0x100 EXP DUP2 SLOAD DUP2 PUSH1 0xFF MUL NOT AND SWAP1 DUP4 ISZERO ISZERO MUL OR SWAP1 SSTORE POP POP POP JUMP JUMPDEST PUSH2 0x1110 PUSH2 0x118E JUMP JUMPDEST PUSH1 0x0 PUSH20 0xFFFFFFFFFFFFFFFFFFFFFFFFFFFFFFFFFFFFFFFF AND DUP2 PUSH20 0xFFFFFFFFFFFFFFFFFFFFFFFFFFFFFFFFFFFFFFFF AND SUB PUSH2 0x1182 JUMPI PUSH1 0x0 PUSH1 0x40 MLOAD PUSH32 0x1E4FBDF700000000000000000000000000000000000000000000000000000000 DUP2 MSTORE PUSH1 0x4 ADD PUSH2 0x1179 SWAP2 SWAP1 PUSH2 0x1E76 JUMP JUMPDEST PUSH1 0x40 MLOAD DUP1 SWAP2 SUB SWAP1 REVERT JUMPDEST PUSH2 0x118B DUP2 PUSH2 0x14BF JUMP JUMPDEST POP JUMP JUMPDEST PUSH2 0x1196 PUSH2 0x1A1C JUMP JUMPDEST PUSH20 0xFFFFFFFFFFFFFFFFFFFFFFFFFFFFFFFFFFFFFFFF AND PUSH2 0x11B4 PUSH2 0xA1D JUMP JUMPDEST PUSH20 0xFFFFFFFFFFFFFFFFFFFFFFFFFFFFFFFFFFFFFFFF AND EQ PUSH2 0x1213 JUMPI PUSH2 0x11D7 PUSH2 0x1A1C JUMP JUMPDEST PUSH1 0x40 MLOAD PUSH32 0x118CDAA700000000000000000000000000000000000000000000000000000000 DUP2 MSTORE PUSH1 0x4 ADD PUSH2 0x120A SWAP2 SWAP1 PUSH2 0x1E76 JUMP JUMPDEST PUSH1 0x40 MLOAD DUP1 SWAP2 SUB SWAP1 REVERT JUMPDEST JUMP JUMPDEST PUSH1 0x0 DUP1 DUP5 PUSH20 0xFFFFFFFFFFFFFFFFFFFFFFFFFFFFFFFFFFFFFFFF AND PUSH4 0x95EA7B3 PUSH1 0xE0 SHL DUP6 DUP6 PUSH1 0x40 MLOAD PUSH1 0x24 ADD PUSH2 0x124A SWAP3 SWAP2 SWAP1 PUSH2 0x20C8 JUMP JUMPDEST PUSH1 0x40 MLOAD PUSH1 0x20 DUP2 DUP4 SUB SUB DUP2 MSTORE SWAP1 PUSH1 0x40 MSTORE SWAP1 PUSH28 0xFFFFFFFFFFFFFFFFFFFFFFFFFFFFFFFFFFFFFFFFFFFFFFFFFFFFFFFF NOT AND PUSH1 0x20 DUP3 ADD DUP1 MLOAD PUSH28 0xFFFFFFFFFFFFFFFFFFFFFFFFFFFFFFFFFFFFFFFFFFFFFFFFFFFFFFFF DUP4 DUP2 DUP4 AND OR DUP4 MSTORE POP POP POP POP PUSH1 0x40 MLOAD PUSH2 0x12B4 SWAP2 SWAP1 PUSH2 0x2ABA JUMP JUMPDEST PUSH1 0x0 PUSH1 0x40 MLOAD DUP1 DUP4 SUB DUP2 PUSH1 0x0 DUP7 GAS CALL SWAP2 POP POP RETURNDATASIZE DUP1 PUSH1 0x0 DUP2 EQ PUSH2 0x12F1 JUMPI PUSH1 0x40 MLOAD SWAP2 POP PUSH1 0x1F NOT PUSH1 0x3F RETURNDATASIZE ADD AND DUP3 ADD PUSH1 0x40 MSTORE RETURNDATASIZE DUP3 MSTORE RETURNDATASIZE PUSH1 0x0 PUSH1 0x20 DUP5 ADD RETURNDATACOPY PUSH2 0x12F6 JUMP JUMPDEST PUSH1 0x60 SWAP2 POP JUMPDEST POP SWAP2 POP SWAP2 POP DUP2 DUP1 ISZERO PUSH2 0x1324 JUMPI POP PUSH1 0x0 DUP2 MLOAD EQ DUP1 PUSH2 0x1323 JUMPI POP DUP1 DUP1 PUSH1 0x20 ADD SWAP1 MLOAD DUP2 ADD SWAP1 PUSH2 0x1322 SWAP2 SWAP1 PUSH2 0x2106 JUMP JUMPDEST JUMPDEST JUMPDEST PUSH2 0x1363 JUMPI PUSH1 0x40 MLOAD PUSH32 0x8C379A000000000000000000000000000000000000000000000000000000000 DUP2 MSTORE PUSH1 0x4 ADD PUSH2 0x135A SWAP1 PUSH2 0x2B2E JUMP JUMPDEST PUSH1 0x40 MLOAD DUP1 SWAP2 SUB SWAP1 REVERT JUMPDEST POP POP POP POP POP JUMP JUMPDEST PUSH1 0x0 DUP1 DUP5 PUSH20 0xFFFFFFFFFFFFFFFFFFFFFFFFFFFFFFFFFFFFFFFF AND PUSH4 0xA9059CBB PUSH1 0xE0 SHL DUP6 DUP6 PUSH1 0x40 MLOAD PUSH1 0x24 ADD PUSH2 0x139F SWAP3 SWAP2 SWAP1 PUSH2 0x20C8 JUMP JUMPDEST PUSH1 0x40 MLOAD PUSH1 0x20 DUP2 DUP4 SUB SUB DUP2 MSTORE SWAP1 PUSH1 0x40 MSTORE SWAP1 PUSH28 0xFFFFFFFFFFFFFFFFFFFFFFFFFFFFFFFFFFFFFFFFFFFFFFFFFFFFFFFF NOT AND PUSH1 0x20 DUP3 ADD DUP1 MLOAD PUSH28 0xFFFFFFFFFFFFFFFFFFFFFFFFFFFFFFFFFFFFFFFFFFFFFFFFFFFFFFFF DUP4 DUP2 DUP4 AND OR DUP4 MSTORE POP POP POP POP PUSH1 0x40 MLOAD PUSH2 0x1409 SWAP2 SWAP1 PUSH2 0x2ABA JUMP JUMPDEST PUSH1 0x0 PUSH1 0x40 MLOAD DUP1 DUP4 SUB DUP2 PUSH1 0x0 DUP7 GAS CALL SWAP2 POP POP RETURNDATASIZE DUP1 PUSH1 0x0 DUP2 EQ PUSH2 0x1446 JUMPI PUSH1 0x40 MLOAD SWAP2 POP PUSH1 0x1F NOT PUSH1 0x3F RETURNDATASIZE ADD AND DUP3 ADD PUSH1 0x40 MSTORE RETURNDATASIZE DUP3 MSTORE RETURNDATASIZE PUSH1 0x0 PUSH1 0x20 DUP5 ADD RETURNDATACOPY PUSH2 0x144B JUMP JUMPDEST PUSH1 0x60 SWAP2 POP JUMPDEST POP SWAP2 POP SWAP2 POP DUP2 DUP1 ISZERO PUSH2 0x1479 JUMPI POP PUSH1 0x0 DUP2 MLOAD EQ DUP1 PUSH2 0x1478 JUMPI POP DUP1 DUP1 PUSH1 0x20 ADD SWAP1 MLOAD DUP2 ADD SWAP1 PUSH2 0x1477 SWAP2 SWAP1 PUSH2 0x2106 JUMP JUMPDEST JUMPDEST JUMPDEST PUSH2 0x14B8 JUMPI PUSH1 0x40 MLOAD PUSH32 0x8C379A000000000000000000000000000000000000000000000000000000000 DUP2 MSTORE PUSH1 0x4 ADD PUSH2 0x14AF SWAP1 PUSH2 0x2B9A JUMP JUMPDEST PUSH1 0x40 MLOAD DUP1 SWAP2 SUB SWAP1 REVERT JUMPDEST POP POP POP POP POP JUMP JUMPDEST PUSH1 0x0 DUP1 PUSH1 0x0 SWAP1 SLOAD SWAP1 PUSH2 0x100 EXP SWAP1 DIV PUSH20 0xFFFFFFFFFFFFFFFFFFFFFFFFFFFFFFFFFFFFFFFF AND SWAP1 POP DUP2 PUSH1 0x0 DUP1 PUSH2 0x100 EXP DUP2 SLOAD DUP2 PUSH20 0xFFFFFFFFFFFFFFFFFFFFFFFFFFFFFFFFFFFFFFFF MUL NOT AND SWAP1 DUP4 PUSH20 0xFFFFFFFFFFFFFFFFFFFFFFFFFFFFFFFFFFFFFFFF AND MUL OR SWAP1 SSTORE POP DUP2 PUSH20 0xFFFFFFFFFFFFFFFFFFFFFFFFFFFFFFFFFFFFFFFF AND DUP2 PUSH20 0xFFFFFFFFFFFFFFFFFFFFFFFFFFFFFFFFFFFFFFFF AND PUSH32 0x8BE0079C531659141344CD1FD0A4F28419497F9722A3DAAFE3B4186F6B6457E0 PUSH1 0x40 MLOAD PUSH1 0x40 MLOAD DUP1 SWAP2 SUB SWAP1 LOG3 POP POP JUMP JUMPDEST DUP1 PUSH1 0x20 ADD MLOAD DUP2 PUSH1 0x40 ADD MLOAD DUP1 PUSH1 0x20 ADD SWAP1 MLOAD DUP2 ADD SWAP1 PUSH2 0x15A0 SWAP2 SWAP1 PUSH2 0x2BF8 JUMP JUMPDEST PUSH1 0x2 PUSH1 0x0 DUP4 PUSH8 0xFFFFFFFFFFFFFFFF AND PUSH8 0xFFFFFFFFFFFFFFFF AND DUP2 MSTORE PUSH1 0x20 ADD SWAP1 DUP2 MSTORE PUSH1 0x20 ADD PUSH1 0x0 KECCAK256 PUSH1 0x0 SWAP1 SLOAD SWAP1 PUSH2 0x100 EXP SWAP1 DIV PUSH1 0xFF AND PUSH2 0x1616 JUMPI DUP2 PUSH1 0x40 MLOAD PUSH32 0x213C267800000000000000000000000000000000000000000000000000000000 DUP2 MSTORE PUSH1 0x4 ADD PUSH2 0x160D SWAP2 SWAP1 PUSH2 0x26B2 JUMP JUMPDEST PUSH1 0x40 MLOAD DUP1 SWAP2 SUB SWAP1 REVERT JUMPDEST PUSH1 0x3 PUSH1 0x0 DUP3 PUSH20 0xFFFFFFFFFFFFFFFFFFFFFFFFFFFFFFFFFFFFFFFF AND PUSH20 0xFFFFFFFFFFFFFFFFFFFFFFFFFFFFFFFFFFFFFFFF AND DUP2 MSTORE PUSH1 0x20 ADD SWAP1 DUP2 MSTORE PUSH1 0x20 ADD PUSH1 0x0 KECCAK256 PUSH1 0x0 SWAP1 SLOAD SWAP1 PUSH2 0x100 EXP SWAP1 DIV PUSH1 0xFF AND PUSH2 0x16A4 JUMPI DUP1 PUSH1 0x40 MLOAD PUSH32 0xD0D2597600000000000000000000000000000000000000000000000000000000 DUP2 MSTORE PUSH1 0x4 ADD PUSH2 0x169B SWAP2 SWAP1 PUSH2 0x1E76 JUMP JUMPDEST PUSH1 0x40 MLOAD DUP1 SWAP2 SUB SWAP1 REVERT JUMPDEST PUSH1 0x0 DUP4 PUSH1 0x60 ADD MLOAD DUP1 PUSH1 0x20 ADD SWAP1 MLOAD DUP2 ADD SWAP1 PUSH2 0x16BE SWAP2 SWAP1 PUSH2 0x2C9D JUMP JUMPDEST SWAP1 POP PUSH1 0x0 DUP5 PUSH1 0x80 ADD MLOAD PUSH1 0x0 DUP2 MLOAD DUP2 LT PUSH2 0x16DA JUMPI PUSH2 0x16D9 PUSH2 0x2CCA JUMP JUMPDEST JUMPDEST PUSH1 0x20 MUL PUSH1 0x20 ADD ADD MLOAD PUSH1 0x0 ADD MLOAD SWAP1 POP PUSH1 0x0 DUP6 PUSH1 0x80 ADD MLOAD PUSH1 0x0 DUP2 MLOAD DUP2 LT PUSH2 0x1702 JUMPI PUSH2 0x1701 PUSH2 0x2CCA JUMP JUMPDEST JUMPDEST PUSH1 0x20 MUL PUSH1 0x20 ADD ADD MLOAD PUSH1 0x20 ADD MLOAD SWAP1 POP DUP2 PUSH20 0xFFFFFFFFFFFFFFFFFFFFFFFFFFFFFFFFFFFFFFFF AND DUP4 PUSH1 0x40 ADD MLOAD PUSH20 0xFFFFFFFFFFFFFFFFFFFFFFFFFFFFFFFFFFFFFFFF AND SUB PUSH2 0x17CF JUMPI DUP2 PUSH20 0xFFFFFFFFFFFFFFFFFFFFFFFFFFFFFFFFFFFFFFFF AND PUSH4 0xA9059CBB DUP5 PUSH1 0x20 ADD MLOAD DUP4 PUSH1 0x40 MLOAD DUP4 PUSH4 0xFFFFFFFF AND PUSH1 0xE0 SHL DUP2 MSTORE PUSH1 0x4 ADD PUSH2 0x1786 SWAP3 SWAP2 SWAP1 PUSH2 0x20C8 JUMP JUMPDEST PUSH1 0x20 PUSH1 0x40 MLOAD DUP1 DUP4 SUB DUP2 PUSH1 0x0 DUP8 GAS CALL ISZERO DUP1 ISZERO PUSH2 0x17A5 JUMPI RETURNDATASIZE PUSH1 0x0 DUP1 RETURNDATACOPY RETURNDATASIZE PUSH1 0x0 REVERT JUMPDEST POP POP POP POP PUSH1 0x40 MLOAD RETURNDATASIZE PUSH1 0x1F NOT PUSH1 0x1F DUP3 ADD AND DUP3 ADD DUP1 PUSH1 0x40 MSTORE POP DUP2 ADD SWAP1 PUSH2 0x17C9 SWAP2 SWAP1 PUSH2 0x2106 JUMP JUMPDEST POP PUSH2 0x1861 JUMP JUMPDEST ADDRESS PUSH20 0xFFFFFFFFFFFFFFFFFFFFFFFFFFFFFFFFFFFFFFFF AND PUSH4 0x5F299CBE DUP4 DUP4 DUP7 PUSH1 0x40 ADD MLOAD DUP8 PUSH1 0x60 ADD MLOAD DUP9 PUSH1 0x20 ADD MLOAD PUSH1 0x40 MLOAD DUP7 PUSH4 0xFFFFFFFF AND PUSH1 0xE0 SHL DUP2 MSTORE PUSH1 0x4 ADD PUSH2 0x181C SWAP6 SWAP5 SWAP4 SWAP3 SWAP2 SWAP1 PUSH2 0x2CF9 JUMP JUMPDEST PUSH1 0x20 PUSH1 0x40 MLOAD DUP1 DUP4 SUB DUP2 PUSH1 0x0 DUP8 GAS CALL ISZERO DUP1 ISZERO PUSH2 0x183B JUMPI RETURNDATASIZE PUSH1 0x0 DUP1 RETURNDATACOPY RETURNDATASIZE PUSH1 0x0 REVERT JUMPDEST POP POP POP POP PUSH1 0x40 MLOAD RETURNDATASIZE PUSH1 0x1F NOT PUSH1 0x1F DUP3 ADD AND DUP3 ADD DUP1 PUSH1 0x40 MSTORE POP DUP2 ADD SWAP1 PUSH2 0x185F SWAP2 SWAP1 PUSH2 0x209B JUMP JUMPDEST POP JUMPDEST DUP6 PUSH1 0x20 ADD MLOAD PUSH8 0xFFFFFFFFFFFFFFFF AND DUP7 PUSH1 0x0 ADD MLOAD PUSH32 0x599C623EEF336D2101CFEB7A6E55C2E8AA98AE12831C9A86FCB31F5650401F03 DUP9 PUSH1 0x40 ADD MLOAD DUP1 PUSH1 0x20 ADD SWAP1 MLOAD DUP2 ADD SWAP1 PUSH2 0x18AE SWAP2 SWAP1 PUSH2 0x2BF8 JUMP JUMPDEST DUP7 DUP7 DUP7 PUSH1 0x40 MLOAD PUSH2 0x18C1 SWAP5 SWAP4 SWAP3 SWAP2 SWAP1 PUSH2 0x2DC2 JUMP JUMPDEST PUSH1 0x40 MLOAD DUP1 SWAP2 SUB SWAP1 LOG3 POP POP POP POP POP POP JUMP JUMPDEST PUSH2 0x18D9 PUSH2 0x1AA3 JUMP JUMPDEST PUSH1 0x0 PUSH1 0x1 PUSH8 0xFFFFFFFFFFFFFFFF DUP2 GT ISZERO PUSH2 0x18F6 JUMPI PUSH2 0x18F5 PUSH2 0x2332 JUMP JUMPDEST JUMPDEST PUSH1 0x40 MLOAD SWAP1 DUP1 DUP3 MSTORE DUP1 PUSH1 0x20 MUL PUSH1 0x20 ADD DUP3 ADD PUSH1 0x40 MSTORE DUP1 ISZERO PUSH2 0x192F JUMPI DUP2 PUSH1 0x20 ADD JUMPDEST PUSH2 0x191C PUSH2 0x1AE8 JUMP JUMPDEST DUP2 MSTORE PUSH1 0x20 ADD SWAP1 PUSH1 0x1 SWAP1 SUB SWAP1 DUP2 PUSH2 0x1914 JUMPI SWAP1 POP JUMPDEST POP SWAP1 POP PUSH1 0x40 MLOAD DUP1 PUSH1 0x40 ADD PUSH1 0x40 MSTORE DUP1 DUP6 PUSH20 0xFFFFFFFFFFFFFFFFFFFFFFFFFFFFFFFFFFFFFFFF AND DUP2 MSTORE PUSH1 0x20 ADD DUP5 DUP2 MSTORE POP DUP2 PUSH1 0x0 DUP2 MLOAD DUP2 LT PUSH2 0x1971 JUMPI PUSH2 0x1970 PUSH2 0x2CCA JUMP JUMPDEST JUMPDEST PUSH1 0x20 MUL PUSH1 0x20 ADD ADD DUP2 SWAP1 MSTORE POP PUSH1 0x40 MLOAD DUP1 PUSH1 0xA0 ADD PUSH1 0x40 MSTORE DUP1 DUP8 PUSH1 0x40 MLOAD PUSH1 0x20 ADD PUSH2 0x1998 SWAP2 SWAP1 PUSH2 0x1E76 JUMP JUMPDEST PUSH1 0x40 MLOAD PUSH1 0x20 DUP2 DUP4 SUB SUB DUP2 MSTORE SWAP1 PUSH1 0x40 MSTORE DUP2 MSTORE PUSH1 0x20 ADD DUP7 PUSH1 0x40 MLOAD PUSH1 0x20 ADD PUSH2 0x19BD SWAP2 SWAP1 PUSH2 0x2E07 JUMP JUMPDEST PUSH1 0x40 MLOAD PUSH1 0x20 DUP2 DUP4 SUB SUB DUP2 MSTORE SWAP1 PUSH1 0x40 MSTORE DUP2 MSTORE PUSH1 0x20 ADD DUP3 DUP2 MSTORE PUSH1 0x20 ADD PUSH1 0x0 PUSH20 0xFFFFFFFFFFFFFFFFFFFFFFFFFFFFFFFFFFFFFFFF AND DUP2 MSTORE PUSH1 0x20 ADD PUSH2 0x1A0E PUSH1 0x40 MLOAD DUP1 PUSH1 0x20 ADD PUSH1 0x40 MSTORE DUP1 PUSH3 0x30D40 DUP2 MSTORE POP PUSH2 0x1A24 JUMP JUMPDEST DUP2 MSTORE POP SWAP2 POP POP SWAP5 SWAP4 POP POP POP POP JUMP JUMPDEST PUSH1 0x0 CALLER SWAP1 POP SWAP1 JUMP JUMPDEST PUSH1 0x60 PUSH4 0x97A657C9 PUSH1 0xE0 SHL DUP3 PUSH1 0x40 MLOAD PUSH1 0x24 ADD PUSH2 0x1A3F SWAP2 SWAP1 PUSH2 0x2E3E JUMP JUMPDEST PUSH1 0x40 MLOAD PUSH1 0x20 DUP2 DUP4 SUB SUB DUP2 MSTORE SWAP1 PUSH1 0x40 MSTORE SWAP1 PUSH28 0xFFFFFFFFFFFFFFFFFFFFFFFFFFFFFFFFFFFFFFFFFFFFFFFFFFFFFFFF NOT AND PUSH1 0x20 DUP3 ADD DUP1 MLOAD PUSH28 0xFFFFFFFFFFFFFFFFFFFFFFFFFFFFFFFFFFFFFFFFFFFFFFFFFFFFFFFF DUP4 DUP2 DUP4 AND OR DUP4 MSTORE POP POP POP POP SWAP1 POP SWAP2 SWAP1 POP JUMP JUMPDEST PUSH1 0x40 MLOAD DUP1 PUSH1 0xA0 ADD PUSH1 0x40 MSTORE DUP1 PUSH1 0x60 DUP2 MSTORE PUSH1 0x20 ADD PUSH1 0x60 DUP2 MSTORE PUSH1 0x20 ADD PUSH1 0x60 DUP2 MSTORE PUSH1 0x20 ADD PUSH1 0x0 PUSH20 0xFFFFFFFFFFFFFFFFFFFFFFFFFFFFFFFFFFFFFFFF AND DUP2 MSTORE PUSH1 0x20 ADD PUSH1 0x60 DUP2 MSTORE POP SWAP1 JUMP JUMPDEST PUSH1 0x40 MLOAD DUP1 PUSH1 0x40 ADD PUSH1 0x40 MSTORE DUP1 PUSH1 0x0 PUSH20 0xFFFFFFFFFFFFFFFFFFFFFFFFFFFFFFFFFFFFFFFF AND DUP2 MSTORE PUSH1 0x20 ADD PUSH1 0x0 DUP2 MSTORE POP SWAP1 JUMP JUMPDEST PUSH1 0x0 PUSH1 0x40 MLOAD SWAP1 POP SWAP1 JUMP JUMPDEST PUSH1 0x0 DUP1 REVERT JUMPDEST PUSH1 0x0 DUP1 REVERT JUMPDEST PUSH1 0x0 PUSH32 0xFFFFFFFF00000000000000000000000000000000000000000000000000000000 DUP3 AND SWAP1 POP SWAP2 SWAP1 POP JUMP JUMPDEST PUSH2 0x1B61 DUP2 PUSH2 0x1B2C JUMP JUMPDEST DUP2 EQ PUSH2 0x1B6C JUMPI PUSH1 0x0 DUP1 REVERT JUMPDEST POP JUMP JUMPDEST PUSH1 0x0 DUP2 CALLDATALOAD SWAP1 POP PUSH2 0x1B7E DUP2 PUSH2 0x1B58 JUMP JUMPDEST SWAP3 SWAP2 POP POP JUMP JUMPDEST PUSH1 0x0 PUSH1 0x20 DUP3 DUP5 SUB SLT ISZERO PUSH2 0x1B9A JUMPI PUSH2 0x1B99 PUSH2 0x1B22 JUMP JUMPDEST JUMPDEST PUSH1 0x0 PUSH2 0x1BA8 DUP5 DUP3 DUP6 ADD PUSH2 0x1B6F JUMP JUMPDEST SWAP2 POP POP SWAP3 SWAP2 POP POP JUMP JUMPDEST PUSH1 0x0 DUP2 ISZERO ISZERO SWAP1 POP SWAP2 SWAP1 POP JUMP JUMPDEST PUSH2 0x1BC6 DUP2 PUSH2 0x1BB1 JUMP JUMPDEST DUP3 MSTORE POP POP JUMP JUMPDEST PUSH1 0x0 PUSH1 0x20 DUP3 ADD SWAP1 POP PUSH2 0x1BE1 PUSH1 0x0 DUP4 ADD DUP5 PUSH2 0x1BBD JUMP JUMPDEST SWAP3 SWAP2 POP POP JUMP JUMPDEST PUSH1 0x0 PUSH20 0xFFFFFFFFFFFFFFFFFFFFFFFFFFFFFFFFFFFFFFFF DUP3 AND SWAP1 POP SWAP2 SWAP1 POP JUMP JUMPDEST PUSH1 0x0 PUSH2 0x1C12 DUP3 PUSH2 0x1BE7 JUMP JUMPDEST SWAP1 POP SWAP2 SWAP1 POP JUMP JUMPDEST PUSH2 0x1C22 DUP2 PUSH2 0x1C07 JUMP JUMPDEST DUP2 EQ PUSH2 0x1C2D JUMPI PUSH1 0x0 DUP1 REVERT JUMPDEST POP JUMP JUMPDEST PUSH1 0x0 DUP2 CALLDATALOAD SWAP1 POP PUSH2 0x1C3F DUP2 PUSH2 0x1C19 JUMP JUMPDEST SWAP3 SWAP2 POP POP JUMP JUMPDEST PUSH1 0x0 DUP1 PUSH1 0x40 DUP4 DUP6 SUB SLT ISZERO PUSH2 0x1C5C JUMPI PUSH2 0x1C5B PUSH2 0x1B22 JUMP JUMPDEST JUMPDEST PUSH1 0x0 PUSH2 0x1C6A DUP6 DUP3 DUP7 ADD PUSH2 0x1C30 JUMP JUMPDEST SWAP3 POP POP PUSH1 0x20 PUSH2 0x1C7B DUP6 DUP3 DUP7 ADD PUSH2 0x1C30 JUMP JUMPDEST SWAP2 POP POP SWAP3 POP SWAP3 SWAP1 POP JUMP JUMPDEST PUSH1 0x0 PUSH8 0xFFFFFFFFFFFFFFFF DUP3 AND SWAP1 POP SWAP2 SWAP1 POP JUMP JUMPDEST PUSH2 0x1CA2 DUP2 PUSH2 0x1C85 JUMP JUMPDEST DUP2 EQ PUSH2 0x1CAD JUMPI PUSH1 0x0 DUP1 REVERT JUMPDEST POP JUMP JUMPDEST PUSH1 0x0 DUP2 CALLDATALOAD SWAP1 POP PUSH2 0x1CBF DUP2 PUSH2 0x1C99 JUMP JUMPDEST SWAP3 SWAP2 POP POP JUMP JUMPDEST PUSH1 0x0 PUSH1 0x20 DUP3 DUP5 SUB SLT ISZERO PUSH2 0x1CDB JUMPI PUSH2 0x1CDA PUSH2 0x1B22 JUMP JUMPDEST JUMPDEST PUSH1 0x0 PUSH2 0x1CE9 DUP5 DUP3 DUP6 ADD PUSH2 0x1CB0 JUMP JUMPDEST SWAP2 POP POP SWAP3 SWAP2 POP POP JUMP JUMPDEST PUSH1 0x0 PUSH1 0x20 DUP3 DUP5 SUB SLT ISZERO PUSH2 0x1D08 JUMPI PUSH2 0x1D07 PUSH2 0x1B22 JUMP JUMPDEST JUMPDEST PUSH1 0x0 PUSH2 0x1D16 DUP5 DUP3 DUP6 ADD PUSH2 0x1C30 JUMP JUMPDEST SWAP2 POP POP SWAP3 SWAP2 POP POP JUMP JUMPDEST PUSH1 0x0 DUP2 SWAP1 POP SWAP2 SWAP1 POP JUMP JUMPDEST PUSH2 0x1D32 DUP2 PUSH2 0x1D1F JUMP JUMPDEST DUP2 EQ PUSH2 0x1D3D JUMPI PUSH1 0x0 DUP1 REVERT JUMPDEST POP JUMP JUMPDEST PUSH1 0x0 DUP2 CALLDATALOAD SWAP1 POP PUSH2 0x1D4F DUP2 PUSH2 0x1D29 JUMP JUMPDEST SWAP3 SWAP2 POP POP JUMP JUMPDEST PUSH1 0x0 DUP1 PUSH1 0x0 DUP1 PUSH1 0x0 PUSH1 0xA0 DUP7 DUP9 SUB SLT ISZERO PUSH2 0x1D71 JUMPI PUSH2 0x1D70 PUSH2 0x1B22 JUMP JUMPDEST JUMPDEST PUSH1 0x0 PUSH2 0x1D7F DUP9 DUP3 DUP10 ADD PUSH2 0x1C30 JUMP JUMPDEST SWAP6 POP POP PUSH1 0x20 PUSH2 0x1D90 DUP9 DUP3 DUP10 ADD PUSH2 0x1D40 JUMP JUMPDEST SWAP5 POP POP PUSH1 0x40 PUSH2 0x1DA1 DUP9 DUP3 DUP10 ADD PUSH2 0x1C30 JUMP JUMPDEST SWAP4 POP POP PUSH1 0x60 PUSH2 0x1DB2 DUP9 DUP3 DUP10 ADD PUSH2 0x1D40 JUMP JUMPDEST SWAP3 POP POP PUSH1 0x80 PUSH2 0x1DC3 DUP9 DUP3 DUP10 ADD PUSH2 0x1C30 JUMP JUMPDEST SWAP2 POP POP SWAP3 SWAP6 POP SWAP3 SWAP6 SWAP1 SWAP4 POP JUMP JUMPDEST PUSH2 0x1DD9 DUP2 PUSH2 0x1D1F JUMP JUMPDEST DUP3 MSTORE POP POP JUMP JUMPDEST PUSH1 0x0 PUSH1 0x20 DUP3 ADD SWAP1 POP PUSH2 0x1DF4 PUSH1 0x0 DUP4 ADD DUP5 PUSH2 0x1DD0 JUMP JUMPDEST SWAP3 SWAP2 POP POP JUMP JUMPDEST PUSH1 0x0 DUP1 REVERT JUMPDEST PUSH1 0x0 PUSH1 0xA0 DUP3 DUP5 SUB SLT ISZERO PUSH2 0x1E15 JUMPI PUSH2 0x1E14 PUSH2 0x1DFA JUMP JUMPDEST JUMPDEST DUP2 SWAP1 POP SWAP3 SWAP2 POP POP JUMP JUMPDEST PUSH1 0x0 PUSH1 0x20 DUP3 DUP5 SUB SLT ISZERO PUSH2 0x1E34 JUMPI PUSH2 0x1E33 PUSH2 0x1B22 JUMP JUMPDEST JUMPDEST PUSH1 0x0 DUP3 ADD CALLDATALOAD PUSH8 0xFFFFFFFFFFFFFFFF DUP2 GT ISZERO PUSH2 0x1E52 JUMPI PUSH2 0x1E51 PUSH2 0x1B27 JUMP JUMPDEST JUMPDEST PUSH2 0x1E5E DUP5 DUP3 DUP6 ADD PUSH2 0x1DFF JUMP JUMPDEST SWAP2 POP POP SWAP3 SWAP2 POP POP JUMP JUMPDEST PUSH2 0x1E70 DUP2 PUSH2 0x1C07 JUMP JUMPDEST DUP3 MSTORE POP POP JUMP JUMPDEST PUSH1 0x0 PUSH1 0x20 DUP3 ADD SWAP1 POP PUSH2 0x1E8B PUSH1 0x0 DUP4 ADD DUP5 PUSH2 0x1E67 JUMP JUMPDEST SWAP3 SWAP2 POP POP JUMP JUMPDEST PUSH2 0x1E9A DUP2 PUSH2 0x1BB1 JUMP JUMPDEST DUP2 EQ PUSH2 0x1EA5 JUMPI PUSH1 0x0 DUP1 REVERT JUMPDEST POP JUMP JUMPDEST PUSH1 0x0 DUP2 CALLDATALOAD SWAP1 POP PUSH2 0x1EB7 DUP2 PUSH2 0x1E91 JUMP JUMPDEST SWAP3 SWAP2 POP POP JUMP JUMPDEST PUSH1 0x0 DUP1 PUSH1 0x40 DUP4 DUP6 SUB SLT ISZERO PUSH2 0x1ED4 JUMPI PUSH2 0x1ED3 PUSH2 0x1B22 JUMP JUMPDEST JUMPDEST PUSH1 0x0 PUSH2 0x1EE2 DUP6 DUP3 DUP7 ADD PUSH2 0x1CB0 JUMP JUMPDEST SWAP3 POP POP PUSH1 0x20 PUSH2 0x1EF3 DUP6 DUP3 DUP7 ADD PUSH2 0x1EA8 JUMP JUMPDEST SWAP2 POP POP SWAP3 POP SWAP3 SWAP1 POP JUMP JUMPDEST PUSH1 0x0 DUP2 SWAP1 POP SWAP2 SWAP1 POP JUMP JUMPDEST PUSH1 0x0 PUSH2 0x1F22 PUSH2 0x1F1D PUSH2 0x1F18 DUP5 PUSH2 0x1BE7 JUMP JUMPDEST PUSH2 0x1EFD JUMP JUMPDEST PUSH2 0x1BE7 JUMP JUMPDEST SWAP1 POP SWAP2 SWAP1 POP JUMP JUMPDEST PUSH1 0x0 PUSH2 0x1F34 DUP3 PUSH2 0x1F07 JUMP JUMPDEST SWAP1 POP SWAP2 SWAP1 POP JUMP JUMPDEST PUSH1 0x0 PUSH2 0x1F46 DUP3 PUSH2 0x1F29 JUMP JUMPDEST SWAP1 POP SWAP2 SWAP1 POP JUMP JUMPDEST PUSH2 0x1F56 DUP2 PUSH2 0x1F3B JUMP JUMPDEST DUP3 MSTORE POP POP JUMP JUMPDEST PUSH1 0x0 PUSH1 0x20 DUP3 ADD SWAP1 POP PUSH2 0x1F71 PUSH1 0x0 DUP4 ADD DUP5 PUSH2 0x1F4D JUMP JUMPDEST SWAP3 SWAP2 POP POP JUMP JUMPDEST PUSH1 0x0 PUSH1 0x80 DUP3 DUP5 SUB SLT ISZERO PUSH2 0x1F8D JUMPI PUSH2 0x1F8C PUSH2 0x1DFA JUMP JUMPDEST JUMPDEST DUP2 SWAP1 POP SWAP3 SWAP2 POP POP JUMP JUMPDEST PUSH1 0x0 DUP1 PUSH1 0x0 DUP1 PUSH1 0x0 PUSH2 0x100 DUP7 DUP9 SUB SLT ISZERO PUSH2 0x1FB3 JUMPI PUSH2 0x1FB2 PUSH2 0x1B22 JUMP JUMPDEST JUMPDEST PUSH1 0x0 PUSH2 0x1FC1 DUP9 DUP3 DUP10 ADD PUSH2 0x1CB0 JUMP JUMPDEST SWAP6 POP POP PUSH1 0x20 PUSH2 0x1FD2 DUP9 DUP3 DUP10 ADD PUSH2 0x1C30 JUMP JUMPDEST SWAP5 POP POP PUSH1 0x40 PUSH2 0x1FE3 DUP9 DUP3 DUP10 ADD PUSH2 0x1F77 JUMP JUMPDEST SWAP4 POP POP PUSH1 0xC0 PUSH2 0x1FF4 DUP9 DUP3 DUP10 ADD PUSH2 0x1C30 JUMP JUMPDEST SWAP3 POP POP PUSH1 0xE0 PUSH2 0x2005 DUP9 DUP3 DUP10 ADD PUSH2 0x1D40 JUMP JUMPDEST SWAP2 POP POP SWAP3 SWAP6 POP SWAP3 SWAP6 SWAP1 SWAP4 POP JUMP JUMPDEST PUSH1 0x0 DUP2 SWAP1 POP SWAP2 SWAP1 POP JUMP JUMPDEST PUSH2 0x2025 DUP2 PUSH2 0x2012 JUMP JUMPDEST DUP3 MSTORE POP POP JUMP JUMPDEST PUSH1 0x0 PUSH1 0x20 DUP3 ADD SWAP1 POP PUSH2 0x2040 PUSH1 0x0 DUP4 ADD DUP5 PUSH2 0x201C JUMP JUMPDEST SWAP3 SWAP2 POP POP JUMP JUMPDEST PUSH1 0x0 DUP1 PUSH1 0x40 DUP4 DUP6 SUB SLT ISZERO PUSH2 0x205D JUMPI PUSH2 0x205C PUSH2 0x1B22 JUMP JUMPDEST JUMPDEST PUSH1 0x0 PUSH2 0x206B DUP6 DUP3 DUP7 ADD PUSH2 0x1C30 JUMP JUMPDEST SWAP3 POP POP PUSH1 0x20 PUSH2 0x207C DUP6 DUP3 DUP7 ADD PUSH2 0x1EA8 JUMP JUMPDEST SWAP2 POP POP SWAP3 POP SWAP3 SWAP1 POP JUMP JUMPDEST PUSH1 0x0 DUP2 MLOAD SWAP1 POP PUSH2 0x2095 DUP2 PUSH2 0x1D29 JUMP JUMPDEST SWAP3 SWAP2 POP POP JUMP JUMPDEST PUSH1 0x0 PUSH1 0x20 DUP3 DUP5 SUB SLT ISZERO PUSH2 0x20B1 JUMPI PUSH2 0x20B0 PUSH2 0x1B22 JUMP JUMPDEST JUMPDEST PUSH1 0x0 PUSH2 0x20BF DUP5 DUP3 DUP6 ADD PUSH2 0x2086 JUMP JUMPDEST SWAP2 POP POP SWAP3 SWAP2 POP POP JUMP JUMPDEST PUSH1 0x0 PUSH1 0x40 DUP3 ADD SWAP1 POP PUSH2 0x20DD PUSH1 0x0 DUP4 ADD DUP6 PUSH2 0x1E67 JUMP JUMPDEST PUSH2 0x20EA PUSH1 0x20 DUP4 ADD DUP5 PUSH2 0x1DD0 JUMP JUMPDEST SWAP4 SWAP3 POP POP POP JUMP JUMPDEST PUSH1 0x0 DUP2 MLOAD SWAP1 POP PUSH2 0x2100 DUP2 PUSH2 0x1E91 JUMP JUMPDEST SWAP3 SWAP2 POP POP JUMP JUMPDEST PUSH1 0x0 PUSH1 0x20 DUP3 DUP5 SUB SLT ISZERO PUSH2 0x211C JUMPI PUSH2 0x211B PUSH2 0x1B22 JUMP JUMPDEST JUMPDEST PUSH1 0x0 PUSH2 0x212A DUP5 DUP3 DUP6 ADD PUSH2 0x20F1 JUMP JUMPDEST SWAP2 POP POP SWAP3 SWAP2 POP POP JUMP JUMPDEST PUSH1 0x0 DUP2 SWAP1 POP SWAP3 SWAP2 POP POP JUMP JUMPDEST POP JUMP JUMPDEST PUSH1 0x0 PUSH2 0x214E PUSH1 0x0 DUP4 PUSH2 0x2133 JUMP JUMPDEST SWAP2 POP PUSH2 0x2159 DUP3 PUSH2 0x213E JUMP JUMPDEST PUSH1 0x0 DUP3 ADD SWAP1 POP SWAP2 SWAP1 POP JUMP JUMPDEST PUSH1 0x0 PUSH2 0x216F DUP3 PUSH2 0x2141 JUMP JUMPDEST SWAP2 POP DUP2 SWAP1 POP SWAP2 SWAP1 POP JUMP JUMPDEST PUSH1 0x0 PUSH1 0x60 DUP3 ADD SWAP1 POP PUSH2 0x218E PUSH1 0x0 DUP4 ADD DUP7 PUSH2 0x1E67 JUMP JUMPDEST PUSH2 0x219B PUSH1 0x20 DUP4 ADD DUP6 PUSH2 0x1E67 JUMP JUMPDEST PUSH2 0x21A8 PUSH1 0x40 DUP4 ADD DUP5 PUSH2 0x1DD0 JUMP JUMPDEST SWAP5 SWAP4 POP POP POP POP JUMP JUMPDEST PUSH2 0x21B9 DUP2 PUSH2 0x1C07 JUMP JUMPDEST DUP3 MSTORE POP POP JUMP JUMPDEST PUSH1 0x0 PUSH3 0xFFFFFF DUP3 AND SWAP1 POP SWAP2 SWAP1 POP JUMP JUMPDEST PUSH2 0x21D7 DUP2 PUSH2 0x21BF JUMP JUMPDEST DUP3 MSTORE POP POP JUMP JUMPDEST PUSH2 0x21E6 DUP2 PUSH2 0x1D1F JUMP JUMPDEST DUP3 MSTORE POP POP JUMP JUMPDEST PUSH2 0x21F5 DUP2 PUSH2 0x1BE7 JUMP JUMPDEST DUP3 MSTORE POP POP JUMP JUMPDEST PUSH2 0x100 DUP3 ADD PUSH1 0x0 DUP3 ADD MLOAD PUSH2 0x2212 PUSH1 0x0 DUP6 ADD DUP3 PUSH2 0x21B0 JUMP JUMPDEST POP PUSH1 0x20 DUP3 ADD MLOAD PUSH2 0x2225 PUSH1 0x20 DUP6 ADD DUP3 PUSH2 0x21B0 JUMP JUMPDEST POP PUSH1 0x40 DUP3 ADD MLOAD PUSH2 0x2238 PUSH1 0x40 DUP6 ADD DUP3 PUSH2 0x21CE JUMP JUMPDEST POP PUSH1 0x60 DUP3 ADD MLOAD PUSH2 0x224B PUSH1 0x60 DUP6 ADD DUP3 PUSH2 0x21B0 JUMP JUMPDEST POP PUSH1 0x80 DUP3 ADD MLOAD PUSH2 0x225E PUSH1 0x80 DUP6 ADD DUP3 PUSH2 0x21DD JUMP JUMPDEST POP PUSH1 0xA0 DUP3 ADD MLOAD PUSH2 0x2271 PUSH1 0xA0 DUP6 ADD DUP3 PUSH2 0x21DD JUMP JUMPDEST POP PUSH1 0xC0 DUP3 ADD MLOAD PUSH2 0x2284 PUSH1 0xC0 DUP6 ADD DUP3 PUSH2 0x21DD JUMP JUMPDEST POP PUSH1 0xE0 DUP3 ADD MLOAD PUSH2 0x2297 PUSH1 0xE0 DUP6 ADD DUP3 PUSH2 0x21EC JUMP JUMPDEST POP POP POP POP JUMP JUMPDEST PUSH1 0x0 PUSH2 0x100 DUP3 ADD SWAP1 POP PUSH2 0x22B3 PUSH1 0x0 DUP4 ADD DUP5 PUSH2 0x21FB JUMP JUMPDEST SWAP3 SWAP2 POP POP JUMP JUMPDEST PUSH32 0x4E487B7100000000000000000000000000000000000000000000000000000000 PUSH1 0x0 MSTORE PUSH1 0x11 PUSH1 0x4 MSTORE PUSH1 0x24 PUSH1 0x0 REVERT JUMPDEST PUSH1 0x0 PUSH2 0x22F3 DUP3 PUSH2 0x1D1F JUMP JUMPDEST SWAP2 POP PUSH2 0x22FE DUP4 PUSH2 0x1D1F JUMP JUMPDEST SWAP3 POP DUP3 DUP3 SUB SWAP1 POP DUP2 DUP2 GT ISZERO PUSH2 0x2316 JUMPI PUSH2 0x2315 PUSH2 0x22B9 JUMP JUMPDEST JUMPDEST SWAP3 SWAP2 POP POP JUMP JUMPDEST PUSH1 0x0 DUP1 REVERT JUMPDEST PUSH1 0x0 PUSH1 0x1F NOT PUSH1 0x1F DUP4 ADD AND SWAP1 POP SWAP2 SWAP1 POP JUMP JUMPDEST PUSH32 0x4E487B7100000000000000000000000000000000000000000000000000000000 PUSH1 0x0 MSTORE PUSH1 0x41 PUSH1 0x4 MSTORE PUSH1 0x24 PUSH1 0x0 REVERT JUMPDEST PUSH2 0x236A DUP3 PUSH2 0x2321 JUMP JUMPDEST DUP2 ADD DUP2 DUP2 LT PUSH8 0xFFFFFFFFFFFFFFFF DUP3 GT OR ISZERO PUSH2 0x2389 JUMPI PUSH2 0x2388 PUSH2 0x2332 JUMP JUMPDEST JUMPDEST DUP1 PUSH1 0x40 MSTORE POP POP POP JUMP JUMPDEST PUSH1 0x0 PUSH2 0x239C PUSH2 0x1B18 JUMP JUMPDEST SWAP1 POP PUSH2 0x23A8 DUP3 DUP3 PUSH2 0x2361 JUMP JUMPDEST SWAP2 SWAP1 POP JUMP JUMPDEST PUSH1 0x0 DUP1 REVERT JUMPDEST PUSH2 0x23BB DUP2 PUSH2 0x2012 JUMP JUMPDEST DUP2 EQ PUSH2 0x23C6 JUMPI PUSH1 0x0 DUP1 REVERT JUMPDEST POP JUMP JUMPDEST PUSH1 0x0 DUP2 CALLDATALOAD SWAP1 POP PUSH2 0x23D8 DUP2 PUSH2 0x23B2 JUMP JUMPDEST SWAP3 SWAP2 POP POP JUMP JUMPDEST PUSH1 0x0 DUP1 REVERT JUMPDEST PUSH1 0x0 DUP1 REVERT JUMPDEST PUSH1 0x0 PUSH8 0xFFFFFFFFFFFFFFFF DUP3 GT ISZERO PUSH2 0x2403 JUMPI PUSH2 0x2402 PUSH2 0x2332 JUMP JUMPDEST JUMPDEST PUSH2 0x240C DUP3 PUSH2 0x2321 JUMP JUMPDEST SWAP1 POP PUSH1 0x20 DUP2 ADD SWAP1 POP SWAP2 SWAP1 POP JUMP JUMPDEST DUP3 DUP2 DUP4 CALLDATACOPY PUSH1 0x0 DUP4 DUP4 ADD MSTORE POP POP POP JUMP JUMPDEST PUSH1 0x0 PUSH2 0x243B PUSH2 0x2436 DUP5 PUSH2 0x23E8 JUMP JUMPDEST PUSH2 0x2392 JUMP JUMPDEST SWAP1 POP DUP3 DUP2 MSTORE PUSH1 0x20 DUP2 ADD DUP5 DUP5 DUP5 ADD GT ISZERO PUSH2 0x2457 JUMPI PUSH2 0x2456 PUSH2 0x23E3 JUMP JUMPDEST JUMPDEST PUSH2 0x2462 DUP5 DUP3 DUP6 PUSH2 0x2419 JUMP JUMPDEST POP SWAP4 SWAP3 POP POP POP JUMP JUMPDEST PUSH1 0x0 DUP3 PUSH1 0x1F DUP4 ADD SLT PUSH2 0x247F JUMPI PUSH2 0x247E PUSH2 0x23DE JUMP JUMPDEST JUMPDEST DUP2 CALLDATALOAD PUSH2 0x248F DUP5 DUP3 PUSH1 0x20 DUP7 ADD PUSH2 0x2428 JUMP JUMPDEST SWAP2 POP POP SWAP3 SWAP2 POP POP JUMP JUMPDEST PUSH1 0x0 PUSH8 0xFFFFFFFFFFFFFFFF DUP3 GT ISZERO PUSH2 0x24B3 JUMPI PUSH2 0x24B2 PUSH2 0x2332 JUMP JUMPDEST JUMPDEST PUSH1 0x20 DUP3 MUL SWAP1 POP PUSH1 0x20 DUP2 ADD SWAP1 POP SWAP2 SWAP1 POP JUMP JUMPDEST PUSH1 0x0 DUP1 REVERT JUMPDEST PUSH1 0x0 PUSH1 0x40 DUP3 DUP5 SUB SLT ISZERO PUSH2 0x24DF JUMPI PUSH2 0x24DE PUSH2 0x231C JUMP JUMPDEST JUMPDEST PUSH2 0x24E9 PUSH1 0x40 PUSH2 0x2392 JUMP JUMPDEST SWAP1 POP PUSH1 0x0 PUSH2 0x24F9 DUP5 DUP3 DUP6 ADD PUSH2 0x1C30 JUMP JUMPDEST PUSH1 0x0 DUP4 ADD MSTORE POP PUSH1 0x20 PUSH2 0x250D DUP5 DUP3 DUP6 ADD PUSH2 0x1D40 JUMP JUMPDEST PUSH1 0x20 DUP4 ADD MSTORE POP SWAP3 SWAP2 POP POP JUMP JUMPDEST PUSH1 0x0 PUSH2 0x252C PUSH2 0x2527 DUP5 PUSH2 0x2498 JUMP JUMPDEST PUSH2 0x2392 JUMP JUMPDEST SWAP1 POP DUP1 DUP4 DUP3 MSTORE PUSH1 0x20 DUP3 ADD SWAP1 POP PUSH1 0x40 DUP5 MUL DUP4 ADD DUP6 DUP2 GT ISZERO PUSH2 0x254F JUMPI PUSH2 0x254E PUSH2 0x24C4 JUMP JUMPDEST JUMPDEST DUP4 JUMPDEST DUP2 DUP2 LT ISZERO PUSH2 0x2578 JUMPI DUP1 PUSH2 0x2564 DUP9 DUP3 PUSH2 0x24C9 JUMP JUMPDEST DUP5 MSTORE PUSH1 0x20 DUP5 ADD SWAP4 POP POP PUSH1 0x40 DUP2 ADD SWAP1 POP PUSH2 0x2551 JUMP JUMPDEST POP POP POP SWAP4 SWAP3 POP POP POP JUMP JUMPDEST PUSH1 0x0 DUP3 PUSH1 0x1F DUP4 ADD SLT PUSH2 0x2597 JUMPI PUSH2 0x2596 PUSH2 0x23DE JUMP JUMPDEST JUMPDEST DUP2 CALLDATALOAD PUSH2 0x25A7 DUP5 DUP3 PUSH1 0x20 DUP7 ADD PUSH2 0x2519 JUMP JUMPDEST SWAP2 POP POP SWAP3 SWAP2 POP POP JUMP JUMPDEST PUSH1 0x0 PUSH1 0xA0 DUP3 DUP5 SUB SLT ISZERO PUSH2 0x25C6 JUMPI PUSH2 0x25C5 PUSH2 0x231C JUMP JUMPDEST JUMPDEST PUSH2 0x25D0 PUSH1 0xA0 PUSH2 0x2392 JUMP JUMPDEST SWAP1 POP PUSH1 0x0 PUSH2 0x25E0 DUP5 DUP3 DUP6 ADD PUSH2 0x23C9 JUMP JUMPDEST PUSH1 0x0 DUP4 ADD MSTORE POP PUSH1 0x20 PUSH2 0x25F4 DUP5 DUP3 DUP6 ADD PUSH2 0x1CB0 JUMP JUMPDEST PUSH1 0x20 DUP4 ADD MSTORE POP PUSH1 0x40 DUP3 ADD CALLDATALOAD PUSH8 0xFFFFFFFFFFFFFFFF DUP2 GT ISZERO PUSH2 0x2618 JUMPI PUSH2 0x2617 PUSH2 0x23AD JUMP JUMPDEST JUMPDEST PUSH2 0x2624 DUP5 DUP3 DUP6 ADD PUSH2 0x246A JUMP JUMPDEST PUSH1 0x40 DUP4 ADD MSTORE POP PUSH1 0x60 DUP3 ADD CALLDATALOAD PUSH8 0xFFFFFFFFFFFFFFFF DUP2 GT ISZERO PUSH2 0x2648 JUMPI PUSH2 0x2647 PUSH2 0x23AD JUMP JUMPDEST JUMPDEST PUSH2 0x2654 DUP5 DUP3 DUP6 ADD PUSH2 0x246A JUMP JUMPDEST PUSH1 0x60 DUP4 ADD MSTORE POP PUSH1 0x80 DUP3 ADD CALLDATALOAD PUSH8 0xFFFFFFFFFFFFFFFF DUP2 GT ISZERO PUSH2 0x2678 JUMPI PUSH2 0x2677 PUSH2 0x23AD JUMP JUMPDEST JUMPDEST PUSH2 0x2684 DUP5 DUP3 DUP6 ADD PUSH2 0x2582 JUMP JUMPDEST PUSH1 0x80 DUP4 ADD MSTORE POP SWAP3 SWAP2 POP POP JUMP JUMPDEST PUSH1 0x0 PUSH2 0x269C CALLDATASIZE DUP4 PUSH2 0x25B0 JUMP JUMPDEST SWAP1 POP SWAP2 SWAP1 POP JUMP JUMPDEST PUSH2 0x26AC DUP2 PUSH2 0x1C85 JUMP JUMPDEST DUP3 MSTORE POP POP JUMP JUMPDEST PUSH1 0x0 PUSH1 0x20 DUP3 ADD SWAP1 POP PUSH2 0x26C7 PUSH1 0x0 DUP4 ADD DUP5 PUSH2 0x26A3 JUMP JUMPDEST SWAP3 SWAP2 POP POP JUMP JUMPDEST PUSH1 0x0 DUP2 MLOAD SWAP1 POP PUSH2 0x26DC DUP2 PUSH2 0x1C19 JUMP JUMPDEST SWAP3 SWAP2 POP POP JUMP JUMPDEST PUSH1 0x0 PUSH1 0x20 DUP3 DUP5 SUB SLT ISZERO PUSH2 0x26F8 JUMPI PUSH2 0x26F7 PUSH2 0x1B22 JUMP JUMPDEST JUMPDEST PUSH1 0x0 PUSH2 0x2706 DUP5 DUP3 DUP6 ADD PUSH2 0x26CD JUMP JUMPDEST SWAP2 POP POP SWAP3 SWAP2 POP POP JUMP JUMPDEST PUSH1 0x0 DUP2 MLOAD SWAP1 POP SWAP2 SWAP1 POP JUMP JUMPDEST PUSH1 0x0 DUP3 DUP3 MSTORE PUSH1 0x20 DUP3 ADD SWAP1 POP SWAP3 SWAP2 POP POP JUMP JUMPDEST PUSH1 0x0 JUMPDEST DUP4 DUP2 LT ISZERO PUSH2 0x2749 JUMPI DUP1 DUP3 ADD MLOAD DUP2 DUP5 ADD MSTORE PUSH1 0x20 DUP2 ADD SWAP1 POP PUSH2 0x272E JUMP JUMPDEST PUSH1 0x0 DUP5 DUP5 ADD MSTORE POP POP POP POP JUMP JUMPDEST PUSH1 0x0 PUSH2 0x2760 DUP3 PUSH2 0x270F JUMP JUMPDEST PUSH2 0x276A DUP2 DUP6 PUSH2 0x271A JUMP JUMPDEST SWAP4 POP PUSH2 0x277A DUP2 DUP6 PUSH1 0x20 DUP7 ADD PUSH2 0x272B JUMP JUMPDEST PUSH2 0x2783 DUP2 PUSH2 0x2321 JUMP JUMPDEST DUP5 ADD SWAP2 POP POP SWAP3 SWAP2 POP POP JUMP JUMPDEST PUSH1 0x0 DUP2 MLOAD SWAP1 POP SWAP2 SWAP1 POP JUMP JUMPDEST PUSH1 0x0 DUP3 DUP3 MSTORE PUSH1 0x20 DUP3 ADD SWAP1 POP SWAP3 SWAP2 POP POP JUMP JUMPDEST PUSH1 0x0 DUP2 SWAP1 POP PUSH1 0x20 DUP3 ADD SWAP1 POP SWAP2 SWAP1 POP JUMP JUMPDEST PUSH1 0x40 DUP3 ADD PUSH1 0x0 DUP3 ADD MLOAD PUSH2 0x27D0 PUSH1 0x0 DUP6 ADD DUP3 PUSH2 0x21B0 JUMP JUMPDEST POP PUSH1 0x20 DUP3 ADD MLOAD PUSH2 0x27E3 PUSH1 0x20 DUP6 ADD DUP3 PUSH2 0x21DD JUMP JUMPDEST POP POP POP POP JUMP JUMPDEST PUSH1 0x0 PUSH2 0x27F5 DUP4 DUP4 PUSH2 0x27BA JUMP JUMPDEST PUSH1 0x40 DUP4 ADD SWAP1 POP SWAP3 SWAP2 POP POP JUMP JUMPDEST PUSH1 0x0 PUSH1 0x20 DUP3 ADD SWAP1 POP SWAP2 SWAP1 POP JUMP JUMPDEST PUSH1 0x0 PUSH2 0x2819 DUP3 PUSH2 0x278E JUMP JUMPDEST PUSH2 0x2823 DUP2 DUP6 PUSH2 0x2799 JUMP JUMPDEST SWAP4 POP PUSH2 0x282E DUP4 PUSH2 0x27AA JUMP JUMPDEST DUP1 PUSH1 0x0 JUMPDEST DUP4 DUP2 LT ISZERO PUSH2 0x285F JUMPI DUP2 MLOAD PUSH2 0x2846 DUP9 DUP3 PUSH2 0x27E9 JUMP JUMPDEST SWAP8 POP PUSH2 0x2851 DUP4 PUSH2 0x2801 JUMP JUMPDEST SWAP3 POP POP PUSH1 0x1 DUP2 ADD SWAP1 POP PUSH2 0x2832 JUMP JUMPDEST POP DUP6 SWAP4 POP POP POP POP SWAP3 SWAP2 POP POP JUMP JUMPDEST PUSH1 0x0 PUSH1 0xA0 DUP4 ADD PUSH1 0x0 DUP4 ADD MLOAD DUP5 DUP3 SUB PUSH1 0x0 DUP7 ADD MSTORE PUSH2 0x2889 DUP3 DUP3 PUSH2 0x2755 JUMP JUMPDEST SWAP2 POP POP PUSH1 0x20 DUP4 ADD MLOAD DUP5 DUP3 SUB PUSH1 0x20 DUP7 ADD MSTORE PUSH2 0x28A3 DUP3 DUP3 PUSH2 0x2755 JUMP JUMPDEST SWAP2 POP POP PUSH1 0x40 DUP4 ADD MLOAD DUP5 DUP3 SUB PUSH1 0x40 DUP7 ADD MSTORE PUSH2 0x28BD DUP3 DUP3 PUSH2 0x280E JUMP JUMPDEST SWAP2 POP POP PUSH1 0x60 DUP4 ADD MLOAD PUSH2 0x28D2 PUSH1 0x60 DUP7 ADD DUP3 PUSH2 0x21B0 JUMP JUMPDEST POP PUSH1 0x80 DUP4 ADD MLOAD DUP5 DUP3 SUB PUSH1 0x80 DUP7 ADD MSTORE PUSH2 0x28EA DUP3 DUP3 PUSH2 0x2755 JUMP JUMPDEST SWAP2 POP POP DUP1 SWAP2 POP POP SWAP3 SWAP2 POP POP JUMP JUMPDEST PUSH1 0x0 PUSH1 0x40 DUP3 ADD SWAP1 POP PUSH2 0x290C PUSH1 0x0 DUP4 ADD DUP6 PUSH2 0x26A3 JUMP JUMPDEST DUP2 DUP2 SUB PUSH1 0x20 DUP4 ADD MSTORE PUSH2 0x291E DUP2 DUP5 PUSH2 0x286C JUMP JUMPDEST SWAP1 POP SWAP4 SWAP3 POP POP POP JUMP JUMPDEST PUSH1 0x0 PUSH1 0x40 DUP3 ADD SWAP1 POP PUSH2 0x293C PUSH1 0x0 DUP4 ADD DUP6 PUSH2 0x1DD0 JUMP JUMPDEST PUSH2 0x2949 PUSH1 0x20 DUP4 ADD DUP5 PUSH2 0x1DD0 JUMP JUMPDEST SWAP4 SWAP3 POP POP POP JUMP JUMPDEST PUSH1 0x0 DUP2 MLOAD SWAP1 POP PUSH2 0x295F DUP2 PUSH2 0x23B2 JUMP JUMPDEST SWAP3 SWAP2 POP POP JUMP JUMPDEST PUSH1 0x0 PUSH1 0x20 DUP3 DUP5 SUB SLT ISZERO PUSH2 0x297B JUMPI PUSH2 0x297A PUSH2 0x1B22 JUMP JUMPDEST JUMPDEST PUSH1 0x0 PUSH2 0x2989 DUP5 DUP3 DUP6 ADD PUSH2 0x2950 JUMP JUMPDEST SWAP2 POP POP SWAP3 SWAP2 POP POP JUMP JUMPDEST PUSH1 0x0 PUSH2 0x29A1 PUSH1 0x20 DUP5 ADD DUP5 PUSH2 0x1C30 JUMP JUMPDEST SWAP1 POP SWAP3 SWAP2 POP POP JUMP JUMPDEST PUSH1 0x0 PUSH2 0x29B8 PUSH1 0x20 DUP5 ADD DUP5 PUSH2 0x1D40 JUMP JUMPDEST SWAP1 POP SWAP3 SWAP2 POP POP JUMP JUMPDEST PUSH1 0x80 DUP3 ADD PUSH2 0x29D1 PUSH1 0x0 DUP4 ADD DUP4 PUSH2 0x2992 JUMP JUMPDEST PUSH2 0x29DE PUSH1 0x0 DUP6 ADD DUP3 PUSH2 0x21B0 JUMP JUMPDEST POP PUSH2 0x29EC PUSH1 0x20 DUP4 ADD DUP4 PUSH2 0x2992 JUMP JUMPDEST PUSH2 0x29F9 PUSH1 0x20 DUP6 ADD DUP3 PUSH2 0x21B0 JUMP JUMPDEST POP PUSH2 0x2A07 PUSH1 0x40 DUP4 ADD DUP4 PUSH2 0x2992 JUMP JUMPDEST PUSH2 0x2A14 PUSH1 0x40 DUP6 ADD DUP3 PUSH2 0x21B0 JUMP JUMPDEST POP PUSH2 0x2A22 PUSH1 0x60 DUP4 ADD DUP4 PUSH2 0x29A9 JUMP JUMPDEST PUSH2 0x2A2F PUSH1 0x60 DUP6 ADD DUP3 PUSH2 0x21DD JUMP JUMPDEST POP POP POP POP JUMP JUMPDEST PUSH1 0x0 PUSH2 0x100 DUP3 ADD SWAP1 POP PUSH2 0x2A4B PUSH1 0x0 DUP4 ADD DUP9 PUSH2 0x1E67 JUMP JUMPDEST PUSH2 0x2A58 PUSH1 0x20 DUP4 ADD DUP8 PUSH2 0x29C0 JUMP JUMPDEST PUSH2 0x2A65 PUSH1 0xA0 DUP4 ADD DUP7 PUSH2 0x1E67 JUMP JUMPDEST PUSH2 0x2A72 PUSH1 0xC0 DUP4 ADD DUP6 PUSH2 0x1DD0 JUMP JUMPDEST PUSH2 0x2A7F PUSH1 0xE0 DUP4 ADD DUP5 PUSH2 0x1DD0 JUMP JUMPDEST SWAP7 SWAP6 POP POP POP POP POP POP JUMP JUMPDEST PUSH1 0x0 PUSH2 0x2A94 DUP3 PUSH2 0x270F JUMP JUMPDEST PUSH2 0x2A9E DUP2 DUP6 PUSH2 0x2133 JUMP JUMPDEST SWAP4 POP PUSH2 0x2AAE DUP2 DUP6 PUSH1 0x20 DUP7 ADD PUSH2 0x272B JUMP JUMPDEST DUP1 DUP5 ADD SWAP2 POP POP SWAP3 SWAP2 POP POP JUMP JUMPDEST PUSH1 0x0 PUSH2 0x2AC6 DUP3 DUP5 PUSH2 0x2A89 JUMP JUMPDEST SWAP2 POP DUP2 SWAP1 POP SWAP3 SWAP2 POP POP JUMP JUMPDEST PUSH1 0x0 DUP3 DUP3 MSTORE PUSH1 0x20 DUP3 ADD SWAP1 POP SWAP3 SWAP2 POP POP JUMP JUMPDEST PUSH32 0x5341000000000000000000000000000000000000000000000000000000000000 PUSH1 0x0 DUP3 ADD MSTORE POP JUMP JUMPDEST PUSH1 0x0 PUSH2 0x2B18 PUSH1 0x2 DUP4 PUSH2 0x2AD1 JUMP JUMPDEST SWAP2 POP PUSH2 0x2B23 DUP3 PUSH2 0x2AE2 JUMP JUMPDEST PUSH1 0x20 DUP3 ADD SWAP1 POP SWAP2 SWAP1 POP JUMP JUMPDEST PUSH1 0x0 PUSH1 0x20 DUP3 ADD SWAP1 POP DUP2 DUP2 SUB PUSH1 0x0 DUP4 ADD MSTORE PUSH2 0x2B47 DUP2 PUSH2 0x2B0B JUMP JUMPDEST SWAP1 POP SWAP2 SWAP1 POP JUMP JUMPDEST PUSH32 0x5354000000000000000000000000000000000000000000000000000000000000 PUSH1 0x0 DUP3 ADD MSTORE POP JUMP JUMPDEST PUSH1 0x0 PUSH2 0x2B84 PUSH1 0x2 DUP4 PUSH2 0x2AD1 JUMP JUMPDEST SWAP2 POP PUSH2 0x2B8F DUP3 PUSH2 0x2B4E JUMP JUMPDEST PUSH1 0x20 DUP3 ADD SWAP1 POP SWAP2 SWAP1 POP JUMP JUMPDEST PUSH1 0x0 PUSH1 0x20 DUP3 ADD SWAP1 POP DUP2 DUP2 SUB PUSH1 0x0 DUP4 ADD MSTORE PUSH2 0x2BB3 DUP2 PUSH2 0x2B77 JUMP JUMPDEST SWAP1 POP SWAP2 SWAP1 POP JUMP JUMPDEST PUSH1 0x0 PUSH2 0x2BC5 DUP3 PUSH2 0x1BE7 JUMP JUMPDEST SWAP1 POP SWAP2 SWAP1 POP JUMP JUMPDEST PUSH2 0x2BD5 DUP2 PUSH2 0x2BBA JUMP JUMPDEST DUP2 EQ PUSH2 0x2BE0 JUMPI PUSH1 0x0 DUP1 REVERT JUMPDEST POP JUMP JUMPDEST PUSH1 0x0 DUP2 MLOAD SWAP1 POP PUSH2 0x2BF2 DUP2 PUSH2 0x2BCC JUMP JUMPDEST SWAP3 SWAP2 POP POP JUMP JUMPDEST PUSH1 0x0 PUSH1 0x20 DUP3 DUP5 SUB SLT ISZERO PUSH2 0x2C0E JUMPI PUSH2 0x2C0D PUSH2 0x1B22 JUMP JUMPDEST JUMPDEST PUSH1 0x0 PUSH2 0x2C1C DUP5 DUP3 DUP6 ADD PUSH2 0x2BE3 JUMP JUMPDEST SWAP2 POP POP SWAP3 SWAP2 POP POP JUMP JUMPDEST PUSH1 0x0 PUSH1 0x80 DUP3 DUP5 SUB SLT ISZERO PUSH2 0x2C3B JUMPI PUSH2 0x2C3A PUSH2 0x231C JUMP JUMPDEST JUMPDEST PUSH2 0x2C45 PUSH1 0x80 PUSH2 0x2392 JUMP JUMPDEST SWAP1 POP PUSH1 0x0 PUSH2 0x2C55 DUP5 DUP3 DUP6 ADD PUSH2 0x26CD JUMP JUMPDEST PUSH1 0x0 DUP4 ADD MSTORE POP PUSH1 0x20 PUSH2 0x2C69 DUP5 DUP3 DUP6 ADD PUSH2 0x26CD JUMP JUMPDEST PUSH1 0x20 DUP4 ADD MSTORE POP PUSH1 0x40 PUSH2 0x2C7D DUP5 DUP3 DUP6 ADD PUSH2 0x26CD JUMP JUMPDEST PUSH1 0x40 DUP4 ADD MSTORE POP PUSH1 0x60 PUSH2 0x2C91 DUP5 DUP3 DUP6 ADD PUSH2 0x2086 JUMP JUMPDEST PUSH1 0x60 DUP4 ADD MSTORE POP SWAP3 SWAP2 POP POP JUMP JUMPDEST PUSH1 0x0 PUSH1 0x80 DUP3 DUP5 SUB SLT ISZERO PUSH2 0x2CB3 JUMPI PUSH2 0x2CB2 PUSH2 0x1B22 JUMP JUMPDEST JUMPDEST PUSH1 0x0 PUSH2 0x2CC1 DUP5 DUP3 DUP6 ADD PUSH2 0x2C25 JUMP JUMPDEST SWAP2 POP POP SWAP3 SWAP2 POP POP JUMP JUMPDEST PUSH32 0x4E487B7100000000000000000000000000000000000000000000000000000000 PUSH1 0x0 MSTORE PUSH1 0x32 PUSH1 0x4 MSTORE PUSH1 0x24 PUSH1 0x0 REVERT JUMPDEST PUSH1 0x0 PUSH1 0xA0 DUP3 ADD SWAP1 POP PUSH2 0x2D0E PUSH1 0x0 DUP4 ADD DUP9 PUSH2 0x1E67 JUMP JUMPDEST PUSH2 0x2D1B PUSH1 0x20 DUP4 ADD DUP8 PUSH2 0x1DD0 JUMP JUMPDEST PUSH2 0x2D28 PUSH1 0x40 DUP4 ADD DUP7 PUSH2 0x1E67 JUMP JUMPDEST PUSH2 0x2D35 PUSH1 0x60 DUP4 ADD DUP6 PUSH2 0x1DD0 JUMP JUMPDEST PUSH2 0x2D42 PUSH1 0x80 DUP4 ADD DUP5 PUSH2 0x1E67 JUMP JUMPDEST SWAP7 SWAP6 POP POP POP POP POP POP JUMP JUMPDEST PUSH1 0x0 PUSH2 0x2D57 DUP3 PUSH2 0x1F29 JUMP JUMPDEST SWAP1 POP SWAP2 SWAP1 POP JUMP JUMPDEST PUSH2 0x2D67 DUP2 PUSH2 0x2D4C JUMP JUMPDEST DUP3 MSTORE POP POP JUMP JUMPDEST PUSH1 0x80 DUP3 ADD PUSH1 0x0 DUP3 ADD MLOAD PUSH2 0x2D83 PUSH1 0x0 DUP6 ADD DUP3 PUSH2 0x21B0 JUMP JUMPDEST POP PUSH1 0x20 DUP3 ADD MLOAD PUSH2 0x2D96 PUSH1 0x20 DUP6 ADD DUP3 PUSH2 0x21B0 JUMP JUMPDEST POP PUSH1 0x40 DUP3 ADD MLOAD PUSH2 0x2DA9 PUSH1 0x40 DUP6 ADD DUP3 PUSH2 0x21B0 JUMP JUMPDEST POP PUSH1 0x60 DUP3 ADD MLOAD PUSH2 0x2DBC PUSH1 0x60 DUP6 ADD DUP3 PUSH2 0x21DD JUMP JUMPDEST POP POP POP POP JUMP JUMPDEST PUSH1 0x0 PUSH1 0xE0 DUP3 ADD SWAP1 POP PUSH2 0x2DD7 PUSH1 0x0 DUP4 ADD DUP8 PUSH2 0x2D5E JUMP JUMPDEST PUSH2 0x2DE4 PUSH1 0x20 DUP4 ADD DUP7 PUSH2 0x2D6D JUMP JUMPDEST PUSH2 0x2DF1 PUSH1 0xA0 DUP4 ADD DUP6 PUSH2 0x1E67 JUMP JUMPDEST PUSH2 0x2DFE PUSH1 0xC0 DUP4 ADD DUP5 PUSH2 0x1DD0 JUMP JUMPDEST SWAP6 SWAP5 POP POP POP POP POP JUMP JUMPDEST PUSH1 0x0 PUSH1 0x80 DUP3 ADD SWAP1 POP PUSH2 0x2E1C PUSH1 0x0 DUP4 ADD DUP5 PUSH2 0x29C0 JUMP JUMPDEST SWAP3 SWAP2 POP POP JUMP JUMPDEST PUSH1 0x20 DUP3 ADD PUSH1 0x0 DUP3 ADD MLOAD PUSH2 0x2E38 PUSH1 0x0 DUP6 ADD DUP3 PUSH2 0x21DD JUMP JUMPDEST POP POP POP POP JUMP JUMPDEST PUSH1 0x0 PUSH1 0x20 DUP3 ADD SWAP1 POP PUSH2 0x2E53 PUSH1 0x0 DUP4 ADD DUP5 PUSH2 0x2E22 JUMP JUMPDEST SWAP3 SWAP2 POP POP JUMP INVALID LOG2 PUSH5 0x6970667358 0x22 SLT KECCAK256 PUSH2 0xB290 SWAP9 0xB8 DUP4 PUSH2 0xF6BD 0xA6 PUSH28 0x176CA5DB6A5367991A41AE0AB7806AA30F9E14224364736F6C634300 ADDMOD NOT STOP CALLER "},"methodIdentifiers":{"allowlistDestinationChain(uint64,bool)":"96d3b83d","allowlistSender(address,bool)":"eab5b02c","allowlistSourceChain(uint64,bool)":"db04fa49","allowlistedDestinationChains(uint64)":"75c67c66","allowlistedSenders(address)":"6159ada1","allowlistedSourceChains(uint64)":"4030d521","ccipReceive((bytes32,uint64,bytes,bytes,(address,uint256)[]))":"85572ffb","getRouter()":"b0f479a1","owner()":"8da5cb5b","renounceOwnership()":"715018a6","supportsInterface(bytes4)":"01ffc9a7","swapExactOutputSingle(address,uint256,address,uint256,address)":"5f299cbe","swapRouter()":"c31c9c07","transferOwnership(address)":"f2fde38b","transferToken(uint64,address,(address,address,address,uint256),address,uint256)":"d1ee0dd0","withdraw(address)":"51cff8d9","withdrawToken(address,address)":"3aeac4e1"}}}}}