{
  "_format": "hh-sol-artifact-1",
  "contractName": "ProgrammableTokenTransfer",
  "sourceName": "contracts/ProgrammableTokenTransfer.sol",
  "abi": [
    {
      "inputs": [
        {
          "internalType": "address",
          "name": "_owner",
          "type": "address"
        },
        {
          "internalType": "address",
          "name": "_router",
          "type": "address"
        }
      ],
      "stateMutability": "nonpayable",
      "type": "constructor"
    },
    {
      "inputs": [
        {
          "internalType": "uint64",
          "name": "destinationChainSelector",
          "type": "uint64"
        }
      ],
      "name": "DestinationChainNotAllowed",
      "type": "error"
    },
    {
      "inputs": [
        {
          "internalType": "address",
          "name": "owner",
          "type": "address"
        },
        {
          "internalType": "address",
          "name": "target",
          "type": "address"
        },
        {
          "internalType": "uint256",
          "name": "value",
          "type": "uint256"
        }
      ],
      "name": "FailedToWithdrawEth",
      "type": "error"
    },
    {
      "inputs": [],
      "name": "InvalidBeneficiaryAddress",
      "type": "error"
    },
    {
      "inputs": [],
      "name": "InvalidPayerAddress",
      "type": "error"
    },
    {
      "inputs": [],
      "name": "InvalidReceiverAddress",
      "type": "error"
    },
    {
      "inputs": [
        {
          "internalType": "address",
          "name": "router",
          "type": "address"
        }
      ],
      "name": "InvalidRouter",
      "type": "error"
    },
    {
      "inputs": [],
      "name": "InvalidTokenAddress",
      "type": "error"
    },
    {
      "inputs": [],
      "name": "InvalidTransferAmount",
      "type": "error"
    },
    {
      "inputs": [
        {
          "internalType": "uint256",
          "name": "currentBalance",
          "type": "uint256"
        },
        {
          "internalType": "uint256",
          "name": "calculatedFees",
          "type": "uint256"
        }
      ],
      "name": "NotEnoughBalance",
      "type": "error"
    },
    {
      "inputs": [],
      "name": "NothingToWithdraw",
      "type": "error"
    },
    {
      "inputs": [
        {
          "internalType": "address",
          "name": "owner",
          "type": "address"
        }
      ],
      "name": "OwnableInvalidOwner",
      "type": "error"
    },
    {
      "inputs": [
        {
          "internalType": "address",
          "name": "account",
          "type": "address"
        }
      ],
      "name": "OwnableUnauthorizedAccount",
      "type": "error"
    },
    {
      "inputs": [
        {
          "internalType": "address",
          "name": "sender",
          "type": "address"
        }
      ],
      "name": "SenderNotAllowed",
      "type": "error"
    },
    {
      "inputs": [
        {
          "internalType": "uint64",
          "name": "sourceChainSelector",
          "type": "uint64"
        }
      ],
      "name": "SourceChainNotAllowed",
      "type": "error"
    },
    {
      "anonymous": false,
      "inputs": [
        {
          "indexed": true,
          "internalType": "bytes32",
          "name": "messageId",
          "type": "bytes32"
        },
        {
          "indexed": true,
          "internalType": "uint64",
          "name": "sourceChainSelector",
          "type": "uint64"
        },
        {
          "indexed": false,
          "internalType": "address",
          "name": "sender",
          "type": "address"
        },
        {
          "components": [
            {
              "internalType": "address",
              "name": "payer",
              "type": "address"
            },
            {
              "internalType": "address",
              "name": "beneficiary",
              "type": "address"
            }
          ],
          "indexed": false,
          "internalType": "struct ProgrammableTokenTransfer.TransferData",
          "name": "data",
          "type": "tuple"
        },
        {
          "indexed": false,
          "internalType": "address",
          "name": "token",
          "type": "address"
        },
        {
          "indexed": false,
          "internalType": "uint256",
          "name": "tokenAmount",
          "type": "uint256"
        }
      ],
      "name": "MessageReceived",
      "type": "event"
    },
    {
      "anonymous": false,
      "inputs": [
        {
          "indexed": true,
          "internalType": "bytes32",
          "name": "messageId",
          "type": "bytes32"
        },
        {
          "indexed": true,
          "internalType": "uint64",
          "name": "destinationChainSelector",
          "type": "uint64"
        },
        {
          "indexed": false,
          "internalType": "address",
          "name": "receiver",
          "type": "address"
        },
        {
          "components": [
            {
              "internalType": "address",
              "name": "payer",
              "type": "address"
            },
            {
              "internalType": "address",
              "name": "beneficiary",
              "type": "address"
            }
          ],
          "indexed": false,
          "internalType": "struct ProgrammableTokenTransfer.TransferData",
          "name": "data",
          "type": "tuple"
        },
        {
          "indexed": false,
          "internalType": "address",
          "name": "token",
          "type": "address"
        },
        {
          "indexed": false,
          "internalType": "uint256",
          "name": "tokenAmount",
          "type": "uint256"
        },
        {
          "indexed": false,
          "internalType": "uint256",
          "name": "fees",
          "type": "uint256"
        }
      ],
      "name": "MessageSent",
      "type": "event"
    },
    {
      "anonymous": false,
      "inputs": [
        {
          "indexed": true,
          "internalType": "address",
          "name": "previousOwner",
          "type": "address"
        },
        {
          "indexed": true,
          "internalType": "address",
          "name": "newOwner",
          "type": "address"
        }
      ],
      "name": "OwnershipTransferred",
      "type": "event"
    },
    {
      "inputs": [
        {
          "internalType": "uint64",
          "name": "_destinationChainSelector",
          "type": "uint64"
        },
        {
          "internalType": "bool",
          "name": "allowed",
          "type": "bool"
        }
      ],
      "name": "allowlistDestinationChain",
      "outputs": [],
      "stateMutability": "nonpayable",
      "type": "function"
    },
    {
      "inputs": [
        {
          "internalType": "address",
          "name": "_sender",
          "type": "address"
        },
        {
          "internalType": "bool",
          "name": "allowed",
          "type": "bool"
        }
      ],
      "name": "allowlistSender",
      "outputs": [],
      "stateMutability": "nonpayable",
      "type": "function"
    },
    {
      "inputs": [
        {
          "internalType": "uint64",
          "name": "_sourceChainSelector",
          "type": "uint64"
        },
        {
          "internalType": "bool",
          "name": "allowed",
          "type": "bool"
        }
      ],
      "name": "allowlistSourceChain",
      "outputs": [],
      "stateMutability": "nonpayable",
      "type": "function"
    },
    {
      "inputs": [
        {
          "internalType": "uint64",
          "name": "",
          "type": "uint64"
        }
      ],
      "name": "allowlistedDestinationChains",
      "outputs": [
        {
          "internalType": "bool",
          "name": "",
          "type": "bool"
        }
      ],
      "stateMutability": "view",
      "type": "function"
    },
    {
      "inputs": [
        {
          "internalType": "address",
          "name": "",
          "type": "address"
        }
      ],
      "name": "allowlistedSenders",
      "outputs": [
        {
          "internalType": "bool",
          "name": "",
          "type": "bool"
        }
      ],
      "stateMutability": "view",
      "type": "function"
    },
    {
      "inputs": [
        {
          "internalType": "uint64",
          "name": "",
          "type": "uint64"
        }
      ],
      "name": "allowlistedSourceChains",
      "outputs": [
        {
          "internalType": "bool",
          "name": "",
          "type": "bool"
        }
      ],
      "stateMutability": "view",
      "type": "function"
    },
    {
      "inputs": [
        {
          "components": [
            {
              "internalType": "bytes32",
              "name": "messageId",
              "type": "bytes32"
            },
            {
              "internalType": "uint64",
              "name": "sourceChainSelector",
              "type": "uint64"
            },
            {
              "internalType": "bytes",
              "name": "sender",
              "type": "bytes"
            },
            {
              "internalType": "bytes",
              "name": "data",
              "type": "bytes"
            },
            {
              "components": [
                {
                  "internalType": "address",
                  "name": "token",
                  "type": "address"
                },
                {
                  "internalType": "uint256",
                  "name": "amount",
                  "type": "uint256"
                }
              ],
              "internalType": "struct Client.EVMTokenAmount[]",
              "name": "destTokenAmounts",
              "type": "tuple[]"
            }
          ],
          "internalType": "struct Client.Any2EVMMessage",
          "name": "message",
          "type": "tuple"
        }
      ],
      "name": "ccipReceive",
      "outputs": [],
      "stateMutability": "nonpayable",
      "type": "function"
    },
    {
      "inputs": [],
      "name": "getRouter",
      "outputs": [
        {
          "internalType": "address",
          "name": "",
          "type": "address"
        }
      ],
      "stateMutability": "view",
      "type": "function"
    },
    {
      "inputs": [],
      "name": "owner",
      "outputs": [
        {
          "internalType": "address",
          "name": "",
          "type": "address"
        }
      ],
      "stateMutability": "view",
      "type": "function"
    },
    {
      "inputs": [],
      "name": "renounceOwnership",
      "outputs": [],
      "stateMutability": "nonpayable",
      "type": "function"
    },
    {
      "inputs": [
        {
          "internalType": "bytes4",
          "name": "interfaceId",
          "type": "bytes4"
        }
      ],
      "name": "supportsInterface",
      "outputs": [
        {
          "internalType": "bool",
          "name": "",
          "type": "bool"
        }
      ],
      "stateMutability": "pure",
      "type": "function"
    },
    {
      "inputs": [
        {
          "internalType": "address",
          "name": "newOwner",
          "type": "address"
        }
      ],
      "name": "transferOwnership",
      "outputs": [],
      "stateMutability": "nonpayable",
      "type": "function"
    },
    {
      "inputs": [
        {
          "internalType": "uint64",
          "name": "_destinationChainSelector",
          "type": "uint64"
        },
        {
          "internalType": "address",
          "name": "_receiver",
          "type": "address"
        },
        {
          "components": [
            {
              "internalType": "address",
              "name": "payer",
              "type": "address"
            },
            {
              "internalType": "address",
              "name": "beneficiary",
              "type": "address"
            }
          ],
          "internalType": "struct ProgrammableTokenTransfer.TransferData",
          "name": "_data",
          "type": "tuple"
        },
        {
          "internalType": "address",
          "name": "_token",
          "type": "address"
        },
        {
          "internalType": "uint256",
          "name": "_amount",
          "type": "uint256"
        }
      ],
      "name": "transferToken",
      "outputs": [
        {
          "internalType": "bytes32",
          "name": "messageId",
          "type": "bytes32"
        }
      ],
      "stateMutability": "nonpayable",
      "type": "function"
    },
    {
      "inputs": [
        {
          "internalType": "address",
          "name": "_beneficiary",
          "type": "address"
        }
      ],
      "name": "withdraw",
      "outputs": [],
      "stateMutability": "nonpayable",
      "type": "function"
    },
    {
      "inputs": [
        {
          "internalType": "address",
          "name": "_beneficiary",
          "type": "address"
        },
        {
          "internalType": "address",
          "name": "_token",
          "type": "address"
        }
      ],
      "name": "withdrawToken",
      "outputs": [],
      "stateMutability": "nonpayable",
      "type": "function"
    },
    {
      "stateMutability": "payable",
      "type": "receive"
    }
  ],
  "bytecode": "0x60a060405234801561001057600080fd5b506040516127213803806127218339818101604052810190610032919061028b565b8181600073ffffffffffffffffffffffffffffffffffffffff168173ffffffffffffffffffffffffffffffffffffffff16036100a65760006040517fd7f7333400000000000000000000000000000000000000000000000000000000815260040161009d91906102da565b60405180910390fd5b8073ffffffffffffffffffffffffffffffffffffffff1660808173ffffffffffffffffffffffffffffffffffffffff168152505050600073ffffffffffffffffffffffffffffffffffffffff168173ffffffffffffffffffffffffffffffffffffffff160361014d5760006040517f1e4fbdf700000000000000000000000000000000000000000000000000000000815260040161014491906102da565b60405180910390fd5b61015c8161016460201b60201c565b5050506102f5565b60008060009054906101000a900473ffffffffffffffffffffffffffffffffffffffff169050816000806101000a81548173ffffffffffffffffffffffffffffffffffffffff021916908373ffffffffffffffffffffffffffffffffffffffff1602179055508173ffffffffffffffffffffffffffffffffffffffff168173ffffffffffffffffffffffffffffffffffffffff167f8be0079c531659141344cd1fd0a4f28419497f9722a3daafe3b4186f6b6457e060405160405180910390a35050565b600080fd5b600073ffffffffffffffffffffffffffffffffffffffff82169050919050565b60006102588261022d565b9050919050565b6102688161024d565b811461027357600080fd5b50565b6000815190506102858161025f565b92915050565b600080604083850312156102a2576102a1610228565b5b60006102b085828601610276565b92505060206102c185828601610276565b9150509250929050565b6102d48161024d565b82525050565b60006020820190506102ef60008301846102cb565b92915050565b60805161240a6103176000396000818161073f015261085a015261240a6000f3fe6080604052600436106100ec5760003560e01c806385572ffb1161008a578063b892eaff11610059578063b892eaff146102fd578063db04fa491461033a578063eab5b02c14610363578063f2fde38b1461038c576100f3565b806385572ffb146102555780638da5cb5b1461027e57806396d3b83d146102a9578063b0f479a1146102d2576100f3565b806351cff8d9116100c657806351cff8d91461019b5780636159ada1146101c4578063715018a61461020157806375c67c6614610218576100f3565b806301ffc9a7146100f85780633aeac4e1146101355780634030d5211461015e576100f3565b366100f357005b600080fd5b34801561010457600080fd5b5061011f600480360381019061011a9190611540565b6103b5565b60405161012c9190611588565b60405180910390f35b34801561014157600080fd5b5061015c60048036038101906101579190611601565b610487565b005b34801561016a57600080fd5b5061018560048036038101906101809190611681565b6105cb565b6040516101929190611588565b60405180910390f35b3480156101a757600080fd5b506101c260048036038101906101bd91906116ae565b6105eb565b005b3480156101d057600080fd5b506101eb60048036038101906101e691906116ae565b6106e9565b6040516101f89190611588565b60405180910390f35b34801561020d57600080fd5b50610216610709565b005b34801561022457600080fd5b5061023f600480360381019061023a9190611681565b61071d565b60405161024c9190611588565b60405180910390f35b34801561026157600080fd5b5061027c600480360381019061027791906116ff565b61073d565b005b34801561028a57600080fd5b506102936107e2565b6040516102a09190611757565b60405180910390f35b3480156102b557600080fd5b506102d060048036038101906102cb919061179e565b61080b565b005b3480156102de57600080fd5b506102e7610856565b6040516102f49190611757565b60405180910390f35b34801561030957600080fd5b50610324600480360381019061031f9190611833565b61087e565b60405161033191906118c7565b60405180910390f35b34801561034657600080fd5b50610361600480360381019061035c919061179e565b610d8e565b005b34801561036f57600080fd5b5061038a600480360381019061038591906118e2565b610dd9565b005b34801561039857600080fd5b506103b360048036038101906103ae91906116ae565b610e3c565b005b60007f85572ffb000000000000000000000000000000000000000000000000000000007bffffffffffffffffffffffffffffffffffffffffffffffffffffffff1916827bffffffffffffffffffffffffffffffffffffffffffffffffffffffff1916148061048057507f01ffc9a7000000000000000000000000000000000000000000000000000000007bffffffffffffffffffffffffffffffffffffffffffffffffffffffff1916827bffffffffffffffffffffffffffffffffffffffffffffffffffffffff1916145b9050919050565b61048f610ec2565b60008173ffffffffffffffffffffffffffffffffffffffff166370a08231306040518263ffffffff1660e01b81526004016104ca9190611757565b602060405180830381865afa1580156104e7573d6000803e3d6000fd5b505050506040513d601f19601f8201168201806040525081019061050b9190611937565b905060008103610547576040517fd0d04f6000000000000000000000000000000000000000000000000000000000815260040160405180910390fd5b8173ffffffffffffffffffffffffffffffffffffffff1663a9059cbb84836040518363ffffffff1660e01b8152600401610582929190611973565b6020604051808303816000875af11580156105a1573d6000803e3d6000fd5b505050506040513d601f19601f820116820180604052508101906105c591906119b1565b50505050565b60026020528060005260406000206000915054906101000a900460ff1681565b6105f3610ec2565b600047905060008103610632576040517fd0d04f6000000000000000000000000000000000000000000000000000000000815260040160405180910390fd5b60008273ffffffffffffffffffffffffffffffffffffffff168260405161065890611a0f565b60006040518083038185875af1925050503d8060008114610695576040519150601f19603f3d011682016040523d82523d6000602084013e61069a565b606091505b50509050806106e4573383836040517f9d11f5630000000000000000000000000000000000000000000000000000000081526004016106db93929190611a24565b60405180910390fd5b505050565b60036020528060005260406000206000915054906101000a900460ff1681565b610711610ec2565b61071b6000610f49565b565b60016020528060005260406000206000915054906101000a900460ff1681565b7f000000000000000000000000000000000000000000000000000000000000000073ffffffffffffffffffffffffffffffffffffffff163373ffffffffffffffffffffffffffffffffffffffff16146107cd57336040517fd7f733340000000000000000000000000000000000000000000000000000000081526004016107c49190611757565b60405180910390fd5b6107df816107da90611dcf565b61100d565b50565b60008060009054906101000a900473ffffffffffffffffffffffffffffffffffffffff16905090565b610813610ec2565b80600160008467ffffffffffffffff1667ffffffffffffffff16815260200190815260200160002060006101000a81548160ff0219169083151502179055505050565b60007f0000000000000000000000000000000000000000000000000000000000000000905090565b6000610888610ec2565b85600160008267ffffffffffffffff1667ffffffffffffffff16815260200190815260200160002060009054906101000a900460ff166108ff57806040517f206abad70000000000000000000000000000000000000000000000000000000081526004016108f69190611df1565b60405180910390fd5b85600073ffffffffffffffffffffffffffffffffffffffff168173ffffffffffffffffffffffffffffffffffffffff1603610966576040517fa05ff47e00000000000000000000000000000000000000000000000000000000815260040160405180910390fd5b85600073ffffffffffffffffffffffffffffffffffffffff1681600001602081019061099291906116ae565b73ffffffffffffffffffffffffffffffffffffffff16036109df576040517f87ebed7100000000000000000000000000000000000000000000000000000000815260040160405180910390fd5b600073ffffffffffffffffffffffffffffffffffffffff16816020016020810190610a0a91906116ae565b73ffffffffffffffffffffffffffffffffffffffff1603610a57576040517fd343d98400000000000000000000000000000000000000000000000000000000815260040160405180910390fd5b8573ffffffffffffffffffffffffffffffffffffffff166323b872dd886000016020810190610a8691906116ae565b30886040518463ffffffff1660e01b8152600401610aa693929190611a24565b6020604051808303816000875af1158015610ac5573d6000803e3d6000fd5b505050506040513d601f19601f82011682018060405250810190610ae991906119b1565b506000610af88989898961128d565b905060003073ffffffffffffffffffffffffffffffffffffffff1663b0f479a16040518163ffffffff1660e01b8152600401602060405180830381865afa158015610b47573d6000803e3d6000fd5b505050506040513d601f19601f82011682018060405250810190610b6b9190611e21565b905060008173ffffffffffffffffffffffffffffffffffffffff166320487ded8d856040518363ffffffff1660e01b8152600401610baa929190612054565b602060405180830381865afa158015610bc7573d6000803e3d6000fd5b505050506040513d601f19601f82011682018060405250810190610beb9190611937565b905047811115610c345747816040517f8f0f4206000000000000000000000000000000000000000000000000000000008152600401610c2b929190612084565b60405180910390fd5b8873ffffffffffffffffffffffffffffffffffffffff1663095ea7b3838a6040518363ffffffff1660e01b8152600401610c6f929190611973565b6020604051808303816000875af1158015610c8e573d6000803e3d6000fd5b505050506040513d601f19601f82011682018060405250810190610cb291906119b1565b508173ffffffffffffffffffffffffffffffffffffffff166396f4e9f9828e866040518463ffffffff1660e01b8152600401610cef929190612054565b60206040518083038185885af1158015610d0d573d6000803e3d6000fd5b50505050506040513d601f19601f82011682018060405250810190610d3291906120c2565b96508b67ffffffffffffffff16877f41b3f2aa0d49d1cad6d633fd1e8852ea8dd967316e53acbe70b7e0a633aee85c8d8d8d8d87604051610d77959493929190612145565b60405180910390a350505050505095945050505050565b610d96610ec2565b80600260008467ffffffffffffffff1667ffffffffffffffff16815260200190815260200160002060006101000a81548160ff0219169083151502179055505050565b610de1610ec2565b80600360008473ffffffffffffffffffffffffffffffffffffffff1673ffffffffffffffffffffffffffffffffffffffff16815260200190815260200160002060006101000a81548160ff0219169083151502179055505050565b610e44610ec2565b600073ffffffffffffffffffffffffffffffffffffffff168173ffffffffffffffffffffffffffffffffffffffff1603610eb65760006040517f1e4fbdf7000000000000000000000000000000000000000000000000000000008152600401610ead9190611757565b60405180910390fd5b610ebf81610f49565b50565b610eca6113d8565b73ffffffffffffffffffffffffffffffffffffffff16610ee86107e2565b73ffffffffffffffffffffffffffffffffffffffff1614610f4757610f0b6113d8565b6040517f118cdaa7000000000000000000000000000000000000000000000000000000008152600401610f3e9190611757565b60405180910390fd5b565b60008060009054906101000a900473ffffffffffffffffffffffffffffffffffffffff169050816000806101000a81548173ffffffffffffffffffffffffffffffffffffffff021916908373ffffffffffffffffffffffffffffffffffffffff1602179055508173ffffffffffffffffffffffffffffffffffffffff168173ffffffffffffffffffffffffffffffffffffffff167f8be0079c531659141344cd1fd0a4f28419497f9722a3daafe3b4186f6b6457e060405160405180910390a35050565b8060200151816040015180602001905181019061102a91906121d6565b600260008367ffffffffffffffff1667ffffffffffffffff16815260200190815260200160002060009054906101000a900460ff166110a057816040517f213c26780000000000000000000000000000000000000000000000000000000081526004016110979190611df1565b60405180910390fd5b600360008273ffffffffffffffffffffffffffffffffffffffff1673ffffffffffffffffffffffffffffffffffffffff16815260200190815260200160002060009054906101000a900460ff1661112e57806040517fd0d259760000000000000000000000000000000000000000000000000000000081526004016111259190611757565b60405180910390fd5b600083606001518060200190518101906111489190612253565b90506000846080015160008151811061116457611163612280565b5b60200260200101516000015190506000856080015160008151811061118c5761118b612280565b5b60200260200101516020015190508173ffffffffffffffffffffffffffffffffffffffff1663a9059cbb8460200151836040518363ffffffff1660e01b81526004016111d9929190611973565b6020604051808303816000875af11580156111f8573d6000803e3d6000fd5b505050506040513d601f19601f8201168201806040525081019061121c91906119b1565b50856020015167ffffffffffffffff1686600001517f3512ebab48659a32bc61ed8699c211efcc8688c7a778dcb6fb9968e325e0445e886040015180602001905181019061126a91906121d6565b86868660405161127d949392919061233d565b60405180910390a3505050505050565b61129561145f565b6000600167ffffffffffffffff8111156112b2576112b1611a71565b5b6040519080825280602002602001820160405280156112eb57816020015b6112d86114a4565b8152602001906001900390816112d05790505b50905060405180604001604052808573ffffffffffffffffffffffffffffffffffffffff168152602001848152508160008151811061132d5761132c612280565b5b60200260200101819052506040518060a00160405280876040516020016113549190611757565b6040516020818303038152906040528152602001866040516020016113799190612382565b6040516020818303038152906040528152602001828152602001600073ffffffffffffffffffffffffffffffffffffffff1681526020016113ca604051806020016040528062030d408152506113e0565b815250915050949350505050565b600033905090565b60606397a657c960e01b826040516024016113fb91906123b9565b604051602081830303815290604052907bffffffffffffffffffffffffffffffffffffffffffffffffffffffff19166020820180517bffffffffffffffffffffffffffffffffffffffffffffffffffffffff83818316178352505050509050919050565b6040518060a00160405280606081526020016060815260200160608152602001600073ffffffffffffffffffffffffffffffffffffffff168152602001606081525090565b6040518060400160405280600073ffffffffffffffffffffffffffffffffffffffff168152602001600081525090565b6000604051905090565b600080fd5b600080fd5b60007fffffffff0000000000000000000000000000000000000000000000000000000082169050919050565b61151d816114e8565b811461152857600080fd5b50565b60008135905061153a81611514565b92915050565b600060208284031215611556576115556114de565b5b60006115648482850161152b565b91505092915050565b60008115159050919050565b6115828161156d565b82525050565b600060208201905061159d6000830184611579565b92915050565b600073ffffffffffffffffffffffffffffffffffffffff82169050919050565b60006115ce826115a3565b9050919050565b6115de816115c3565b81146115e957600080fd5b50565b6000813590506115fb816115d5565b92915050565b60008060408385031215611618576116176114de565b5b6000611626858286016115ec565b9250506020611637858286016115ec565b9150509250929050565b600067ffffffffffffffff82169050919050565b61165e81611641565b811461166957600080fd5b50565b60008135905061167b81611655565b92915050565b600060208284031215611697576116966114de565b5b60006116a58482850161166c565b91505092915050565b6000602082840312156116c4576116c36114de565b5b60006116d2848285016115ec565b91505092915050565b600080fd5b600060a082840312156116f6576116f56116db565b5b81905092915050565b600060208284031215611715576117146114de565b5b600082013567ffffffffffffffff811115611733576117326114e3565b5b61173f848285016116e0565b91505092915050565b611751816115c3565b82525050565b600060208201905061176c6000830184611748565b92915050565b61177b8161156d565b811461178657600080fd5b50565b60008135905061179881611772565b92915050565b600080604083850312156117b5576117b46114de565b5b60006117c38582860161166c565b92505060206117d485828601611789565b9150509250929050565b6000604082840312156117f4576117f36116db565b5b81905092915050565b6000819050919050565b611810816117fd565b811461181b57600080fd5b50565b60008135905061182d81611807565b92915050565b600080600080600060c0868803121561184f5761184e6114de565b5b600061185d8882890161166c565b955050602061186e888289016115ec565b945050604061187f888289016117de565b9350506080611890888289016115ec565b92505060a06118a18882890161181e565b9150509295509295909350565b6000819050919050565b6118c1816118ae565b82525050565b60006020820190506118dc60008301846118b8565b92915050565b600080604083850312156118f9576118f86114de565b5b6000611907858286016115ec565b925050602061191885828601611789565b9150509250929050565b60008151905061193181611807565b92915050565b60006020828403121561194d5761194c6114de565b5b600061195b84828501611922565b91505092915050565b61196d816117fd565b82525050565b60006040820190506119886000830185611748565b6119956020830184611964565b9392505050565b6000815190506119ab81611772565b92915050565b6000602082840312156119c7576119c66114de565b5b60006119d58482850161199c565b91505092915050565b600081905092915050565b50565b60006119f96000836119de565b9150611a04826119e9565b600082019050919050565b6000611a1a826119ec565b9150819050919050565b6000606082019050611a396000830186611748565b611a466020830185611748565b611a536040830184611964565b949350505050565b600080fd5b6000601f19601f8301169050919050565b7f4e487b7100000000000000000000000000000000000000000000000000000000600052604160045260246000fd5b611aa982611a60565b810181811067ffffffffffffffff82111715611ac857611ac7611a71565b5b80604052505050565b6000611adb6114d4565b9050611ae78282611aa0565b919050565b600080fd5b611afa816118ae565b8114611b0557600080fd5b50565b600081359050611b1781611af1565b92915050565b600080fd5b600080fd5b600067ffffffffffffffff821115611b4257611b41611a71565b5b611b4b82611a60565b9050602081019050919050565b82818337600083830152505050565b6000611b7a611b7584611b27565b611ad1565b905082815260208101848484011115611b9657611b95611b22565b5b611ba1848285611b58565b509392505050565b600082601f830112611bbe57611bbd611b1d565b5b8135611bce848260208601611b67565b91505092915050565b600067ffffffffffffffff821115611bf257611bf1611a71565b5b602082029050602081019050919050565b600080fd5b600060408284031215611c1e57611c1d611a5b565b5b611c286040611ad1565b90506000611c38848285016115ec565b6000830152506020611c4c8482850161181e565b60208301525092915050565b6000611c6b611c6684611bd7565b611ad1565b90508083825260208201905060408402830185811115611c8e57611c8d611c03565b5b835b81811015611cb75780611ca38882611c08565b845260208401935050604081019050611c90565b5050509392505050565b600082601f830112611cd657611cd5611b1d565b5b8135611ce6848260208601611c58565b91505092915050565b600060a08284031215611d0557611d04611a5b565b5b611d0f60a0611ad1565b90506000611d1f84828501611b08565b6000830152506020611d338482850161166c565b602083015250604082013567ffffffffffffffff811115611d5757611d56611aec565b5b611d6384828501611ba9565b604083015250606082013567ffffffffffffffff811115611d8757611d86611aec565b5b611d9384828501611ba9565b606083015250608082013567ffffffffffffffff811115611db757611db6611aec565b5b611dc384828501611cc1565b60808301525092915050565b6000611ddb3683611cef565b9050919050565b611deb81611641565b82525050565b6000602082019050611e066000830184611de2565b92915050565b600081519050611e1b816115d5565b92915050565b600060208284031215611e3757611e366114de565b5b6000611e4584828501611e0c565b91505092915050565b600081519050919050565b600082825260208201905092915050565b60005b83811015611e88578082015181840152602081019050611e6d565b60008484015250505050565b6000611e9f82611e4e565b611ea98185611e59565b9350611eb9818560208601611e6a565b611ec281611a60565b840191505092915050565b600081519050919050565b600082825260208201905092915050565b6000819050602082019050919050565b611f02816115c3565b82525050565b611f11816117fd565b82525050565b604082016000820151611f2d6000850182611ef9565b506020820151611f406020850182611f08565b50505050565b6000611f528383611f17565b60408301905092915050565b6000602082019050919050565b6000611f7682611ecd565b611f808185611ed8565b9350611f8b83611ee9565b8060005b83811015611fbc578151611fa38882611f46565b9750611fae83611f5e565b925050600181019050611f8f565b5085935050505092915050565b600060a0830160008301518482036000860152611fe68282611e94565b915050602083015184820360208601526120008282611e94565b9150506040830151848203604086015261201a8282611f6b565b915050606083015161202f6060860182611ef9565b50608083015184820360808601526120478282611e94565b9150508091505092915050565b60006040820190506120696000830185611de2565b818103602083015261207b8184611fc9565b90509392505050565b60006040820190506120996000830185611964565b6120a66020830184611964565b9392505050565b6000815190506120bc81611af1565b92915050565b6000602082840312156120d8576120d76114de565b5b60006120e6848285016120ad565b91505092915050565b60006120fe60208401846115ec565b905092915050565b6040820161211760008301836120ef565b6121246000850182611ef9565b5061213260208301836120ef565b61213f6020850182611ef9565b50505050565b600060c08201905061215a6000830188611748565b6121676020830187612106565b6121746060830186611748565b6121816080830185611964565b61218e60a0830184611964565b9695505050505050565b60006121a3826115a3565b9050919050565b6121b381612198565b81146121be57600080fd5b50565b6000815190506121d0816121aa565b92915050565b6000602082840312156121ec576121eb6114de565b5b60006121fa848285016121c1565b91505092915050565b60006040828403121561221957612218611a5b565b5b6122236040611ad1565b9050600061223384828501611e0c565b600083015250602061224784828501611e0c565b60208301525092915050565b600060408284031215612269576122686114de565b5b600061227784828501612203565b91505092915050565b7f4e487b7100000000000000000000000000000000000000000000000000000000600052603260045260246000fd5b6000819050919050565b60006122d46122cf6122ca846115a3565b6122af565b6115a3565b9050919050565b60006122e6826122b9565b9050919050565b60006122f8826122db565b9050919050565b612308816122ed565b82525050565b6040820160008201516123246000850182611ef9565b5060208201516123376020850182611ef9565b50505050565b600060a08201905061235260008301876122ff565b61235f602083018661230e565b61236c6060830185611748565b6123796080830184611964565b95945050505050565b60006040820190506123976000830184612106565b92915050565b6020820160008201516123b36000850182611f08565b50505050565b60006020820190506123ce600083018461239d565b9291505056fea264697066735822122059d6c7bd1977f9e40874140ff616cbfdb8539fe479a4d06c2f84f6da69158dc664736f6c63430008190033",
  "linkReferences": {},
  "deployedLinkReferences": {}
}